{
	"learning/Donation.sol": {
		"donation": {
			"abi": [
				{
					"inputs": [],
					"stateMutability": "nonpayable",
					"type": "constructor"
				},
				{
					"inputs": [
						{
							"internalType": "address",
							"name": "funder",
							"type": "address"
						}
					],
					"name": "AddressToAmountFunded",
					"outputs": [
						{
							"internalType": "uint256",
							"name": "amountfunded",
							"type": "uint256"
						}
					],
					"stateMutability": "view",
					"type": "function"
				},
				{
					"inputs": [],
					"name": "fund",
					"outputs": [],
					"stateMutability": "payable",
					"type": "function"
				},
				{
					"inputs": [
						{
							"internalType": "uint256",
							"name": "",
							"type": "uint256"
						}
					],
					"name": "funder",
					"outputs": [
						{
							"internalType": "address",
							"name": "",
							"type": "address"
						}
					],
					"stateMutability": "view",
					"type": "function"
				},
				{
					"inputs": [],
					"name": "owner",
					"outputs": [
						{
							"internalType": "address",
							"name": "",
							"type": "address"
						}
					],
					"stateMutability": "view",
					"type": "function"
				},
				{
					"inputs": [
						{
							"internalType": "uint256",
							"name": "_amount",
							"type": "uint256"
						}
					],
					"name": "withdraw",
					"outputs": [],
					"stateMutability": "nonpayable",
					"type": "function"
				}
			],
			"devdoc": {
				"kind": "dev",
				"methods": {},
				"version": 1
			},
			"evm": {
				"assembly": "    /* \"learning/Donation.sol\":61:1212  contract donation{... */\n  mstore(0x40, 0xa0)\n    /* \"learning/Donation.sol\":244:294  constructor(){... */\n  callvalue\n  dup1\n  iszero\n  tag_1\n  jumpi\n  revert(0x00, 0x00)\ntag_1:\n  pop\n    /* \"learning/Donation.sol\":276:286  msg.sender */\n  caller\n    /* \"learning/Donation.sol\":268:286  owner = msg.sender */\n  0xffffffffffffffffffffffffffffffffffffffff\n  and\n  0x80\n  dup2\n  0xffffffffffffffffffffffffffffffffffffffff\n  and\n  dup2\n  mstore\n  pop\n  pop\n    /* \"learning/Donation.sol\":61:1212  contract donation{... */\n  mload(0x80)\n  codecopy(0x00, dataOffset(sub_0), dataSize(sub_0))\n  0x00\n  assignImmutable(\"0x2a80e1ef1d7842f27f2e6be0972bb708b9a135c38860dbe73c27c3486c34f4de\")\n  return(0x00, dataSize(sub_0))\nstop\n\nsub_0: assembly {\n        /* \"learning/Donation.sol\":61:1212  contract donation{... */\n      mstore(0x40, 0x80)\n      jumpi(tag_1, lt(calldatasize, 0x04))\n      shr(0xe0, calldataload(0x00))\n      dup1\n      0x1f2c9238\n      eq\n      tag_2\n      jumpi\n      dup1\n      0x2e1a7d4d\n      eq\n      tag_3\n      jumpi\n      dup1\n      0x8da5cb5b\n      eq\n      tag_4\n      jumpi\n      dup1\n      0xb60d4288\n      eq\n      tag_5\n      jumpi\n      dup1\n      0xdc90eddd\n      eq\n      tag_6\n      jumpi\n    tag_1:\n      revert(0x00, 0x00)\n        /* \"learning/Donation.sol\":126:149  address[] public funder */\n    tag_2:\n      callvalue\n      dup1\n      iszero\n      tag_7\n      jumpi\n      revert(0x00, 0x00)\n    tag_7:\n      pop\n      tag_8\n      0x04\n      dup1\n      calldatasize\n      sub\n      dup2\n      add\n      swap1\n      tag_9\n      swap2\n      swap1\n      tag_10\n      jump\t// in\n    tag_9:\n      tag_11\n      jump\t// in\n    tag_8:\n      mload(0x40)\n      tag_12\n      swap2\n      swap1\n      tag_13\n      jump\t// in\n    tag_12:\n      mload(0x40)\n      dup1\n      swap2\n      sub\n      swap1\n      return\n        /* \"learning/Donation.sol\":503:1205  function withdraw(uint256 _amount) public {... */\n    tag_3:\n      callvalue\n      dup1\n      iszero\n      tag_14\n      jumpi\n      revert(0x00, 0x00)\n    tag_14:\n      pop\n      tag_15\n      0x04\n      dup1\n      calldatasize\n      sub\n      dup2\n      add\n      swap1\n      tag_16\n      swap2\n      swap1\n      tag_10\n      jump\t// in\n    tag_16:\n      tag_17\n      jump\t// in\n    tag_15:\n      stop\n        /* \"learning/Donation.sol\":87:117  address public immutable owner */\n    tag_4:\n      callvalue\n      dup1\n      iszero\n      tag_18\n      jumpi\n      revert(0x00, 0x00)\n    tag_18:\n      pop\n      tag_19\n      tag_20\n      jump\t// in\n    tag_19:\n      mload(0x40)\n      tag_21\n      swap2\n      swap1\n      tag_13\n      jump\t// in\n    tag_21:\n      mload(0x40)\n      dup1\n      swap2\n      sub\n      swap1\n      return\n        /* \"learning/Donation.sol\":302:495  function fund() public payable {... */\n    tag_5:\n      tag_22\n      tag_23\n      jump\t// in\n    tag_22:\n      stop\n        /* \"learning/Donation.sol\":158:235  mapping (address funder => uint256 amountfunded) public AddressToAmountFunded */\n    tag_6:\n      callvalue\n      dup1\n      iszero\n      tag_24\n      jumpi\n      revert(0x00, 0x00)\n    tag_24:\n      pop\n      tag_25\n      0x04\n      dup1\n      calldatasize\n      sub\n      dup2\n      add\n      swap1\n      tag_26\n      swap2\n      swap1\n      tag_27\n      jump\t// in\n    tag_26:\n      tag_28\n      jump\t// in\n    tag_25:\n      mload(0x40)\n      tag_29\n      swap2\n      swap1\n      tag_30\n      jump\t// in\n    tag_29:\n      mload(0x40)\n      dup1\n      swap2\n      sub\n      swap1\n      return\n        /* \"learning/Donation.sol\":126:149  address[] public funder */\n    tag_11:\n      0x00\n      dup2\n      dup2\n      sload\n      dup2\n      lt\n      tag_31\n      jumpi\n      0x00\n      dup1\n      revert\n    tag_31:\n      swap1\n      0x00\n      mstore\n      keccak256(0x00, 0x20)\n      add\n      0x00\n      swap2\n      pop\n      sload\n      swap1\n      0x0100\n      exp\n      swap1\n      div\n      0xffffffffffffffffffffffffffffffffffffffff\n      and\n      dup2\n      jump\t// out\n        /* \"learning/Donation.sol\":503:1205  function withdraw(uint256 _amount) public {... */\n    tag_17:\n        /* \"learning/Donation.sol\":593:612  uint256 AmountInWei */\n      0x00\n        /* \"learning/Donation.sol\":625:629  1e18 */\n      0x0de0b6b3a7640000\n        /* \"learning/Donation.sol\":615:622  _amount */\n      dup3\n        /* \"learning/Donation.sol\":615:629  _amount * 1e18 */\n      tag_34\n      swap2\n      swap1\n      tag_35\n      jump\t// in\n    tag_34:\n        /* \"learning/Donation.sol\":593:629  uint256 AmountInWei = _amount * 1e18 */\n      swap1\n      pop\n        /* \"learning/Donation.sol\":791:796  owner */\n      immutable(\"0x2a80e1ef1d7842f27f2e6be0972bb708b9a135c38860dbe73c27c3486c34f4de\")\n        /* \"learning/Donation.sol\":777:796  msg.sender == owner */\n      0xffffffffffffffffffffffffffffffffffffffff\n      and\n        /* \"learning/Donation.sol\":777:787  msg.sender */\n      caller\n        /* \"learning/Donation.sol\":777:796  msg.sender == owner */\n      0xffffffffffffffffffffffffffffffffffffffff\n      and\n      eq\n        /* \"learning/Donation.sol\":769:818  require(msg.sender == owner, \"you are not owner\") */\n      tag_36\n      jumpi\n      mload(0x40)\n      0x08c379a000000000000000000000000000000000000000000000000000000000\n      dup2\n      mstore\n      0x04\n      add\n      tag_37\n      swap1\n      tag_38\n      jump\t// in\n    tag_37:\n      mload(0x40)\n      dup1\n      swap2\n      sub\n      swap1\n      revert\n    tag_36:\n        /* \"learning/Donation.sol\":896:907  AmountInWei */\n      dup1\n        /* \"learning/Donation.sol\":871:892  address(this).balance */\n      selfbalance\n        /* \"learning/Donation.sol\":871:907  address(this).balance >= AmountInWei */\n      lt\n      iszero\n        /* \"learning/Donation.sol\":863:941  require(address(this).balance >= AmountInWei, \"your balance is not enough!!!\") */\n      tag_39\n      jumpi\n      mload(0x40)\n      0x08c379a000000000000000000000000000000000000000000000000000000000\n      dup2\n      mstore\n      0x04\n      add\n      tag_40\n      swap1\n      tag_41\n      jump\t// in\n    tag_40:\n      mload(0x40)\n      dup1\n      swap2\n      sub\n      swap1\n      revert\n    tag_39:\n        /* \"learning/Donation.sol\":1019:1035  bool callsuccess */\n      0x00\n        /* \"learning/Donation.sol\":1049:1059  msg.sender */\n      caller\n        /* \"learning/Donation.sol\":1041:1065  payable(msg.sender).call */\n      0xffffffffffffffffffffffffffffffffffffffff\n      and\n        /* \"learning/Donation.sol\":1073:1084  AmountInWei */\n      dup3\n        /* \"learning/Donation.sol\":1041:1089  payable(msg.sender).call{value: AmountInWei}(\"\") */\n      mload(0x40)\n      tag_42\n      swap1\n      tag_43\n      jump\t// in\n    tag_42:\n      0x00\n      mload(0x40)\n      dup1\n      dup4\n      sub\n      dup2\n      dup6\n      dup8\n      gas\n      call\n      swap3\n      pop\n      pop\n      pop\n      returndatasize\n      dup1\n      0x00\n      dup2\n      eq\n      tag_46\n      jumpi\n      mload(0x40)\n      swap2\n      pop\n      and(add(returndatasize, 0x3f), not(0x1f))\n      dup3\n      add\n      0x40\n      mstore\n      returndatasize\n      dup3\n      mstore\n      returndatasize\n      0x00\n      0x20\n      dup5\n      add\n      returndatacopy\n      jump(tag_45)\n    tag_46:\n      0x60\n      swap2\n      pop\n    tag_45:\n      pop\n        /* \"learning/Donation.sol\":1018:1089  (bool callsuccess, ) = payable(msg.sender).call{value: AmountInWei}(\"\") */\n      pop\n      swap1\n      pop\n        /* \"learning/Donation.sol\":1156:1167  callsuccess */\n      dup1\n        /* \"learning/Donation.sol\":1148:1193  require(callsuccess, \"transaction is failed\") */\n      tag_47\n      jumpi\n      mload(0x40)\n      0x08c379a000000000000000000000000000000000000000000000000000000000\n      dup2\n      mstore\n      0x04\n      add\n      tag_48\n      swap1\n      tag_49\n      jump\t// in\n    tag_48:\n      mload(0x40)\n      dup1\n      swap2\n      sub\n      swap1\n      revert\n    tag_47:\n        /* \"learning/Donation.sol\":545:1205  {... */\n      pop\n      pop\n        /* \"learning/Donation.sol\":503:1205  function withdraw(uint256 _amount) public {... */\n      pop\n      jump\t// out\n        /* \"learning/Donation.sol\":87:117  address public immutable owner */\n    tag_20:\n      immutable(\"0x2a80e1ef1d7842f27f2e6be0972bb708b9a135c38860dbe73c27c3486c34f4de\")\n      dup2\n      jump\t// out\n        /* \"learning/Donation.sol\":302:495  function fund() public payable {... */\n    tag_23:\n        /* \"learning/Donation.sol\":382:383  0 */\n      0x00\n        /* \"learning/Donation.sol\":345:366  AddressToAmountFunded */\n      0x01\n        /* \"learning/Donation.sol\":345:378  AddressToAmountFunded[msg.sender] */\n      0x00\n        /* \"learning/Donation.sol\":367:377  msg.sender */\n      caller\n        /* \"learning/Donation.sol\":345:378  AddressToAmountFunded[msg.sender] */\n      0xffffffffffffffffffffffffffffffffffffffff\n      and\n      0xffffffffffffffffffffffffffffffffffffffff\n      and\n      dup2\n      mstore\n      0x20\n      add\n      swap1\n      dup2\n      mstore\n      0x20\n      add\n      0x00\n      keccak256\n      sload\n        /* \"learning/Donation.sol\":345:383  AddressToAmountFunded[msg.sender] == 0 */\n      sub\n        /* \"learning/Donation.sol\":341:427  if (AddressToAmountFunded[msg.sender] == 0){... */\n      tag_51\n      jumpi\n        /* \"learning/Donation.sol\":395:401  funder */\n      0x00\n        /* \"learning/Donation.sol\":407:417  msg.sender */\n      caller\n        /* \"learning/Donation.sol\":395:418  funder.push(msg.sender) */\n      swap1\n      dup1\n      0x01\n      dup2\n      sload\n      add\n      dup1\n      dup3\n      sstore\n      dup1\n      swap2\n      pop\n      pop\n      0x01\n      swap1\n      sub\n      swap1\n      0x00\n      mstore\n      keccak256(0x00, 0x20)\n      add\n      0x00\n      swap1\n      swap2\n      swap1\n      swap2\n      swap1\n      swap2\n      0x0100\n      exp\n      dup2\n      sload\n      dup2\n      0xffffffffffffffffffffffffffffffffffffffff\n      mul\n      not\n      and\n      swap1\n      dup4\n      0xffffffffffffffffffffffffffffffffffffffff\n      and\n      mul\n      or\n      swap1\n      sstore\n      pop\n        /* \"learning/Donation.sol\":341:427  if (AddressToAmountFunded[msg.sender] == 0){... */\n    tag_51:\n        /* \"learning/Donation.sol\":474:483  msg.value */\n      callvalue\n        /* \"learning/Donation.sol\":437:458  AddressToAmountFunded */\n      0x01\n        /* \"learning/Donation.sol\":437:470  AddressToAmountFunded[msg.sender] */\n      0x00\n        /* \"learning/Donation.sol\":459:469  msg.sender */\n      caller\n        /* \"learning/Donation.sol\":437:470  AddressToAmountFunded[msg.sender] */\n      0xffffffffffffffffffffffffffffffffffffffff\n      and\n      0xffffffffffffffffffffffffffffffffffffffff\n      and\n      dup2\n      mstore\n      0x20\n      add\n      swap1\n      dup2\n      mstore\n      0x20\n      add\n      0x00\n      keccak256\n      0x00\n        /* \"learning/Donation.sol\":437:483  AddressToAmountFunded[msg.sender] += msg.value */\n      dup3\n      dup3\n      sload\n      tag_53\n      swap2\n      swap1\n      tag_54\n      jump\t// in\n    tag_53:\n      swap3\n      pop\n      pop\n      dup2\n      swap1\n      sstore\n      pop\n        /* \"learning/Donation.sol\":302:495  function fund() public payable {... */\n      jump\t// out\n        /* \"learning/Donation.sol\":158:235  mapping (address funder => uint256 amountfunded) public AddressToAmountFunded */\n    tag_28:\n      mstore(0x20, 0x01)\n      dup1\n      0x00\n      mstore\n      keccak256(0x00, 0x40)\n      0x00\n      swap2\n      pop\n      swap1\n      pop\n      sload\n      dup2\n      jump\t// out\n        /* \"#utility.yul\":88:205   */\n    tag_56:\n        /* \"#utility.yul\":197:198   */\n      0x00\n        /* \"#utility.yul\":194:195   */\n      0x00\n        /* \"#utility.yul\":187:199   */\n      revert\n        /* \"#utility.yul\":334:411   */\n    tag_58:\n        /* \"#utility.yul\":371:378   */\n      0x00\n        /* \"#utility.yul\":400:405   */\n      dup2\n        /* \"#utility.yul\":389:405   */\n      swap1\n      pop\n        /* \"#utility.yul\":334:411   */\n      swap2\n      swap1\n      pop\n      jump\t// out\n        /* \"#utility.yul\":417:539   */\n    tag_59:\n        /* \"#utility.yul\":490:514   */\n      tag_84\n        /* \"#utility.yul\":508:513   */\n      dup2\n        /* \"#utility.yul\":490:514   */\n      tag_58\n      jump\t// in\n    tag_84:\n        /* \"#utility.yul\":483:488   */\n      dup2\n        /* \"#utility.yul\":480:515   */\n      eq\n        /* \"#utility.yul\":470:533   */\n      tag_85\n      jumpi\n        /* \"#utility.yul\":529:530   */\n      0x00\n        /* \"#utility.yul\":526:527   */\n      0x00\n        /* \"#utility.yul\":519:531   */\n      revert\n        /* \"#utility.yul\":470:533   */\n    tag_85:\n        /* \"#utility.yul\":417:539   */\n      pop\n      jump\t// out\n        /* \"#utility.yul\":545:684   */\n    tag_60:\n        /* \"#utility.yul\":591:596   */\n      0x00\n        /* \"#utility.yul\":629:635   */\n      dup2\n        /* \"#utility.yul\":616:636   */\n      calldataload\n        /* \"#utility.yul\":607:636   */\n      swap1\n      pop\n        /* \"#utility.yul\":645:678   */\n      tag_87\n        /* \"#utility.yul\":672:677   */\n      dup2\n        /* \"#utility.yul\":645:678   */\n      tag_59\n      jump\t// in\n    tag_87:\n        /* \"#utility.yul\":545:684   */\n      swap3\n      swap2\n      pop\n      pop\n      jump\t// out\n        /* \"#utility.yul\":690:1019   */\n    tag_10:\n        /* \"#utility.yul\":749:755   */\n      0x00\n        /* \"#utility.yul\":798:800   */\n      0x20\n        /* \"#utility.yul\":786:795   */\n      dup3\n        /* \"#utility.yul\":777:784   */\n      dup5\n        /* \"#utility.yul\":773:796   */\n      sub\n        /* \"#utility.yul\":769:801   */\n      slt\n        /* \"#utility.yul\":766:885   */\n      iszero\n      tag_89\n      jumpi\n        /* \"#utility.yul\":804:883   */\n      tag_90\n      tag_56\n      jump\t// in\n    tag_90:\n        /* \"#utility.yul\":766:885   */\n    tag_89:\n        /* \"#utility.yul\":924:925   */\n      0x00\n        /* \"#utility.yul\":949:1002   */\n      tag_91\n        /* \"#utility.yul\":994:1001   */\n      dup5\n        /* \"#utility.yul\":985:991   */\n      dup3\n        /* \"#utility.yul\":974:983   */\n      dup6\n        /* \"#utility.yul\":970:992   */\n      add\n        /* \"#utility.yul\":949:1002   */\n      tag_60\n      jump\t// in\n    tag_91:\n        /* \"#utility.yul\":939:1002   */\n      swap2\n      pop\n        /* \"#utility.yul\":895:1012   */\n      pop\n        /* \"#utility.yul\":690:1019   */\n      swap3\n      swap2\n      pop\n      pop\n      jump\t// out\n        /* \"#utility.yul\":1025:1151   */\n    tag_61:\n        /* \"#utility.yul\":1062:1069   */\n      0x00\n        /* \"#utility.yul\":1102:1144   */\n      0xffffffffffffffffffffffffffffffffffffffff\n        /* \"#utility.yul\":1095:1100   */\n      dup3\n        /* \"#utility.yul\":1091:1145   */\n      and\n        /* \"#utility.yul\":1080:1145   */\n      swap1\n      pop\n        /* \"#utility.yul\":1025:1151   */\n      swap2\n      swap1\n      pop\n      jump\t// out\n        /* \"#utility.yul\":1157:1253   */\n    tag_62:\n        /* \"#utility.yul\":1194:1201   */\n      0x00\n        /* \"#utility.yul\":1223:1247   */\n      tag_94\n        /* \"#utility.yul\":1241:1246   */\n      dup3\n        /* \"#utility.yul\":1223:1247   */\n      tag_61\n      jump\t// in\n    tag_94:\n        /* \"#utility.yul\":1212:1247   */\n      swap1\n      pop\n        /* \"#utility.yul\":1157:1253   */\n      swap2\n      swap1\n      pop\n      jump\t// out\n        /* \"#utility.yul\":1259:1377   */\n    tag_63:\n        /* \"#utility.yul\":1346:1370   */\n      tag_96\n        /* \"#utility.yul\":1364:1369   */\n      dup2\n        /* \"#utility.yul\":1346:1370   */\n      tag_62\n      jump\t// in\n    tag_96:\n        /* \"#utility.yul\":1341:1344   */\n      dup3\n        /* \"#utility.yul\":1334:1371   */\n      mstore\n        /* \"#utility.yul\":1259:1377   */\n      pop\n      pop\n      jump\t// out\n        /* \"#utility.yul\":1383:1605   */\n    tag_13:\n        /* \"#utility.yul\":1476:1480   */\n      0x00\n        /* \"#utility.yul\":1514:1516   */\n      0x20\n        /* \"#utility.yul\":1503:1512   */\n      dup3\n        /* \"#utility.yul\":1499:1517   */\n      add\n        /* \"#utility.yul\":1491:1517   */\n      swap1\n      pop\n        /* \"#utility.yul\":1527:1598   */\n      tag_98\n        /* \"#utility.yul\":1595:1596   */\n      0x00\n        /* \"#utility.yul\":1584:1593   */\n      dup4\n        /* \"#utility.yul\":1580:1597   */\n      add\n        /* \"#utility.yul\":1571:1577   */\n      dup5\n        /* \"#utility.yul\":1527:1598   */\n      tag_63\n      jump\t// in\n    tag_98:\n        /* \"#utility.yul\":1383:1605   */\n      swap3\n      swap2\n      pop\n      pop\n      jump\t// out\n        /* \"#utility.yul\":1611:1733   */\n    tag_64:\n        /* \"#utility.yul\":1684:1708   */\n      tag_100\n        /* \"#utility.yul\":1702:1707   */\n      dup2\n        /* \"#utility.yul\":1684:1708   */\n      tag_62\n      jump\t// in\n    tag_100:\n        /* \"#utility.yul\":1677:1682   */\n      dup2\n        /* \"#utility.yul\":1674:1709   */\n      eq\n        /* \"#utility.yul\":1664:1727   */\n      tag_101\n      jumpi\n        /* \"#utility.yul\":1723:1724   */\n      0x00\n        /* \"#utility.yul\":1720:1721   */\n      0x00\n        /* \"#utility.yul\":1713:1725   */\n      revert\n        /* \"#utility.yul\":1664:1727   */\n    tag_101:\n        /* \"#utility.yul\":1611:1733   */\n      pop\n      jump\t// out\n        /* \"#utility.yul\":1739:1878   */\n    tag_65:\n        /* \"#utility.yul\":1785:1790   */\n      0x00\n        /* \"#utility.yul\":1823:1829   */\n      dup2\n        /* \"#utility.yul\":1810:1830   */\n      calldataload\n        /* \"#utility.yul\":1801:1830   */\n      swap1\n      pop\n        /* \"#utility.yul\":1839:1872   */\n      tag_103\n        /* \"#utility.yul\":1866:1871   */\n      dup2\n        /* \"#utility.yul\":1839:1872   */\n      tag_64\n      jump\t// in\n    tag_103:\n        /* \"#utility.yul\":1739:1878   */\n      swap3\n      swap2\n      pop\n      pop\n      jump\t// out\n        /* \"#utility.yul\":1884:2213   */\n    tag_27:\n        /* \"#utility.yul\":1943:1949   */\n      0x00\n        /* \"#utility.yul\":1992:1994   */\n      0x20\n        /* \"#utility.yul\":1980:1989   */\n      dup3\n        /* \"#utility.yul\":1971:1978   */\n      dup5\n        /* \"#utility.yul\":1967:1990   */\n      sub\n        /* \"#utility.yul\":1963:1995   */\n      slt\n        /* \"#utility.yul\":1960:2079   */\n      iszero\n      tag_105\n      jumpi\n        /* \"#utility.yul\":1998:2077   */\n      tag_106\n      tag_56\n      jump\t// in\n    tag_106:\n        /* \"#utility.yul\":1960:2079   */\n    tag_105:\n        /* \"#utility.yul\":2118:2119   */\n      0x00\n        /* \"#utility.yul\":2143:2196   */\n      tag_107\n        /* \"#utility.yul\":2188:2195   */\n      dup5\n        /* \"#utility.yul\":2179:2185   */\n      dup3\n        /* \"#utility.yul\":2168:2177   */\n      dup6\n        /* \"#utility.yul\":2164:2186   */\n      add\n        /* \"#utility.yul\":2143:2196   */\n      tag_65\n      jump\t// in\n    tag_107:\n        /* \"#utility.yul\":2133:2196   */\n      swap2\n      pop\n        /* \"#utility.yul\":2089:2206   */\n      pop\n        /* \"#utility.yul\":1884:2213   */\n      swap3\n      swap2\n      pop\n      pop\n      jump\t// out\n        /* \"#utility.yul\":2219:2337   */\n    tag_66:\n        /* \"#utility.yul\":2306:2330   */\n      tag_109\n        /* \"#utility.yul\":2324:2329   */\n      dup2\n        /* \"#utility.yul\":2306:2330   */\n      tag_58\n      jump\t// in\n    tag_109:\n        /* \"#utility.yul\":2301:2304   */\n      dup3\n        /* \"#utility.yul\":2294:2331   */\n      mstore\n        /* \"#utility.yul\":2219:2337   */\n      pop\n      pop\n      jump\t// out\n        /* \"#utility.yul\":2343:2565   */\n    tag_30:\n        /* \"#utility.yul\":2436:2440   */\n      0x00\n        /* \"#utility.yul\":2474:2476   */\n      0x20\n        /* \"#utility.yul\":2463:2472   */\n      dup3\n        /* \"#utility.yul\":2459:2477   */\n      add\n        /* \"#utility.yul\":2451:2477   */\n      swap1\n      pop\n        /* \"#utility.yul\":2487:2558   */\n      tag_111\n        /* \"#utility.yul\":2555:2556   */\n      0x00\n        /* \"#utility.yul\":2544:2553   */\n      dup4\n        /* \"#utility.yul\":2540:2557   */\n      add\n        /* \"#utility.yul\":2531:2537   */\n      dup5\n        /* \"#utility.yul\":2487:2558   */\n      tag_66\n      jump\t// in\n    tag_111:\n        /* \"#utility.yul\":2343:2565   */\n      swap3\n      swap2\n      pop\n      pop\n      jump\t// out\n        /* \"#utility.yul\":2571:2751   */\n    tag_67:\n        /* \"#utility.yul\":2619:2696   */\n      0x4e487b7100000000000000000000000000000000000000000000000000000000\n        /* \"#utility.yul\":2616:2617   */\n      0x00\n        /* \"#utility.yul\":2609:2697   */\n      mstore\n        /* \"#utility.yul\":2716:2720   */\n      0x11\n        /* \"#utility.yul\":2713:2714   */\n      0x04\n        /* \"#utility.yul\":2706:2721   */\n      mstore\n        /* \"#utility.yul\":2740:2744   */\n      0x24\n        /* \"#utility.yul\":2737:2738   */\n      0x00\n        /* \"#utility.yul\":2730:2745   */\n      revert\n        /* \"#utility.yul\":2757:3167   */\n    tag_35:\n        /* \"#utility.yul\":2797:2804   */\n      0x00\n        /* \"#utility.yul\":2820:2840   */\n      tag_114\n        /* \"#utility.yul\":2838:2839   */\n      dup3\n        /* \"#utility.yul\":2820:2840   */\n      tag_58\n      jump\t// in\n    tag_114:\n        /* \"#utility.yul\":2815:2840   */\n      swap2\n      pop\n        /* \"#utility.yul\":2854:2874   */\n      tag_115\n        /* \"#utility.yul\":2872:2873   */\n      dup4\n        /* \"#utility.yul\":2854:2874   */\n      tag_58\n      jump\t// in\n    tag_115:\n        /* \"#utility.yul\":2849:2874   */\n      swap3\n      pop\n        /* \"#utility.yul\":2909:2910   */\n      dup3\n        /* \"#utility.yul\":2906:2907   */\n      dup3\n        /* \"#utility.yul\":2902:2911   */\n      mul\n        /* \"#utility.yul\":2931:2961   */\n      tag_116\n        /* \"#utility.yul\":2949:2960   */\n      dup2\n        /* \"#utility.yul\":2931:2961   */\n      tag_58\n      jump\t// in\n    tag_116:\n        /* \"#utility.yul\":2920:2961   */\n      swap2\n      pop\n        /* \"#utility.yul\":3110:3111   */\n      dup3\n        /* \"#utility.yul\":3101:3108   */\n      dup3\n        /* \"#utility.yul\":3097:3112   */\n      div\n        /* \"#utility.yul\":3094:3095   */\n      dup5\n        /* \"#utility.yul\":3091:3113   */\n      eq\n        /* \"#utility.yul\":3071:3072   */\n      dup4\n        /* \"#utility.yul\":3064:3073   */\n      iszero\n        /* \"#utility.yul\":3044:3127   */\n      or\n        /* \"#utility.yul\":3021:3160   */\n      tag_117\n      jumpi\n        /* \"#utility.yul\":3140:3158   */\n      tag_118\n      tag_67\n      jump\t// in\n    tag_118:\n        /* \"#utility.yul\":3021:3160   */\n    tag_117:\n        /* \"#utility.yul\":2805:3167   */\n      pop\n        /* \"#utility.yul\":2757:3167   */\n      swap3\n      swap2\n      pop\n      pop\n      jump\t// out\n        /* \"#utility.yul\":3173:3342   */\n    tag_68:\n        /* \"#utility.yul\":3257:3268   */\n      0x00\n        /* \"#utility.yul\":3291:3297   */\n      dup3\n        /* \"#utility.yul\":3286:3289   */\n      dup3\n        /* \"#utility.yul\":3279:3298   */\n      mstore\n        /* \"#utility.yul\":3331:3335   */\n      0x20\n        /* \"#utility.yul\":3326:3329   */\n      dup3\n        /* \"#utility.yul\":3322:3336   */\n      add\n        /* \"#utility.yul\":3307:3336   */\n      swap1\n      pop\n        /* \"#utility.yul\":3173:3342   */\n      swap3\n      swap2\n      pop\n      pop\n      jump\t// out\n        /* \"#utility.yul\":3348:3515   */\n    tag_69:\n        /* \"#utility.yul\":3488:3507   */\n      0x796f7520617265206e6f74206f776e6572000000000000000000000000000000\n        /* \"#utility.yul\":3484:3485   */\n      0x00\n        /* \"#utility.yul\":3476:3482   */\n      dup3\n        /* \"#utility.yul\":3472:3486   */\n      add\n        /* \"#utility.yul\":3465:3508   */\n      mstore\n        /* \"#utility.yul\":3348:3515   */\n      pop\n      jump\t// out\n        /* \"#utility.yul\":3521:3887   */\n    tag_70:\n        /* \"#utility.yul\":3663:3666   */\n      0x00\n        /* \"#utility.yul\":3684:3751   */\n      tag_122\n        /* \"#utility.yul\":3748:3750   */\n      0x11\n        /* \"#utility.yul\":3743:3746   */\n      dup4\n        /* \"#utility.yul\":3684:3751   */\n      tag_68\n      jump\t// in\n    tag_122:\n        /* \"#utility.yul\":3677:3751   */\n      swap2\n      pop\n        /* \"#utility.yul\":3760:3853   */\n      tag_123\n        /* \"#utility.yul\":3849:3852   */\n      dup3\n        /* \"#utility.yul\":3760:3853   */\n      tag_69\n      jump\t// in\n    tag_123:\n        /* \"#utility.yul\":3878:3880   */\n      0x20\n        /* \"#utility.yul\":3873:3876   */\n      dup3\n        /* \"#utility.yul\":3869:3881   */\n      add\n        /* \"#utility.yul\":3862:3881   */\n      swap1\n      pop\n        /* \"#utility.yul\":3521:3887   */\n      swap2\n      swap1\n      pop\n      jump\t// out\n        /* \"#utility.yul\":3893:4312   */\n    tag_38:\n        /* \"#utility.yul\":4059:4063   */\n      0x00\n        /* \"#utility.yul\":4097:4099   */\n      0x20\n        /* \"#utility.yul\":4086:4095   */\n      dup3\n        /* \"#utility.yul\":4082:4100   */\n      add\n        /* \"#utility.yul\":4074:4100   */\n      swap1\n      pop\n        /* \"#utility.yul\":4146:4155   */\n      dup2\n        /* \"#utility.yul\":4140:4144   */\n      dup2\n        /* \"#utility.yul\":4136:4156   */\n      sub\n        /* \"#utility.yul\":4132:4133   */\n      0x00\n        /* \"#utility.yul\":4121:4130   */\n      dup4\n        /* \"#utility.yul\":4117:4134   */\n      add\n        /* \"#utility.yul\":4110:4157   */\n      mstore\n        /* \"#utility.yul\":4174:4305   */\n      tag_125\n        /* \"#utility.yul\":4300:4304   */\n      dup2\n        /* \"#utility.yul\":4174:4305   */\n      tag_70\n      jump\t// in\n    tag_125:\n        /* \"#utility.yul\":4166:4305   */\n      swap1\n      pop\n        /* \"#utility.yul\":3893:4312   */\n      swap2\n      swap1\n      pop\n      jump\t// out\n        /* \"#utility.yul\":4318:4497   */\n    tag_71:\n        /* \"#utility.yul\":4458:4489   */\n      0x796f75722062616c616e6365206973206e6f7420656e6f756768212121000000\n        /* \"#utility.yul\":4454:4455   */\n      0x00\n        /* \"#utility.yul\":4446:4452   */\n      dup3\n        /* \"#utility.yul\":4442:4456   */\n      add\n        /* \"#utility.yul\":4435:4490   */\n      mstore\n        /* \"#utility.yul\":4318:4497   */\n      pop\n      jump\t// out\n        /* \"#utility.yul\":4503:4869   */\n    tag_72:\n        /* \"#utility.yul\":4645:4648   */\n      0x00\n        /* \"#utility.yul\":4666:4733   */\n      tag_128\n        /* \"#utility.yul\":4730:4732   */\n      0x1d\n        /* \"#utility.yul\":4725:4728   */\n      dup4\n        /* \"#utility.yul\":4666:4733   */\n      tag_68\n      jump\t// in\n    tag_128:\n        /* \"#utility.yul\":4659:4733   */\n      swap2\n      pop\n        /* \"#utility.yul\":4742:4835   */\n      tag_129\n        /* \"#utility.yul\":4831:4834   */\n      dup3\n        /* \"#utility.yul\":4742:4835   */\n      tag_71\n      jump\t// in\n    tag_129:\n        /* \"#utility.yul\":4860:4862   */\n      0x20\n        /* \"#utility.yul\":4855:4858   */\n      dup3\n        /* \"#utility.yul\":4851:4863   */\n      add\n        /* \"#utility.yul\":4844:4863   */\n      swap1\n      pop\n        /* \"#utility.yul\":4503:4869   */\n      swap2\n      swap1\n      pop\n      jump\t// out\n        /* \"#utility.yul\":4875:5294   */\n    tag_41:\n        /* \"#utility.yul\":5041:5045   */\n      0x00\n        /* \"#utility.yul\":5079:5081   */\n      0x20\n        /* \"#utility.yul\":5068:5077   */\n      dup3\n        /* \"#utility.yul\":5064:5082   */\n      add\n        /* \"#utility.yul\":5056:5082   */\n      swap1\n      pop\n        /* \"#utility.yul\":5128:5137   */\n      dup2\n        /* \"#utility.yul\":5122:5126   */\n      dup2\n        /* \"#utility.yul\":5118:5138   */\n      sub\n        /* \"#utility.yul\":5114:5115   */\n      0x00\n        /* \"#utility.yul\":5103:5112   */\n      dup4\n        /* \"#utility.yul\":5099:5116   */\n      add\n        /* \"#utility.yul\":5092:5139   */\n      mstore\n        /* \"#utility.yul\":5156:5287   */\n      tag_131\n        /* \"#utility.yul\":5282:5286   */\n      dup2\n        /* \"#utility.yul\":5156:5287   */\n      tag_72\n      jump\t// in\n    tag_131:\n        /* \"#utility.yul\":5148:5287   */\n      swap1\n      pop\n        /* \"#utility.yul\":4875:5294   */\n      swap2\n      swap1\n      pop\n      jump\t// out\n        /* \"#utility.yul\":5300:5447   */\n    tag_73:\n        /* \"#utility.yul\":5401:5412   */\n      0x00\n        /* \"#utility.yul\":5438:5441   */\n      dup2\n        /* \"#utility.yul\":5423:5441   */\n      swap1\n      pop\n        /* \"#utility.yul\":5300:5447   */\n      swap3\n      swap2\n      pop\n      pop\n      jump\t// out\n        /* \"#utility.yul\":5453:5567   */\n    tag_74:\n      pop\n      jump\t// out\n        /* \"#utility.yul\":5573:5971   */\n    tag_75:\n        /* \"#utility.yul\":5732:5735   */\n      0x00\n        /* \"#utility.yul\":5753:5836   */\n      tag_135\n        /* \"#utility.yul\":5834:5835   */\n      0x00\n        /* \"#utility.yul\":5829:5832   */\n      dup4\n        /* \"#utility.yul\":5753:5836   */\n      tag_73\n      jump\t// in\n    tag_135:\n        /* \"#utility.yul\":5746:5836   */\n      swap2\n      pop\n        /* \"#utility.yul\":5845:5938   */\n      tag_136\n        /* \"#utility.yul\":5934:5937   */\n      dup3\n        /* \"#utility.yul\":5845:5938   */\n      tag_74\n      jump\t// in\n    tag_136:\n        /* \"#utility.yul\":5963:5964   */\n      0x00\n        /* \"#utility.yul\":5958:5961   */\n      dup3\n        /* \"#utility.yul\":5954:5965   */\n      add\n        /* \"#utility.yul\":5947:5965   */\n      swap1\n      pop\n        /* \"#utility.yul\":5573:5971   */\n      swap2\n      swap1\n      pop\n      jump\t// out\n        /* \"#utility.yul\":5977:6356   */\n    tag_43:\n        /* \"#utility.yul\":6161:6164   */\n      0x00\n        /* \"#utility.yul\":6183:6330   */\n      tag_138\n        /* \"#utility.yul\":6326:6329   */\n      dup3\n        /* \"#utility.yul\":6183:6330   */\n      tag_75\n      jump\t// in\n    tag_138:\n        /* \"#utility.yul\":6176:6330   */\n      swap2\n      pop\n        /* \"#utility.yul\":6347:6350   */\n      dup2\n        /* \"#utility.yul\":6340:6350   */\n      swap1\n      pop\n        /* \"#utility.yul\":5977:6356   */\n      swap2\n      swap1\n      pop\n      jump\t// out\n        /* \"#utility.yul\":6362:6533   */\n    tag_76:\n        /* \"#utility.yul\":6502:6525   */\n      0x7472616e73616374696f6e206973206661696c65640000000000000000000000\n        /* \"#utility.yul\":6498:6499   */\n      0x00\n        /* \"#utility.yul\":6490:6496   */\n      dup3\n        /* \"#utility.yul\":6486:6500   */\n      add\n        /* \"#utility.yul\":6479:6526   */\n      mstore\n        /* \"#utility.yul\":6362:6533   */\n      pop\n      jump\t// out\n        /* \"#utility.yul\":6539:6905   */\n    tag_77:\n        /* \"#utility.yul\":6681:6684   */\n      0x00\n        /* \"#utility.yul\":6702:6769   */\n      tag_141\n        /* \"#utility.yul\":6766:6768   */\n      0x15\n        /* \"#utility.yul\":6761:6764   */\n      dup4\n        /* \"#utility.yul\":6702:6769   */\n      tag_68\n      jump\t// in\n    tag_141:\n        /* \"#utility.yul\":6695:6769   */\n      swap2\n      pop\n        /* \"#utility.yul\":6778:6871   */\n      tag_142\n        /* \"#utility.yul\":6867:6870   */\n      dup3\n        /* \"#utility.yul\":6778:6871   */\n      tag_76\n      jump\t// in\n    tag_142:\n        /* \"#utility.yul\":6896:6898   */\n      0x20\n        /* \"#utility.yul\":6891:6894   */\n      dup3\n        /* \"#utility.yul\":6887:6899   */\n      add\n        /* \"#utility.yul\":6880:6899   */\n      swap1\n      pop\n        /* \"#utility.yul\":6539:6905   */\n      swap2\n      swap1\n      pop\n      jump\t// out\n        /* \"#utility.yul\":6911:7330   */\n    tag_49:\n        /* \"#utility.yul\":7077:7081   */\n      0x00\n        /* \"#utility.yul\":7115:7117   */\n      0x20\n        /* \"#utility.yul\":7104:7113   */\n      dup3\n        /* \"#utility.yul\":7100:7118   */\n      add\n        /* \"#utility.yul\":7092:7118   */\n      swap1\n      pop\n        /* \"#utility.yul\":7164:7173   */\n      dup2\n        /* \"#utility.yul\":7158:7162   */\n      dup2\n        /* \"#utility.yul\":7154:7174   */\n      sub\n        /* \"#utility.yul\":7150:7151   */\n      0x00\n        /* \"#utility.yul\":7139:7148   */\n      dup4\n        /* \"#utility.yul\":7135:7152   */\n      add\n        /* \"#utility.yul\":7128:7175   */\n      mstore\n        /* \"#utility.yul\":7192:7323   */\n      tag_144\n        /* \"#utility.yul\":7318:7322   */\n      dup2\n        /* \"#utility.yul\":7192:7323   */\n      tag_77\n      jump\t// in\n    tag_144:\n        /* \"#utility.yul\":7184:7323   */\n      swap1\n      pop\n        /* \"#utility.yul\":6911:7330   */\n      swap2\n      swap1\n      pop\n      jump\t// out\n        /* \"#utility.yul\":7336:7527   */\n    tag_54:\n        /* \"#utility.yul\":7376:7379   */\n      0x00\n        /* \"#utility.yul\":7395:7415   */\n      tag_146\n        /* \"#utility.yul\":7413:7414   */\n      dup3\n        /* \"#utility.yul\":7395:7415   */\n      tag_58\n      jump\t// in\n    tag_146:\n        /* \"#utility.yul\":7390:7415   */\n      swap2\n      pop\n        /* \"#utility.yul\":7429:7449   */\n      tag_147\n        /* \"#utility.yul\":7447:7448   */\n      dup4\n        /* \"#utility.yul\":7429:7449   */\n      tag_58\n      jump\t// in\n    tag_147:\n        /* \"#utility.yul\":7424:7449   */\n      swap3\n      pop\n        /* \"#utility.yul\":7472:7473   */\n      dup3\n        /* \"#utility.yul\":7469:7470   */\n      dup3\n        /* \"#utility.yul\":7465:7474   */\n      add\n        /* \"#utility.yul\":7458:7474   */\n      swap1\n      pop\n        /* \"#utility.yul\":7493:7496   */\n      dup1\n        /* \"#utility.yul\":7490:7491   */\n      dup3\n        /* \"#utility.yul\":7487:7497   */\n      gt\n        /* \"#utility.yul\":7484:7520   */\n      iszero\n      tag_148\n      jumpi\n        /* \"#utility.yul\":7500:7518   */\n      tag_149\n      tag_67\n      jump\t// in\n    tag_149:\n        /* \"#utility.yul\":7484:7520   */\n    tag_148:\n        /* \"#utility.yul\":7336:7527   */\n      swap3\n      swap2\n      pop\n      pop\n      jump\t// out\n\n    auxdata: 0xa2646970667358221220e8d1b899f86cf1f618b4bd7784f8dfad119cd02b5c0a89ad89fdda8e9996b93964736f6c63430008220033\n}\n",
				"bytecode": {
					"linkReferences": {},
					"object": "60a0604052348015600e575f5ffd5b503373ffffffffffffffffffffffffffffffffffffffff1660808173ffffffffffffffffffffffffffffffffffffffff16815250506080516107b96100625f395f818161017401526102f201526107b95ff3fe608060405260043610610049575f3560e01c80631f2c92381461004d5780632e1a7d4d146100895780638da5cb5b146100b1578063b60d4288146100db578063dc90eddd146100e5575b5f5ffd5b348015610058575f5ffd5b50610073600480360381019061006e9190610459565b610121565b60405161008091906104c3565b60405180910390f35b348015610094575f5ffd5b506100af60048036038101906100aa9190610459565b61015b565b005b3480156100bc575f5ffd5b506100c56102f0565b6040516100d291906104c3565b60405180910390f35b6100e3610314565b005b3480156100f0575f5ffd5b5061010b60048036038101906101069190610506565b61040d565b6040516101189190610540565b60405180910390f35b5f818154811061012f575f80fd5b905f5260205f20015f915054906101000a900473ffffffffffffffffffffffffffffffffffffffff1681565b5f670de0b6b3a7640000826101709190610586565b90507f000000000000000000000000000000000000000000000000000000000000000073ffffffffffffffffffffffffffffffffffffffff163373ffffffffffffffffffffffffffffffffffffffff1614610200576040517f08c379a00000000000000000000000000000000000000000000000000000000081526004016101f790610621565b60405180910390fd5b80471015610243576040517f08c379a000000000000000000000000000000000000000000000000000000000815260040161023a90610689565b60405180910390fd5b5f3373ffffffffffffffffffffffffffffffffffffffff1682604051610268906106d4565b5f6040518083038185875af1925050503d805f81146102a2576040519150601f19603f3d011682016040523d82523d5f602084013e6102a7565b606091505b50509050806102eb576040517f08c379a00000000000000000000000000000000000000000000000000000000081526004016102e290610732565b60405180910390fd5b505050565b7f000000000000000000000000000000000000000000000000000000000000000081565b5f60015f3373ffffffffffffffffffffffffffffffffffffffff1673ffffffffffffffffffffffffffffffffffffffff1681526020019081526020015f2054036103b8575f33908060018154018082558091505060019003905f5260205f20015f9091909190916101000a81548173ffffffffffffffffffffffffffffffffffffffff021916908373ffffffffffffffffffffffffffffffffffffffff1602179055505b3460015f3373ffffffffffffffffffffffffffffffffffffffff1673ffffffffffffffffffffffffffffffffffffffff1681526020019081526020015f205f8282546104049190610750565b92505081905550565b6001602052805f5260405f205f915090505481565b5f5ffd5b5f819050919050565b61043881610426565b8114610442575f5ffd5b50565b5f813590506104538161042f565b92915050565b5f6020828403121561046e5761046d610422565b5b5f61047b84828501610445565b91505092915050565b5f73ffffffffffffffffffffffffffffffffffffffff82169050919050565b5f6104ad82610484565b9050919050565b6104bd816104a3565b82525050565b5f6020820190506104d65f8301846104b4565b92915050565b6104e5816104a3565b81146104ef575f5ffd5b50565b5f81359050610500816104dc565b92915050565b5f6020828403121561051b5761051a610422565b5b5f610528848285016104f2565b91505092915050565b61053a81610426565b82525050565b5f6020820190506105535f830184610531565b92915050565b7f4e487b71000000000000000000000000000000000000000000000000000000005f52601160045260245ffd5b5f61059082610426565b915061059b83610426565b92508282026105a981610426565b915082820484148315176105c0576105bf610559565b5b5092915050565b5f82825260208201905092915050565b7f796f7520617265206e6f74206f776e65720000000000000000000000000000005f82015250565b5f61060b6011836105c7565b9150610616826105d7565b602082019050919050565b5f6020820190508181035f830152610638816105ff565b9050919050565b7f796f75722062616c616e6365206973206e6f7420656e6f7567682121210000005f82015250565b5f610673601d836105c7565b915061067e8261063f565b602082019050919050565b5f6020820190508181035f8301526106a081610667565b9050919050565b5f81905092915050565b50565b5f6106bf5f836106a7565b91506106ca826106b1565b5f82019050919050565b5f6106de826106b4565b9150819050919050565b7f7472616e73616374696f6e206973206661696c656400000000000000000000005f82015250565b5f61071c6015836105c7565b9150610727826106e8565b602082019050919050565b5f6020820190508181035f83015261074981610710565b9050919050565b5f61075a82610426565b915061076583610426565b925082820190508082111561077d5761077c610559565b5b9291505056fea2646970667358221220e8d1b899f86cf1f618b4bd7784f8dfad119cd02b5c0a89ad89fdda8e9996b93964736f6c63430008220033",
					"opcodes": "PUSH1 0xA0 PUSH1 0x40 MSTORE CALLVALUE DUP1 ISZERO PUSH1 0xE JUMPI PUSH0 PUSH0 REVERT JUMPDEST POP CALLER PUSH20 0xFFFFFFFFFFFFFFFFFFFFFFFFFFFFFFFFFFFFFFFF AND PUSH1 0x80 DUP2 PUSH20 0xFFFFFFFFFFFFFFFFFFFFFFFFFFFFFFFFFFFFFFFF AND DUP2 MSTORE POP POP PUSH1 0x80 MLOAD PUSH2 0x7B9 PUSH2 0x62 PUSH0 CODECOPY PUSH0 DUP2 DUP2 PUSH2 0x174 ADD MSTORE PUSH2 0x2F2 ADD MSTORE PUSH2 0x7B9 PUSH0 RETURN INVALID PUSH1 0x80 PUSH1 0x40 MSTORE PUSH1 0x4 CALLDATASIZE LT PUSH2 0x49 JUMPI PUSH0 CALLDATALOAD PUSH1 0xE0 SHR DUP1 PUSH4 0x1F2C9238 EQ PUSH2 0x4D JUMPI DUP1 PUSH4 0x2E1A7D4D EQ PUSH2 0x89 JUMPI DUP1 PUSH4 0x8DA5CB5B EQ PUSH2 0xB1 JUMPI DUP1 PUSH4 0xB60D4288 EQ PUSH2 0xDB JUMPI DUP1 PUSH4 0xDC90EDDD EQ PUSH2 0xE5 JUMPI JUMPDEST PUSH0 PUSH0 REVERT JUMPDEST CALLVALUE DUP1 ISZERO PUSH2 0x58 JUMPI PUSH0 PUSH0 REVERT JUMPDEST POP PUSH2 0x73 PUSH1 0x4 DUP1 CALLDATASIZE SUB DUP2 ADD SWAP1 PUSH2 0x6E SWAP2 SWAP1 PUSH2 0x459 JUMP JUMPDEST PUSH2 0x121 JUMP JUMPDEST PUSH1 0x40 MLOAD PUSH2 0x80 SWAP2 SWAP1 PUSH2 0x4C3 JUMP JUMPDEST PUSH1 0x40 MLOAD DUP1 SWAP2 SUB SWAP1 RETURN JUMPDEST CALLVALUE DUP1 ISZERO PUSH2 0x94 JUMPI PUSH0 PUSH0 REVERT JUMPDEST POP PUSH2 0xAF PUSH1 0x4 DUP1 CALLDATASIZE SUB DUP2 ADD SWAP1 PUSH2 0xAA SWAP2 SWAP1 PUSH2 0x459 JUMP JUMPDEST PUSH2 0x15B JUMP JUMPDEST STOP JUMPDEST CALLVALUE DUP1 ISZERO PUSH2 0xBC JUMPI PUSH0 PUSH0 REVERT JUMPDEST POP PUSH2 0xC5 PUSH2 0x2F0 JUMP JUMPDEST PUSH1 0x40 MLOAD PUSH2 0xD2 SWAP2 SWAP1 PUSH2 0x4C3 JUMP JUMPDEST PUSH1 0x40 MLOAD DUP1 SWAP2 SUB SWAP1 RETURN JUMPDEST PUSH2 0xE3 PUSH2 0x314 JUMP JUMPDEST STOP JUMPDEST CALLVALUE DUP1 ISZERO PUSH2 0xF0 JUMPI PUSH0 PUSH0 REVERT JUMPDEST POP PUSH2 0x10B PUSH1 0x4 DUP1 CALLDATASIZE SUB DUP2 ADD SWAP1 PUSH2 0x106 SWAP2 SWAP1 PUSH2 0x506 JUMP JUMPDEST PUSH2 0x40D JUMP JUMPDEST PUSH1 0x40 MLOAD PUSH2 0x118 SWAP2 SWAP1 PUSH2 0x540 JUMP JUMPDEST PUSH1 0x40 MLOAD DUP1 SWAP2 SUB SWAP1 RETURN JUMPDEST PUSH0 DUP2 DUP2 SLOAD DUP2 LT PUSH2 0x12F JUMPI PUSH0 DUP1 REVERT JUMPDEST SWAP1 PUSH0 MSTORE PUSH1 0x20 PUSH0 KECCAK256 ADD PUSH0 SWAP2 POP SLOAD SWAP1 PUSH2 0x100 EXP SWAP1 DIV PUSH20 0xFFFFFFFFFFFFFFFFFFFFFFFFFFFFFFFFFFFFFFFF AND DUP2 JUMP JUMPDEST PUSH0 PUSH8 0xDE0B6B3A7640000 DUP3 PUSH2 0x170 SWAP2 SWAP1 PUSH2 0x586 JUMP JUMPDEST SWAP1 POP PUSH32 0x0 PUSH20 0xFFFFFFFFFFFFFFFFFFFFFFFFFFFFFFFFFFFFFFFF AND CALLER PUSH20 0xFFFFFFFFFFFFFFFFFFFFFFFFFFFFFFFFFFFFFFFF AND EQ PUSH2 0x200 JUMPI PUSH1 0x40 MLOAD PUSH32 0x8C379A000000000000000000000000000000000000000000000000000000000 DUP2 MSTORE PUSH1 0x4 ADD PUSH2 0x1F7 SWAP1 PUSH2 0x621 JUMP JUMPDEST PUSH1 0x40 MLOAD DUP1 SWAP2 SUB SWAP1 REVERT JUMPDEST DUP1 SELFBALANCE LT ISZERO PUSH2 0x243 JUMPI PUSH1 0x40 MLOAD PUSH32 0x8C379A000000000000000000000000000000000000000000000000000000000 DUP2 MSTORE PUSH1 0x4 ADD PUSH2 0x23A SWAP1 PUSH2 0x689 JUMP JUMPDEST PUSH1 0x40 MLOAD DUP1 SWAP2 SUB SWAP1 REVERT JUMPDEST PUSH0 CALLER PUSH20 0xFFFFFFFFFFFFFFFFFFFFFFFFFFFFFFFFFFFFFFFF AND DUP3 PUSH1 0x40 MLOAD PUSH2 0x268 SWAP1 PUSH2 0x6D4 JUMP JUMPDEST PUSH0 PUSH1 0x40 MLOAD DUP1 DUP4 SUB DUP2 DUP6 DUP8 GAS CALL SWAP3 POP POP POP RETURNDATASIZE DUP1 PUSH0 DUP2 EQ PUSH2 0x2A2 JUMPI PUSH1 0x40 MLOAD SWAP2 POP PUSH1 0x1F NOT PUSH1 0x3F RETURNDATASIZE ADD AND DUP3 ADD PUSH1 0x40 MSTORE RETURNDATASIZE DUP3 MSTORE RETURNDATASIZE PUSH0 PUSH1 0x20 DUP5 ADD RETURNDATACOPY PUSH2 0x2A7 JUMP JUMPDEST PUSH1 0x60 SWAP2 POP JUMPDEST POP POP SWAP1 POP DUP1 PUSH2 0x2EB JUMPI PUSH1 0x40 MLOAD PUSH32 0x8C379A000000000000000000000000000000000000000000000000000000000 DUP2 MSTORE PUSH1 0x4 ADD PUSH2 0x2E2 SWAP1 PUSH2 0x732 JUMP JUMPDEST PUSH1 0x40 MLOAD DUP1 SWAP2 SUB SWAP1 REVERT JUMPDEST POP POP POP JUMP JUMPDEST PUSH32 0x0 DUP2 JUMP JUMPDEST PUSH0 PUSH1 0x1 PUSH0 CALLER PUSH20 0xFFFFFFFFFFFFFFFFFFFFFFFFFFFFFFFFFFFFFFFF AND PUSH20 0xFFFFFFFFFFFFFFFFFFFFFFFFFFFFFFFFFFFFFFFF AND DUP2 MSTORE PUSH1 0x20 ADD SWAP1 DUP2 MSTORE PUSH1 0x20 ADD PUSH0 KECCAK256 SLOAD SUB PUSH2 0x3B8 JUMPI PUSH0 CALLER SWAP1 DUP1 PUSH1 0x1 DUP2 SLOAD ADD DUP1 DUP3 SSTORE DUP1 SWAP2 POP POP PUSH1 0x1 SWAP1 SUB SWAP1 PUSH0 MSTORE PUSH1 0x20 PUSH0 KECCAK256 ADD PUSH0 SWAP1 SWAP2 SWAP1 SWAP2 SWAP1 SWAP2 PUSH2 0x100 EXP DUP2 SLOAD DUP2 PUSH20 0xFFFFFFFFFFFFFFFFFFFFFFFFFFFFFFFFFFFFFFFF MUL NOT AND SWAP1 DUP4 PUSH20 0xFFFFFFFFFFFFFFFFFFFFFFFFFFFFFFFFFFFFFFFF AND MUL OR SWAP1 SSTORE POP JUMPDEST CALLVALUE PUSH1 0x1 PUSH0 CALLER PUSH20 0xFFFFFFFFFFFFFFFFFFFFFFFFFFFFFFFFFFFFFFFF AND PUSH20 0xFFFFFFFFFFFFFFFFFFFFFFFFFFFFFFFFFFFFFFFF AND DUP2 MSTORE PUSH1 0x20 ADD SWAP1 DUP2 MSTORE PUSH1 0x20 ADD PUSH0 KECCAK256 PUSH0 DUP3 DUP3 SLOAD PUSH2 0x404 SWAP2 SWAP1 PUSH2 0x750 JUMP JUMPDEST SWAP3 POP POP DUP2 SWAP1 SSTORE POP JUMP JUMPDEST PUSH1 0x1 PUSH1 0x20 MSTORE DUP1 PUSH0 MSTORE PUSH1 0x40 PUSH0 KECCAK256 PUSH0 SWAP2 POP SWAP1 POP SLOAD DUP2 JUMP JUMPDEST PUSH0 PUSH0 REVERT JUMPDEST PUSH0 DUP2 SWAP1 POP SWAP2 SWAP1 POP JUMP JUMPDEST PUSH2 0x438 DUP2 PUSH2 0x426 JUMP JUMPDEST DUP2 EQ PUSH2 0x442 JUMPI PUSH0 PUSH0 REVERT JUMPDEST POP JUMP JUMPDEST PUSH0 DUP2 CALLDATALOAD SWAP1 POP PUSH2 0x453 DUP2 PUSH2 0x42F JUMP JUMPDEST SWAP3 SWAP2 POP POP JUMP JUMPDEST PUSH0 PUSH1 0x20 DUP3 DUP5 SUB SLT ISZERO PUSH2 0x46E JUMPI PUSH2 0x46D PUSH2 0x422 JUMP JUMPDEST JUMPDEST PUSH0 PUSH2 0x47B DUP5 DUP3 DUP6 ADD PUSH2 0x445 JUMP JUMPDEST SWAP2 POP POP SWAP3 SWAP2 POP POP JUMP JUMPDEST PUSH0 PUSH20 0xFFFFFFFFFFFFFFFFFFFFFFFFFFFFFFFFFFFFFFFF DUP3 AND SWAP1 POP SWAP2 SWAP1 POP JUMP JUMPDEST PUSH0 PUSH2 0x4AD DUP3 PUSH2 0x484 JUMP JUMPDEST SWAP1 POP SWAP2 SWAP1 POP JUMP JUMPDEST PUSH2 0x4BD DUP2 PUSH2 0x4A3 JUMP JUMPDEST DUP3 MSTORE POP POP JUMP JUMPDEST PUSH0 PUSH1 0x20 DUP3 ADD SWAP1 POP PUSH2 0x4D6 PUSH0 DUP4 ADD DUP5 PUSH2 0x4B4 JUMP JUMPDEST SWAP3 SWAP2 POP POP JUMP JUMPDEST PUSH2 0x4E5 DUP2 PUSH2 0x4A3 JUMP JUMPDEST DUP2 EQ PUSH2 0x4EF JUMPI PUSH0 PUSH0 REVERT JUMPDEST POP JUMP JUMPDEST PUSH0 DUP2 CALLDATALOAD SWAP1 POP PUSH2 0x500 DUP2 PUSH2 0x4DC JUMP JUMPDEST SWAP3 SWAP2 POP POP JUMP JUMPDEST PUSH0 PUSH1 0x20 DUP3 DUP5 SUB SLT ISZERO PUSH2 0x51B JUMPI PUSH2 0x51A PUSH2 0x422 JUMP JUMPDEST JUMPDEST PUSH0 PUSH2 0x528 DUP5 DUP3 DUP6 ADD PUSH2 0x4F2 JUMP JUMPDEST SWAP2 POP POP SWAP3 SWAP2 POP POP JUMP JUMPDEST PUSH2 0x53A DUP2 PUSH2 0x426 JUMP JUMPDEST DUP3 MSTORE POP POP JUMP JUMPDEST PUSH0 PUSH1 0x20 DUP3 ADD SWAP1 POP PUSH2 0x553 PUSH0 DUP4 ADD DUP5 PUSH2 0x531 JUMP JUMPDEST SWAP3 SWAP2 POP POP JUMP JUMPDEST PUSH32 0x4E487B7100000000000000000000000000000000000000000000000000000000 PUSH0 MSTORE PUSH1 0x11 PUSH1 0x4 MSTORE PUSH1 0x24 PUSH0 REVERT JUMPDEST PUSH0 PUSH2 0x590 DUP3 PUSH2 0x426 JUMP JUMPDEST SWAP2 POP PUSH2 0x59B DUP4 PUSH2 0x426 JUMP JUMPDEST SWAP3 POP DUP3 DUP3 MUL PUSH2 0x5A9 DUP2 PUSH2 0x426 JUMP JUMPDEST SWAP2 POP DUP3 DUP3 DIV DUP5 EQ DUP4 ISZERO OR PUSH2 0x5C0 JUMPI PUSH2 0x5BF PUSH2 0x559 JUMP JUMPDEST JUMPDEST POP SWAP3 SWAP2 POP POP JUMP JUMPDEST PUSH0 DUP3 DUP3 MSTORE PUSH1 0x20 DUP3 ADD SWAP1 POP SWAP3 SWAP2 POP POP JUMP JUMPDEST PUSH32 0x796F7520617265206E6F74206F776E6572000000000000000000000000000000 PUSH0 DUP3 ADD MSTORE POP JUMP JUMPDEST PUSH0 PUSH2 0x60B PUSH1 0x11 DUP4 PUSH2 0x5C7 JUMP JUMPDEST SWAP2 POP PUSH2 0x616 DUP3 PUSH2 0x5D7 JUMP JUMPDEST PUSH1 0x20 DUP3 ADD SWAP1 POP SWAP2 SWAP1 POP JUMP JUMPDEST PUSH0 PUSH1 0x20 DUP3 ADD SWAP1 POP DUP2 DUP2 SUB PUSH0 DUP4 ADD MSTORE PUSH2 0x638 DUP2 PUSH2 0x5FF JUMP JUMPDEST SWAP1 POP SWAP2 SWAP1 POP JUMP JUMPDEST PUSH32 0x796F75722062616C616E6365206973206E6F7420656E6F756768212121000000 PUSH0 DUP3 ADD MSTORE POP JUMP JUMPDEST PUSH0 PUSH2 0x673 PUSH1 0x1D DUP4 PUSH2 0x5C7 JUMP JUMPDEST SWAP2 POP PUSH2 0x67E DUP3 PUSH2 0x63F JUMP JUMPDEST PUSH1 0x20 DUP3 ADD SWAP1 POP SWAP2 SWAP1 POP JUMP JUMPDEST PUSH0 PUSH1 0x20 DUP3 ADD SWAP1 POP DUP2 DUP2 SUB PUSH0 DUP4 ADD MSTORE PUSH2 0x6A0 DUP2 PUSH2 0x667 JUMP JUMPDEST SWAP1 POP SWAP2 SWAP1 POP JUMP JUMPDEST PUSH0 DUP2 SWAP1 POP SWAP3 SWAP2 POP POP JUMP JUMPDEST POP JUMP JUMPDEST PUSH0 PUSH2 0x6BF PUSH0 DUP4 PUSH2 0x6A7 JUMP JUMPDEST SWAP2 POP PUSH2 0x6CA DUP3 PUSH2 0x6B1 JUMP JUMPDEST PUSH0 DUP3 ADD SWAP1 POP SWAP2 SWAP1 POP JUMP JUMPDEST PUSH0 PUSH2 0x6DE DUP3 PUSH2 0x6B4 JUMP JUMPDEST SWAP2 POP DUP2 SWAP1 POP SWAP2 SWAP1 POP JUMP JUMPDEST PUSH32 0x7472616E73616374696F6E206973206661696C65640000000000000000000000 PUSH0 DUP3 ADD MSTORE POP JUMP JUMPDEST PUSH0 PUSH2 0x71C PUSH1 0x15 DUP4 PUSH2 0x5C7 JUMP JUMPDEST SWAP2 POP PUSH2 0x727 DUP3 PUSH2 0x6E8 JUMP JUMPDEST PUSH1 0x20 DUP3 ADD SWAP1 POP SWAP2 SWAP1 POP JUMP JUMPDEST PUSH0 PUSH1 0x20 DUP3 ADD SWAP1 POP DUP2 DUP2 SUB PUSH0 DUP4 ADD MSTORE PUSH2 0x749 DUP2 PUSH2 0x710 JUMP JUMPDEST SWAP1 POP SWAP2 SWAP1 POP JUMP JUMPDEST PUSH0 PUSH2 0x75A DUP3 PUSH2 0x426 JUMP JUMPDEST SWAP2 POP PUSH2 0x765 DUP4 PUSH2 0x426 JUMP JUMPDEST SWAP3 POP DUP3 DUP3 ADD SWAP1 POP DUP1 DUP3 GT ISZERO PUSH2 0x77D JUMPI PUSH2 0x77C PUSH2 0x559 JUMP JUMPDEST JUMPDEST SWAP3 SWAP2 POP POP JUMP INVALID LOG2 PUSH5 0x6970667358 0x22 SLT KECCAK256 0xE8 DATALOADN 0xB899 EXTCALL PUSH13 0xF1F618B4BD7784F8DFAD119CD0 0x2B TLOAD EXP DUP10 0xAD DUP10 REVERT 0xDA DUP15 SWAP10 SWAP7 0xB9 CODECOPY PUSH5 0x736F6C6343 STOP ADDMOD 0x22 STOP CALLER "
				},
				"gasEstimates": {
					"creation": {
						"codeDepositCost": "395400",
						"executionCost": "infinite",
						"totalCost": "infinite"
					},
					"external": {
						"AddressToAmountFunded(address)": "2868",
						"fund()": "infinite",
						"funder(uint256)": "4921",
						"owner()": "infinite",
						"withdraw(uint256)": "infinite"
					}
				},
				"methodIdentifiers": {
					"AddressToAmountFunded(address)": "dc90eddd",
					"fund()": "b60d4288",
					"funder(uint256)": "1f2c9238",
					"owner()": "8da5cb5b",
					"withdraw(uint256)": "2e1a7d4d"
				}
			},
			"storageLayout": {
				"storage": [
					{
						"astId": 6,
						"contract": "learning/Donation.sol:donation",
						"label": "funder",
						"offset": 0,
						"slot": "0",
						"type": "t_array(t_address)dyn_storage"
					},
					{
						"astId": 10,
						"contract": "learning/Donation.sol:donation",
						"label": "AddressToAmountFunded",
						"offset": 0,
						"slot": "1",
						"type": "t_mapping(t_address,t_uint256)"
					}
				],
				"types": {
					"t_address": {
						"encoding": "inplace",
						"label": "address",
						"numberOfBytes": "20"
					},
					"t_array(t_address)dyn_storage": {
						"base": "t_address",
						"encoding": "dynamic_array",
						"label": "address[]",
						"numberOfBytes": "32"
					},
					"t_mapping(t_address,t_uint256)": {
						"encoding": "mapping",
						"key": "t_address",
						"label": "mapping(address => uint256)",
						"numberOfBytes": "32",
						"value": "t_uint256"
					},
					"t_uint256": {
						"encoding": "inplace",
						"label": "uint256",
						"numberOfBytes": "32"
					}
				}
			},
			"userdoc": {
				"kind": "user",
				"methods": {},
				"version": 1
			}
		}
	}
}