{
	"learning/StorageFactory.sol": {
		"storagefactory": {
			"abi": [
				{
					"inputs": [],
					"name": "createsimplestorage",
					"outputs": [],
					"stateMutability": "nonpayable",
					"type": "function"
				},
				{
					"inputs": [
						{
							"internalType": "uint256",
							"name": "",
							"type": "uint256"
						}
					],
					"name": "listofSimpleStorage",
					"outputs": [
						{
							"internalType": "contract SimpleStorage",
							"name": "",
							"type": "address"
						}
					],
					"stateMutability": "view",
					"type": "function"
				},
				{
					"inputs": [
						{
							"internalType": "uint256",
							"name": "_SimpleStorageindex",
							"type": "uint256"
						}
					],
					"name": "sfget",
					"outputs": [
						{
							"internalType": "uint256",
							"name": "",
							"type": "uint256"
						}
					],
					"stateMutability": "view",
					"type": "function"
				},
				{
					"inputs": [
						{
							"internalType": "uint256",
							"name": "_SimpleStorageindex",
							"type": "uint256"
						},
						{
							"internalType": "uint256",
							"name": "_SimpleStoragenumber",
							"type": "uint256"
						}
					],
					"name": "sfstore",
					"outputs": [],
					"stateMutability": "nonpayable",
					"type": "function"
				}
			],
			"devdoc": {
				"kind": "dev",
				"methods": {},
				"version": 1
			},
			"evm": {
				"assembly": "    /* \"learning/StorageFactory.sol\":109:792  contract storagefactory{... */\n  mstore(0x40, 0x80)\n  callvalue\n  dup1\n  iszero\n  tag_1\n  jumpi\n  revert(0x00, 0x00)\ntag_1:\n  pop\n  dataSize(sub_0)\n  dup1\n  dataOffset(sub_0)\n  0x00\n  codecopy\n  0x00\n  return\nstop\n\nsub_0: assembly {\n        /* \"learning/StorageFactory.sol\":109:792  contract storagefactory{... */\n      mstore(0x40, 0x80)\n      callvalue\n      dup1\n      iszero\n      tag_1\n      jumpi\n      revert(0x00, 0x00)\n    tag_1:\n      pop\n      jumpi(tag_2, lt(calldatasize, 0x04))\n      shr(0xe0, calldataload(0x00))\n      dup1\n      0x0ad91b64\n      eq\n      tag_3\n      jumpi\n      dup1\n      0x42422dee\n      eq\n      tag_4\n      jumpi\n      dup1\n      0x534545b6\n      eq\n      tag_5\n      jumpi\n      dup1\n      0xcaec2a5a\n      eq\n      tag_6\n      jumpi\n    tag_2:\n      revert(0x00, 0x00)\n        /* \"learning/StorageFactory.sol\":583:789  function sfget(uint256 _SimpleStorageindex) public view returns(uint256) {... */\n    tag_3:\n      tag_7\n      0x04\n      dup1\n      calldatasize\n      sub\n      dup2\n      add\n      swap1\n      tag_8\n      swap2\n      swap1\n      tag_9\n      jump\t// in\n    tag_8:\n      tag_10\n      jump\t// in\n    tag_7:\n      mload(0x40)\n      tag_11\n      swap2\n      swap1\n      tag_12\n      jump\t// in\n    tag_11:\n      mload(0x40)\n      dup1\n      swap2\n      sub\n      swap1\n      return\n        /* \"learning/StorageFactory.sol\":139:181  SimpleStorage[] public listofSimpleStorage */\n    tag_4:\n      tag_13\n      0x04\n      dup1\n      calldatasize\n      sub\n      dup2\n      add\n      swap1\n      tag_14\n      swap2\n      swap1\n      tag_9\n      jump\t// in\n    tag_14:\n      tag_15\n      jump\t// in\n    tag_13:\n      mload(0x40)\n      tag_16\n      swap2\n      swap1\n      tag_17\n      jump\t// in\n    tag_16:\n      mload(0x40)\n      dup1\n      swap2\n      sub\n      swap1\n      return\n        /* \"learning/StorageFactory.sol\":188:346  function createsimplestorage() public{... */\n    tag_5:\n      tag_18\n      tag_19\n      jump\t// in\n    tag_18:\n      stop\n        /* \"learning/StorageFactory.sol\":352:577  function sfstore(uint256 _SimpleStorageindex, uint256 _SimpleStoragenumber) public {... */\n    tag_6:\n      tag_20\n      0x04\n      dup1\n      calldatasize\n      sub\n      dup2\n      add\n      swap1\n      tag_21\n      swap2\n      swap1\n      tag_22\n      jump\t// in\n    tag_21:\n      tag_23\n      jump\t// in\n    tag_20:\n      stop\n        /* \"learning/StorageFactory.sol\":583:789  function sfget(uint256 _SimpleStorageindex) public view returns(uint256) {... */\n    tag_10:\n        /* \"learning/StorageFactory.sol\":647:654  uint256 */\n      0x00\n        /* \"learning/StorageFactory.sol\":666:695  SimpleStorage mysimpleStorage */\n      0x00\n        /* \"learning/StorageFactory.sol\":698:717  listofSimpleStorage */\n      0x00\n        /* \"learning/StorageFactory.sol\":718:737  _SimpleStorageindex */\n      dup4\n        /* \"learning/StorageFactory.sol\":698:738  listofSimpleStorage[_SimpleStorageindex] */\n      dup2\n      sload\n      dup2\n      lt\n      tag_25\n      jumpi\n      tag_26\n      tag_27\n      jump\t// in\n    tag_26:\n    tag_25:\n      swap1\n      0x00\n      mstore\n      keccak256(0x00, 0x20)\n      add\n      0x00\n      swap1\n      sload\n      swap1\n      0x0100\n      exp\n      swap1\n      div\n      0xffffffffffffffffffffffffffffffffffffffff\n      and\n        /* \"learning/StorageFactory.sol\":666:738  SimpleStorage mysimpleStorage = listofSimpleStorage[_SimpleStorageindex] */\n      swap1\n      pop\n        /* \"learning/StorageFactory.sol\":755:770  mysimpleStorage */\n      dup1\n        /* \"learning/StorageFactory.sol\":755:779  mysimpleStorage.retrieve */\n      0xffffffffffffffffffffffffffffffffffffffff\n      and\n      0x2e64cec1\n        /* \"learning/StorageFactory.sol\":755:781  mysimpleStorage.retrieve() */\n      mload(0x40)\n      dup2\n      0xffffffff\n      and\n      0xe0\n      shl\n      dup2\n      mstore\n      0x04\n      add\n      0x20\n      mload(0x40)\n      dup1\n      dup4\n      sub\n      dup2\n      dup7\n      gas\n      staticcall\n      iszero\n      dup1\n      iszero\n      tag_30\n      jumpi\n      returndatacopy(0x00, 0x00, returndatasize)\n      revert(0x00, returndatasize)\n    tag_30:\n      pop\n      pop\n      pop\n      pop\n      mload(0x40)\n      returndatasize\n      not(0x1f)\n      0x1f\n      dup3\n      add\n      and\n      dup3\n      add\n      dup1\n      0x40\n      mstore\n      pop\n      dup2\n      add\n      swap1\n      tag_31\n      swap2\n      swap1\n      tag_32\n      jump\t// in\n    tag_31:\n        /* \"learning/StorageFactory.sol\":748:781  return mysimpleStorage.retrieve() */\n      swap2\n      pop\n      pop\n        /* \"learning/StorageFactory.sol\":583:789  function sfget(uint256 _SimpleStorageindex) public view returns(uint256) {... */\n      swap2\n      swap1\n      pop\n      jump\t// out\n        /* \"learning/StorageFactory.sol\":139:181  SimpleStorage[] public listofSimpleStorage */\n    tag_15:\n      0x00\n      dup2\n      dup2\n      sload\n      dup2\n      lt\n      tag_33\n      jumpi\n      0x00\n      dup1\n      revert\n    tag_33:\n      swap1\n      0x00\n      mstore\n      keccak256(0x00, 0x20)\n      add\n      0x00\n      swap2\n      pop\n      sload\n      swap1\n      0x0100\n      exp\n      swap1\n      div\n      0xffffffffffffffffffffffffffffffffffffffff\n      and\n      dup2\n      jump\t// out\n        /* \"learning/StorageFactory.sol\":188:346  function createsimplestorage() public{... */\n    tag_19:\n        /* \"learning/StorageFactory.sol\":235:265  SimpleStorage newSimpleStorage */\n      0x00\n        /* \"learning/StorageFactory.sol\":268:287  new SimpleStorage() */\n      mload(0x40)\n      tag_36\n      swap1\n      tag_37\n      jump\t// in\n    tag_36:\n      mload(0x40)\n      dup1\n      swap2\n      sub\n      swap1\n      0x00\n      create\n      dup1\n      iszero\n      dup1\n      iszero\n      tag_38\n      jumpi\n      returndatacopy(0x00, 0x00, returndatasize)\n      revert(0x00, returndatasize)\n    tag_38:\n      pop\n        /* \"learning/StorageFactory.sol\":235:287  SimpleStorage newSimpleStorage = new SimpleStorage() */\n      swap1\n      pop\n        /* \"learning/StorageFactory.sol\":297:316  listofSimpleStorage */\n      0x00\n        /* \"learning/StorageFactory.sol\":322:338  newSimpleStorage */\n      dup2\n        /* \"learning/StorageFactory.sol\":297:339  listofSimpleStorage.push(newSimpleStorage) */\n      swap1\n      dup1\n      0x01\n      dup2\n      sload\n      add\n      dup1\n      dup3\n      sstore\n      dup1\n      swap2\n      pop\n      pop\n      0x01\n      swap1\n      sub\n      swap1\n      0x00\n      mstore\n      keccak256(0x00, 0x20)\n      add\n      0x00\n      swap1\n      swap2\n      swap1\n      swap2\n      swap1\n      swap2\n      0x0100\n      exp\n      dup2\n      sload\n      dup2\n      0xffffffffffffffffffffffffffffffffffffffff\n      mul\n      not\n      and\n      swap1\n      dup4\n      0xffffffffffffffffffffffffffffffffffffffff\n      and\n      mul\n      or\n      swap1\n      sstore\n      pop\n        /* \"learning/StorageFactory.sol\":225:346  {... */\n      pop\n        /* \"learning/StorageFactory.sol\":188:346  function createsimplestorage() public{... */\n      jump\t// out\n        /* \"learning/StorageFactory.sol\":352:577  function sfstore(uint256 _SimpleStorageindex, uint256 _SimpleStoragenumber) public {... */\n    tag_23:\n        /* \"learning/StorageFactory.sol\":445:474  SimpleStorage mysimpleStorage */\n      0x00\n        /* \"learning/StorageFactory.sol\":477:496  listofSimpleStorage */\n      0x00\n        /* \"learning/StorageFactory.sol\":497:516  _SimpleStorageindex */\n      dup4\n        /* \"learning/StorageFactory.sol\":477:517  listofSimpleStorage[_SimpleStorageindex] */\n      dup2\n      sload\n      dup2\n      lt\n      tag_41\n      jumpi\n      tag_42\n      tag_27\n      jump\t// in\n    tag_42:\n    tag_41:\n      swap1\n      0x00\n      mstore\n      keccak256(0x00, 0x20)\n      add\n      0x00\n      swap1\n      sload\n      swap1\n      0x0100\n      exp\n      swap1\n      div\n      0xffffffffffffffffffffffffffffffffffffffff\n      and\n        /* \"learning/StorageFactory.sol\":445:517  SimpleStorage mysimpleStorage = listofSimpleStorage[_SimpleStorageindex] */\n      swap1\n      pop\n        /* \"learning/StorageFactory.sol\":527:542  mysimpleStorage */\n      dup1\n        /* \"learning/StorageFactory.sol\":527:548  mysimpleStorage.store */\n      0xffffffffffffffffffffffffffffffffffffffff\n      and\n      0x6057361d\n        /* \"learning/StorageFactory.sol\":549:569  _SimpleStoragenumber */\n      dup4\n        /* \"learning/StorageFactory.sol\":527:570  mysimpleStorage.store(_SimpleStoragenumber) */\n      mload(0x40)\n      dup3\n      0xffffffff\n      and\n      0xe0\n      shl\n      dup2\n      mstore\n      0x04\n      add\n      tag_44\n      swap2\n      swap1\n      tag_12\n      jump\t// in\n    tag_44:\n      0x00\n      mload(0x40)\n      dup1\n      dup4\n      sub\n      dup2\n      0x00\n      dup8\n      dup1\n      extcodesize\n      iszero\n      dup1\n      iszero\n      tag_45\n      jumpi\n      revert(0x00, 0x00)\n    tag_45:\n      pop\n      gas\n      call\n      iszero\n      dup1\n      iszero\n      tag_47\n      jumpi\n      returndatacopy(0x00, 0x00, returndatasize)\n      revert(0x00, returndatasize)\n    tag_47:\n      pop\n      pop\n      pop\n      pop\n        /* \"learning/StorageFactory.sol\":435:577  {... */\n      pop\n        /* \"learning/StorageFactory.sol\":352:577  function sfstore(uint256 _SimpleStorageindex, uint256 _SimpleStoragenumber) public {... */\n      pop\n      pop\n      jump\t// out\n    tag_37:\n      dataSize(sub_0)\n      dup1\n      dataOffset(sub_0)\n      dup4\n      codecopy\n      add\n      swap1\n      jump\t// out\n        /* \"#utility.yul\":88:205   */\n    tag_49:\n        /* \"#utility.yul\":197:198   */\n      0x00\n        /* \"#utility.yul\":194:195   */\n      0x00\n        /* \"#utility.yul\":187:199   */\n      revert\n        /* \"#utility.yul\":334:411   */\n    tag_51:\n        /* \"#utility.yul\":371:378   */\n      0x00\n        /* \"#utility.yul\":400:405   */\n      dup2\n        /* \"#utility.yul\":389:405   */\n      swap1\n      pop\n        /* \"#utility.yul\":334:411   */\n      swap2\n      swap1\n      pop\n      jump\t// out\n        /* \"#utility.yul\":417:539   */\n    tag_52:\n        /* \"#utility.yul\":490:514   */\n      tag_68\n        /* \"#utility.yul\":508:513   */\n      dup2\n        /* \"#utility.yul\":490:514   */\n      tag_51\n      jump\t// in\n    tag_68:\n        /* \"#utility.yul\":483:488   */\n      dup2\n        /* \"#utility.yul\":480:515   */\n      eq\n        /* \"#utility.yul\":470:533   */\n      tag_69\n      jumpi\n        /* \"#utility.yul\":529:530   */\n      0x00\n        /* \"#utility.yul\":526:527   */\n      0x00\n        /* \"#utility.yul\":519:531   */\n      revert\n        /* \"#utility.yul\":470:533   */\n    tag_69:\n        /* \"#utility.yul\":417:539   */\n      pop\n      jump\t// out\n        /* \"#utility.yul\":545:684   */\n    tag_53:\n        /* \"#utility.yul\":591:596   */\n      0x00\n        /* \"#utility.yul\":629:635   */\n      dup2\n        /* \"#utility.yul\":616:636   */\n      calldataload\n        /* \"#utility.yul\":607:636   */\n      swap1\n      pop\n        /* \"#utility.yul\":645:678   */\n      tag_71\n        /* \"#utility.yul\":672:677   */\n      dup2\n        /* \"#utility.yul\":645:678   */\n      tag_52\n      jump\t// in\n    tag_71:\n        /* \"#utility.yul\":545:684   */\n      swap3\n      swap2\n      pop\n      pop\n      jump\t// out\n        /* \"#utility.yul\":690:1019   */\n    tag_9:\n        /* \"#utility.yul\":749:755   */\n      0x00\n        /* \"#utility.yul\":798:800   */\n      0x20\n        /* \"#utility.yul\":786:795   */\n      dup3\n        /* \"#utility.yul\":777:784   */\n      dup5\n        /* \"#utility.yul\":773:796   */\n      sub\n        /* \"#utility.yul\":769:801   */\n      slt\n        /* \"#utility.yul\":766:885   */\n      iszero\n      tag_73\n      jumpi\n        /* \"#utility.yul\":804:883   */\n      tag_74\n      tag_49\n      jump\t// in\n    tag_74:\n        /* \"#utility.yul\":766:885   */\n    tag_73:\n        /* \"#utility.yul\":924:925   */\n      0x00\n        /* \"#utility.yul\":949:1002   */\n      tag_75\n        /* \"#utility.yul\":994:1001   */\n      dup5\n        /* \"#utility.yul\":985:991   */\n      dup3\n        /* \"#utility.yul\":974:983   */\n      dup6\n        /* \"#utility.yul\":970:992   */\n      add\n        /* \"#utility.yul\":949:1002   */\n      tag_53\n      jump\t// in\n    tag_75:\n        /* \"#utility.yul\":939:1002   */\n      swap2\n      pop\n        /* \"#utility.yul\":895:1012   */\n      pop\n        /* \"#utility.yul\":690:1019   */\n      swap3\n      swap2\n      pop\n      pop\n      jump\t// out\n        /* \"#utility.yul\":1025:1143   */\n    tag_54:\n        /* \"#utility.yul\":1112:1136   */\n      tag_77\n        /* \"#utility.yul\":1130:1135   */\n      dup2\n        /* \"#utility.yul\":1112:1136   */\n      tag_51\n      jump\t// in\n    tag_77:\n        /* \"#utility.yul\":1107:1110   */\n      dup3\n        /* \"#utility.yul\":1100:1137   */\n      mstore\n        /* \"#utility.yul\":1025:1143   */\n      pop\n      pop\n      jump\t// out\n        /* \"#utility.yul\":1149:1371   */\n    tag_12:\n        /* \"#utility.yul\":1242:1246   */\n      0x00\n        /* \"#utility.yul\":1280:1282   */\n      0x20\n        /* \"#utility.yul\":1269:1278   */\n      dup3\n        /* \"#utility.yul\":1265:1283   */\n      add\n        /* \"#utility.yul\":1257:1283   */\n      swap1\n      pop\n        /* \"#utility.yul\":1293:1364   */\n      tag_79\n        /* \"#utility.yul\":1361:1362   */\n      0x00\n        /* \"#utility.yul\":1350:1359   */\n      dup4\n        /* \"#utility.yul\":1346:1363   */\n      add\n        /* \"#utility.yul\":1337:1343   */\n      dup5\n        /* \"#utility.yul\":1293:1364   */\n      tag_54\n      jump\t// in\n    tag_79:\n        /* \"#utility.yul\":1149:1371   */\n      swap3\n      swap2\n      pop\n      pop\n      jump\t// out\n        /* \"#utility.yul\":1377:1503   */\n    tag_55:\n        /* \"#utility.yul\":1414:1421   */\n      0x00\n        /* \"#utility.yul\":1454:1496   */\n      0xffffffffffffffffffffffffffffffffffffffff\n        /* \"#utility.yul\":1447:1452   */\n      dup3\n        /* \"#utility.yul\":1443:1497   */\n      and\n        /* \"#utility.yul\":1432:1497   */\n      swap1\n      pop\n        /* \"#utility.yul\":1377:1503   */\n      swap2\n      swap1\n      pop\n      jump\t// out\n        /* \"#utility.yul\":1509:1569   */\n    tag_56:\n        /* \"#utility.yul\":1537:1540   */\n      0x00\n        /* \"#utility.yul\":1558:1563   */\n      dup2\n        /* \"#utility.yul\":1551:1563   */\n      swap1\n      pop\n        /* \"#utility.yul\":1509:1569   */\n      swap2\n      swap1\n      pop\n      jump\t// out\n        /* \"#utility.yul\":1575:1717   */\n    tag_57:\n        /* \"#utility.yul\":1625:1634   */\n      0x00\n        /* \"#utility.yul\":1658:1711   */\n      tag_83\n        /* \"#utility.yul\":1676:1710   */\n      tag_84\n        /* \"#utility.yul\":1685:1709   */\n      tag_85\n        /* \"#utility.yul\":1703:1708   */\n      dup5\n        /* \"#utility.yul\":1685:1709   */\n      tag_55\n      jump\t// in\n    tag_85:\n        /* \"#utility.yul\":1676:1710   */\n      tag_56\n      jump\t// in\n    tag_84:\n        /* \"#utility.yul\":1658:1711   */\n      tag_55\n      jump\t// in\n    tag_83:\n        /* \"#utility.yul\":1645:1711   */\n      swap1\n      pop\n        /* \"#utility.yul\":1575:1717   */\n      swap2\n      swap1\n      pop\n      jump\t// out\n        /* \"#utility.yul\":1723:1849   */\n    tag_58:\n        /* \"#utility.yul\":1773:1782   */\n      0x00\n        /* \"#utility.yul\":1806:1843   */\n      tag_87\n        /* \"#utility.yul\":1837:1842   */\n      dup3\n        /* \"#utility.yul\":1806:1843   */\n      tag_57\n      jump\t// in\n    tag_87:\n        /* \"#utility.yul\":1793:1843   */\n      swap1\n      pop\n        /* \"#utility.yul\":1723:1849   */\n      swap2\n      swap1\n      pop\n      jump\t// out\n        /* \"#utility.yul\":1855:2001   */\n    tag_59:\n        /* \"#utility.yul\":1925:1934   */\n      0x00\n        /* \"#utility.yul\":1958:1995   */\n      tag_89\n        /* \"#utility.yul\":1989:1994   */\n      dup3\n        /* \"#utility.yul\":1958:1995   */\n      tag_58\n      jump\t// in\n    tag_89:\n        /* \"#utility.yul\":1945:1995   */\n      swap1\n      pop\n        /* \"#utility.yul\":1855:2001   */\n      swap2\n      swap1\n      pop\n      jump\t// out\n        /* \"#utility.yul\":2007:2178   */\n    tag_60:\n        /* \"#utility.yul\":2114:2171   */\n      tag_91\n        /* \"#utility.yul\":2165:2170   */\n      dup2\n        /* \"#utility.yul\":2114:2171   */\n      tag_59\n      jump\t// in\n    tag_91:\n        /* \"#utility.yul\":2109:2112   */\n      dup3\n        /* \"#utility.yul\":2102:2172   */\n      mstore\n        /* \"#utility.yul\":2007:2178   */\n      pop\n      pop\n      jump\t// out\n        /* \"#utility.yul\":2184:2446   */\n    tag_17:\n        /* \"#utility.yul\":2297:2301   */\n      0x00\n        /* \"#utility.yul\":2335:2337   */\n      0x20\n        /* \"#utility.yul\":2324:2333   */\n      dup3\n        /* \"#utility.yul\":2320:2338   */\n      add\n        /* \"#utility.yul\":2312:2338   */\n      swap1\n      pop\n        /* \"#utility.yul\":2348:2439   */\n      tag_93\n        /* \"#utility.yul\":2436:2437   */\n      0x00\n        /* \"#utility.yul\":2425:2434   */\n      dup4\n        /* \"#utility.yul\":2421:2438   */\n      add\n        /* \"#utility.yul\":2412:2418   */\n      dup5\n        /* \"#utility.yul\":2348:2439   */\n      tag_60\n      jump\t// in\n    tag_93:\n        /* \"#utility.yul\":2184:2446   */\n      swap3\n      swap2\n      pop\n      pop\n      jump\t// out\n        /* \"#utility.yul\":2452:2926   */\n    tag_22:\n        /* \"#utility.yul\":2520:2526   */\n      0x00\n        /* \"#utility.yul\":2528:2534   */\n      0x00\n        /* \"#utility.yul\":2577:2579   */\n      0x40\n        /* \"#utility.yul\":2565:2574   */\n      dup4\n        /* \"#utility.yul\":2556:2563   */\n      dup6\n        /* \"#utility.yul\":2552:2575   */\n      sub\n        /* \"#utility.yul\":2548:2580   */\n      slt\n        /* \"#utility.yul\":2545:2664   */\n      iszero\n      tag_95\n      jumpi\n        /* \"#utility.yul\":2583:2662   */\n      tag_96\n      tag_49\n      jump\t// in\n    tag_96:\n        /* \"#utility.yul\":2545:2664   */\n    tag_95:\n        /* \"#utility.yul\":2703:2704   */\n      0x00\n        /* \"#utility.yul\":2728:2781   */\n      tag_97\n        /* \"#utility.yul\":2773:2780   */\n      dup6\n        /* \"#utility.yul\":2764:2770   */\n      dup3\n        /* \"#utility.yul\":2753:2762   */\n      dup7\n        /* \"#utility.yul\":2749:2771   */\n      add\n        /* \"#utility.yul\":2728:2781   */\n      tag_53\n      jump\t// in\n    tag_97:\n        /* \"#utility.yul\":2718:2781   */\n      swap3\n      pop\n        /* \"#utility.yul\":2674:2791   */\n      pop\n        /* \"#utility.yul\":2830:2832   */\n      0x20\n        /* \"#utility.yul\":2856:2909   */\n      tag_98\n        /* \"#utility.yul\":2901:2908   */\n      dup6\n        /* \"#utility.yul\":2892:2898   */\n      dup3\n        /* \"#utility.yul\":2881:2890   */\n      dup7\n        /* \"#utility.yul\":2877:2899   */\n      add\n        /* \"#utility.yul\":2856:2909   */\n      tag_53\n      jump\t// in\n    tag_98:\n        /* \"#utility.yul\":2846:2909   */\n      swap2\n      pop\n        /* \"#utility.yul\":2801:2919   */\n      pop\n        /* \"#utility.yul\":2452:2926   */\n      swap3\n      pop\n      swap3\n      swap1\n      pop\n      jump\t// out\n        /* \"#utility.yul\":2932:3112   */\n    tag_27:\n        /* \"#utility.yul\":2980:3057   */\n      0x4e487b7100000000000000000000000000000000000000000000000000000000\n        /* \"#utility.yul\":2977:2978   */\n      0x00\n        /* \"#utility.yul\":2970:3058   */\n      mstore\n        /* \"#utility.yul\":3077:3081   */\n      0x32\n        /* \"#utility.yul\":3074:3075   */\n      0x04\n        /* \"#utility.yul\":3067:3082   */\n      mstore\n        /* \"#utility.yul\":3101:3105   */\n      0x24\n        /* \"#utility.yul\":3098:3099   */\n      0x00\n        /* \"#utility.yul\":3091:3106   */\n      revert\n        /* \"#utility.yul\":3118:3261   */\n    tag_61:\n        /* \"#utility.yul\":3175:3180   */\n      0x00\n        /* \"#utility.yul\":3206:3212   */\n      dup2\n        /* \"#utility.yul\":3200:3213   */\n      mload\n        /* \"#utility.yul\":3191:3213   */\n      swap1\n      pop\n        /* \"#utility.yul\":3222:3255   */\n      tag_101\n        /* \"#utility.yul\":3249:3254   */\n      dup2\n        /* \"#utility.yul\":3222:3255   */\n      tag_52\n      jump\t// in\n    tag_101:\n        /* \"#utility.yul\":3118:3261   */\n      swap3\n      swap2\n      pop\n      pop\n      jump\t// out\n        /* \"#utility.yul\":3267:3618   */\n    tag_32:\n        /* \"#utility.yul\":3337:3343   */\n      0x00\n        /* \"#utility.yul\":3386:3388   */\n      0x20\n        /* \"#utility.yul\":3374:3383   */\n      dup3\n        /* \"#utility.yul\":3365:3372   */\n      dup5\n        /* \"#utility.yul\":3361:3384   */\n      sub\n        /* \"#utility.yul\":3357:3389   */\n      slt\n        /* \"#utility.yul\":3354:3473   */\n      iszero\n      tag_103\n      jumpi\n        /* \"#utility.yul\":3392:3471   */\n      tag_104\n      tag_49\n      jump\t// in\n    tag_104:\n        /* \"#utility.yul\":3354:3473   */\n    tag_103:\n        /* \"#utility.yul\":3512:3513   */\n      0x00\n        /* \"#utility.yul\":3537:3601   */\n      tag_105\n        /* \"#utility.yul\":3593:3600   */\n      dup5\n        /* \"#utility.yul\":3584:3590   */\n      dup3\n        /* \"#utility.yul\":3573:3582   */\n      dup6\n        /* \"#utility.yul\":3569:3591   */\n      add\n        /* \"#utility.yul\":3537:3601   */\n      tag_61\n      jump\t// in\n    tag_105:\n        /* \"#utility.yul\":3527:3601   */\n      swap2\n      pop\n        /* \"#utility.yul\":3483:3611   */\n      pop\n        /* \"#utility.yul\":3267:3618   */\n      swap3\n      swap2\n      pop\n      pop\n      jump\t// out\n    stop\n\n    sub_0: assembly {\n            /* \"learning/SimpleStorage.sol\":84:893  contract SimpleStorage{... */\n          mstore(0x40, 0x80)\n            /* \"learning/SimpleStorage.sol\":140:141  0 */\n          0x00\n            /* \"learning/SimpleStorage.sol\":112:141  uint256 myfavouritenumber = 0 */\n          0x00\n          sstore\n            /* \"learning/SimpleStorage.sol\":84:893  contract SimpleStorage{... */\n          callvalue\n          dup1\n          iszero\n          tag_1\n          jumpi\n          revert(0x00, 0x00)\n        tag_1:\n          pop\n          dataSize(sub_0)\n          dup1\n          dataOffset(sub_0)\n          0x00\n          codecopy\n          0x00\n          return\n        stop\n\n        sub_0: assembly {\n                /* \"learning/SimpleStorage.sol\":84:893  contract SimpleStorage{... */\n              mstore(0x40, 0x80)\n              callvalue\n              dup1\n              iszero\n              tag_1\n              jumpi\n              revert(0x00, 0x00)\n            tag_1:\n              pop\n              jumpi(tag_2, lt(calldatasize, 0x04))\n              shr(0xe0, calldataload(0x00))\n              dup1\n              0x2e64cec1\n              eq\n              tag_3\n              jumpi\n              dup1\n              0x6057361d\n              eq\n              tag_4\n              jumpi\n              dup1\n              0x6168cfc5\n              eq\n              tag_5\n              jumpi\n              dup1\n              0x72cec4a1\n              eq\n              tag_6\n              jumpi\n              dup1\n              0x8986f6a5\n              eq\n              tag_7\n              jumpi\n              dup1\n              0xba89dc1a\n              eq\n              tag_8\n              jumpi\n            tag_2:\n              revert(0x00, 0x00)\n                /* \"learning/SimpleStorage.sol\":557:646  function retrieve() public view returns(uint256){... */\n            tag_3:\n              tag_9\n              tag_10\n              jump\t// in\n            tag_9:\n              mload(0x40)\n              tag_11\n              swap2\n              swap1\n              tag_12\n              jump\t// in\n            tag_11:\n              mload(0x40)\n              dup1\n              swap2\n              sub\n              swap1\n              return\n                /* \"learning/SimpleStorage.sol\":324:419  function store(uint256 _favouritenumber) public{... */\n            tag_4:\n              tag_13\n              0x04\n              dup1\n              calldatasize\n              sub\n              dup2\n              add\n              swap1\n              tag_14\n              swap2\n              swap1\n              tag_15\n              jump\t// in\n            tag_14:\n              tag_16\n              jump\t// in\n            tag_13:\n              stop\n                /* \"learning/SimpleStorage.sol\":652:889  function add_people(string memory _name, uint256 _favouritenumber) public {... */\n            tag_5:\n              tag_17\n              0x04\n              dup1\n              calldatasize\n              sub\n              dup2\n              add\n              swap1\n              tag_18\n              swap2\n              swap1\n              tag_19\n              jump\t// in\n            tag_18:\n              tag_20\n              jump\t// in\n            tag_17:\n              stop\n                /* \"learning/SimpleStorage.sol\":429:551  function adding(uint256 _inputyournumber) public {... */\n            tag_6:\n              tag_21\n              0x04\n              dup1\n              calldatasize\n              sub\n              dup2\n              add\n              swap1\n              tag_22\n              swap2\n              swap1\n              tag_15\n              jump\t// in\n            tag_22:\n              tag_23\n              jump\t// in\n            tag_21:\n              stop\n                /* \"learning/SimpleStorage.sol\":227:255  person[] public listofperson */\n            tag_7:\n              tag_24\n              0x04\n              dup1\n              calldatasize\n              sub\n              dup2\n              add\n              swap1\n              tag_25\n              swap2\n              swap1\n              tag_15\n              jump\t// in\n            tag_25:\n              tag_26\n              jump\t// in\n            tag_24:\n              mload(0x40)\n              tag_27\n              swap3\n              swap2\n              swap1\n              tag_28\n              jump\t// in\n            tag_27:\n              mload(0x40)\n              dup1\n              swap2\n              sub\n              swap1\n              return\n                /* \"learning/SimpleStorage.sol\":260:317  mapping(string => uint256) public nameTomyfavouritenumber */\n            tag_8:\n              tag_29\n              0x04\n              dup1\n              calldatasize\n              sub\n              dup2\n              add\n              swap1\n              tag_30\n              swap2\n              swap1\n              tag_31\n              jump\t// in\n            tag_30:\n              tag_32\n              jump\t// in\n            tag_29:\n              mload(0x40)\n              tag_33\n              swap2\n              swap1\n              tag_12\n              jump\t// in\n            tag_33:\n              mload(0x40)\n              dup1\n              swap2\n              sub\n              swap1\n              return\n                /* \"learning/SimpleStorage.sol\":557:646  function retrieve() public view returns(uint256){... */\n            tag_10:\n                /* \"learning/SimpleStorage.sol\":597:604  uint256 */\n              0x00\n                /* \"learning/SimpleStorage.sol\":622:639  myfavouritenumber */\n              sload(0x00)\n                /* \"learning/SimpleStorage.sol\":615:639  return myfavouritenumber */\n              swap1\n              pop\n                /* \"learning/SimpleStorage.sol\":557:646  function retrieve() public view returns(uint256){... */\n              swap1\n              jump\t// out\n                /* \"learning/SimpleStorage.sol\":324:419  function store(uint256 _favouritenumber) public{... */\n            tag_16:\n                /* \"learning/SimpleStorage.sol\":401:417  _favouritenumber */\n              dup1\n                /* \"learning/SimpleStorage.sol\":381:398  myfavouritenumber */\n              0x00\n                /* \"learning/SimpleStorage.sol\":381:417  myfavouritenumber = _favouritenumber */\n              dup2\n              swap1\n              sstore\n              pop\n                /* \"learning/SimpleStorage.sol\":324:419  function store(uint256 _favouritenumber) public{... */\n              pop\n              jump\t// out\n                /* \"learning/SimpleStorage.sol\":652:889  function add_people(string memory _name, uint256 _favouritenumber) public {... */\n            tag_20:\n                /* \"learning/SimpleStorage.sol\":736:748  listofperson */\n              0x01\n                /* \"learning/SimpleStorage.sol\":755:786  person(_name, _favouritenumber) */\n              mload(0x40)\n              dup1\n              0x40\n              add\n              0x40\n              mstore\n              dup1\n                /* \"learning/SimpleStorage.sol\":762:767  _name */\n              dup5\n                /* \"learning/SimpleStorage.sol\":755:786  person(_name, _favouritenumber) */\n              dup2\n              mstore\n              0x20\n              add\n                /* \"learning/SimpleStorage.sol\":769:785  _favouritenumber */\n              dup4\n                /* \"learning/SimpleStorage.sol\":755:786  person(_name, _favouritenumber) */\n              dup2\n              mstore\n              pop\n                /* \"learning/SimpleStorage.sol\":736:787  listofperson.push( person(_name, _favouritenumber)) */\n              swap1\n              dup1\n              0x01\n              dup2\n              sload\n              add\n              dup1\n              dup3\n              sstore\n              dup1\n              swap2\n              pop\n              pop\n              0x01\n              swap1\n              sub\n              swap1\n              0x00\n              mstore\n              keccak256(0x00, 0x20)\n              swap1\n              0x02\n              mul\n              add\n              0x00\n              swap1\n              swap2\n              swap1\n              swap2\n              swap1\n              swap2\n              pop\n              0x00\n              dup3\n              add\n              mload\n              dup2\n              0x00\n              add\n              swap1\n              dup2\n              tag_38\n              swap2\n              swap1\n              tag_39\n              jump\t// in\n            tag_38:\n              pop\n              0x20\n              dup3\n              add\n              mload\n              dup2\n              0x01\n              add\n              sstore\n              pop\n              pop\n                /* \"learning/SimpleStorage.sol\":866:882  _favouritenumber */\n              dup1\n                /* \"learning/SimpleStorage.sol\":833:856  nameTomyfavouritenumber */\n              0x02\n                /* \"learning/SimpleStorage.sol\":857:862  _name */\n              dup4\n                /* \"learning/SimpleStorage.sol\":833:863  nameTomyfavouritenumber[_name] */\n              mload(0x40)\n              tag_40\n              swap2\n              swap1\n              tag_41\n              jump\t// in\n            tag_40:\n              swap1\n              dup2\n              mstore\n              0x20\n              add\n              mload(0x40)\n              dup1\n              swap2\n              sub\n              swap1\n              keccak256\n                /* \"learning/SimpleStorage.sol\":833:882  nameTomyfavouritenumber[_name] = _favouritenumber */\n              dup2\n              swap1\n              sstore\n              pop\n                /* \"learning/SimpleStorage.sol\":652:889  function add_people(string memory _name, uint256 _favouritenumber) public {... */\n              pop\n              pop\n              jump\t// out\n                /* \"learning/SimpleStorage.sol\":429:551  function adding(uint256 _inputyournumber) public {... */\n            tag_23:\n                /* \"learning/SimpleStorage.sol\":527:544  myfavouritenumber */\n              sload(0x00)\n                /* \"learning/SimpleStorage.sol\":508:524  _inputyournumber */\n              dup2\n                /* \"learning/SimpleStorage.sol\":508:544  _inputyournumber + myfavouritenumber */\n              tag_43\n              swap2\n              swap1\n              tag_44\n              jump\t// in\n            tag_43:\n                /* \"learning/SimpleStorage.sol\":488:505  myfavouritenumber */\n              0x00\n                /* \"learning/SimpleStorage.sol\":488:544  myfavouritenumber = _inputyournumber + myfavouritenumber */\n              dup2\n              swap1\n              sstore\n              pop\n                /* \"learning/SimpleStorage.sol\":429:551  function adding(uint256 _inputyournumber) public {... */\n              pop\n              jump\t// out\n                /* \"learning/SimpleStorage.sol\":227:255  person[] public listofperson */\n            tag_26:\n              0x01\n              dup2\n              dup2\n              sload\n              dup2\n              lt\n              tag_45\n              jumpi\n              0x00\n              dup1\n              revert\n            tag_45:\n              swap1\n              0x00\n              mstore\n              keccak256(0x00, 0x20)\n              swap1\n              0x02\n              mul\n              add\n              0x00\n              swap2\n              pop\n              swap1\n              pop\n              dup1\n              0x00\n              add\n              dup1\n              sload\n              tag_47\n              swap1\n              tag_48\n              jump\t// in\n            tag_47:\n              dup1\n              0x1f\n              add\n              0x20\n              dup1\n              swap2\n              div\n              mul\n              0x20\n              add\n              mload(0x40)\n              swap1\n              dup2\n              add\n              0x40\n              mstore\n              dup1\n              swap3\n              swap2\n              swap1\n              dup2\n              dup2\n              mstore\n              0x20\n              add\n              dup3\n              dup1\n              sload\n              tag_49\n              swap1\n              tag_48\n              jump\t// in\n            tag_49:\n              dup1\n              iszero\n              tag_50\n              jumpi\n              dup1\n              0x1f\n              lt\n              tag_51\n              jumpi\n              0x0100\n              dup1\n              dup4\n              sload\n              div\n              mul\n              dup4\n              mstore\n              swap2\n              0x20\n              add\n              swap2\n              jump(tag_50)\n            tag_51:\n              dup3\n              add\n              swap2\n              swap1\n              0x00\n              mstore\n              keccak256(0x00, 0x20)\n              swap1\n            tag_52:\n              dup2\n              sload\n              dup2\n              mstore\n              swap1\n              0x01\n              add\n              swap1\n              0x20\n              add\n              dup1\n              dup4\n              gt\n              tag_52\n              jumpi\n              dup3\n              swap1\n              sub\n              0x1f\n              and\n              dup3\n              add\n              swap2\n            tag_50:\n              pop\n              pop\n              pop\n              pop\n              pop\n              swap1\n              dup1\n              0x01\n              add\n              sload\n              swap1\n              pop\n              dup3\n              jump\t// out\n                /* \"learning/SimpleStorage.sol\":260:317  mapping(string => uint256) public nameTomyfavouritenumber */\n            tag_32:\n              0x02\n              dup2\n              dup1\n              mload\n              0x20\n              dup2\n              add\n              dup3\n              add\n              dup1\n              mload\n              dup5\n              dup3\n              mstore\n              0x20\n              dup4\n              add\n              0x20\n              dup6\n              add\n              keccak256\n              dup2\n              dup4\n              mstore\n              dup1\n              swap6\n              pop\n              pop\n              pop\n              pop\n              pop\n              pop\n              0x00\n              swap2\n              pop\n              swap1\n              pop\n              sload\n              dup2\n              jump\t// out\n                /* \"#utility.yul\":7:84   */\n            tag_53:\n                /* \"#utility.yul\":44:51   */\n              0x00\n                /* \"#utility.yul\":73:78   */\n              dup2\n                /* \"#utility.yul\":62:78   */\n              swap1\n              pop\n                /* \"#utility.yul\":7:84   */\n              swap2\n              swap1\n              pop\n              jump\t// out\n                /* \"#utility.yul\":90:208   */\n            tag_54:\n                /* \"#utility.yul\":177:201   */\n              tag_96\n                /* \"#utility.yul\":195:200   */\n              dup2\n                /* \"#utility.yul\":177:201   */\n              tag_53\n              jump\t// in\n            tag_96:\n                /* \"#utility.yul\":172:175   */\n              dup3\n                /* \"#utility.yul\":165:202   */\n              mstore\n                /* \"#utility.yul\":90:208   */\n              pop\n              pop\n              jump\t// out\n                /* \"#utility.yul\":214:436   */\n            tag_12:\n                /* \"#utility.yul\":307:311   */\n              0x00\n                /* \"#utility.yul\":345:347   */\n              0x20\n                /* \"#utility.yul\":334:343   */\n              dup3\n                /* \"#utility.yul\":330:348   */\n              add\n                /* \"#utility.yul\":322:348   */\n              swap1\n              pop\n                /* \"#utility.yul\":358:429   */\n              tag_98\n                /* \"#utility.yul\":426:427   */\n              0x00\n                /* \"#utility.yul\":415:424   */\n              dup4\n                /* \"#utility.yul\":411:428   */\n              add\n                /* \"#utility.yul\":402:408   */\n              dup5\n                /* \"#utility.yul\":358:429   */\n              tag_54\n              jump\t// in\n            tag_98:\n                /* \"#utility.yul\":214:436   */\n              swap3\n              swap2\n              pop\n              pop\n              jump\t// out\n                /* \"#utility.yul\":442:517   */\n            tag_55:\n                /* \"#utility.yul\":475:481   */\n              0x00\n                /* \"#utility.yul\":508:510   */\n              0x40\n                /* \"#utility.yul\":502:511   */\n              mload\n                /* \"#utility.yul\":492:511   */\n              swap1\n              pop\n                /* \"#utility.yul\":442:517   */\n              swap1\n              jump\t// out\n                /* \"#utility.yul\":523:640   */\n            tag_56:\n                /* \"#utility.yul\":632:633   */\n              0x00\n                /* \"#utility.yul\":629:630   */\n              0x00\n                /* \"#utility.yul\":622:634   */\n              revert\n                /* \"#utility.yul\":646:763   */\n            tag_57:\n                /* \"#utility.yul\":755:756   */\n              0x00\n                /* \"#utility.yul\":752:753   */\n              0x00\n                /* \"#utility.yul\":745:757   */\n              revert\n                /* \"#utility.yul\":769:891   */\n            tag_58:\n                /* \"#utility.yul\":842:866   */\n              tag_103\n                /* \"#utility.yul\":860:865   */\n              dup2\n                /* \"#utility.yul\":842:866   */\n              tag_53\n              jump\t// in\n            tag_103:\n                /* \"#utility.yul\":835:840   */\n              dup2\n                /* \"#utility.yul\":832:867   */\n              eq\n                /* \"#utility.yul\":822:885   */\n              tag_104\n              jumpi\n                /* \"#utility.yul\":881:882   */\n              0x00\n                /* \"#utility.yul\":878:879   */\n              0x00\n                /* \"#utility.yul\":871:883   */\n              revert\n                /* \"#utility.yul\":822:885   */\n            tag_104:\n                /* \"#utility.yul\":769:891   */\n              pop\n              jump\t// out\n                /* \"#utility.yul\":897:1036   */\n            tag_59:\n                /* \"#utility.yul\":943:948   */\n              0x00\n                /* \"#utility.yul\":981:987   */\n              dup2\n                /* \"#utility.yul\":968:988   */\n              calldataload\n                /* \"#utility.yul\":959:988   */\n              swap1\n              pop\n                /* \"#utility.yul\":997:1030   */\n              tag_106\n                /* \"#utility.yul\":1024:1029   */\n              dup2\n                /* \"#utility.yul\":997:1030   */\n              tag_58\n              jump\t// in\n            tag_106:\n                /* \"#utility.yul\":897:1036   */\n              swap3\n              swap2\n              pop\n              pop\n              jump\t// out\n                /* \"#utility.yul\":1042:1371   */\n            tag_15:\n                /* \"#utility.yul\":1101:1107   */\n              0x00\n                /* \"#utility.yul\":1150:1152   */\n              0x20\n                /* \"#utility.yul\":1138:1147   */\n              dup3\n                /* \"#utility.yul\":1129:1136   */\n              dup5\n                /* \"#utility.yul\":1125:1148   */\n              sub\n                /* \"#utility.yul\":1121:1153   */\n              slt\n                /* \"#utility.yul\":1118:1237   */\n              iszero\n              tag_108\n              jumpi\n                /* \"#utility.yul\":1156:1235   */\n              tag_109\n              tag_56\n              jump\t// in\n            tag_109:\n                /* \"#utility.yul\":1118:1237   */\n            tag_108:\n                /* \"#utility.yul\":1276:1277   */\n              0x00\n                /* \"#utility.yul\":1301:1354   */\n              tag_110\n                /* \"#utility.yul\":1346:1353   */\n              dup5\n                /* \"#utility.yul\":1337:1343   */\n              dup3\n                /* \"#utility.yul\":1326:1335   */\n              dup6\n                /* \"#utility.yul\":1322:1344   */\n              add\n                /* \"#utility.yul\":1301:1354   */\n              tag_59\n              jump\t// in\n            tag_110:\n                /* \"#utility.yul\":1291:1354   */\n              swap2\n              pop\n                /* \"#utility.yul\":1247:1364   */\n              pop\n                /* \"#utility.yul\":1042:1371   */\n              swap3\n              swap2\n              pop\n              pop\n              jump\t// out\n                /* \"#utility.yul\":1377:1494   */\n            tag_60:\n                /* \"#utility.yul\":1486:1487   */\n              0x00\n                /* \"#utility.yul\":1483:1484   */\n              0x00\n                /* \"#utility.yul\":1476:1488   */\n              revert\n                /* \"#utility.yul\":1500:1617   */\n            tag_61:\n                /* \"#utility.yul\":1609:1610   */\n              0x00\n                /* \"#utility.yul\":1606:1607   */\n              0x00\n                /* \"#utility.yul\":1599:1611   */\n              revert\n                /* \"#utility.yul\":1623:1725   */\n            tag_62:\n                /* \"#utility.yul\":1664:1670   */\n              0x00\n                /* \"#utility.yul\":1715:1717   */\n              0x1f\n                /* \"#utility.yul\":1711:1718   */\n              not\n                /* \"#utility.yul\":1706:1708   */\n              0x1f\n                /* \"#utility.yul\":1699:1704   */\n              dup4\n                /* \"#utility.yul\":1695:1709   */\n              add\n                /* \"#utility.yul\":1691:1719   */\n              and\n                /* \"#utility.yul\":1681:1719   */\n              swap1\n              pop\n                /* \"#utility.yul\":1623:1725   */\n              swap2\n              swap1\n              pop\n              jump\t// out\n                /* \"#utility.yul\":1731:1911   */\n            tag_63:\n                /* \"#utility.yul\":1779:1856   */\n              0x4e487b7100000000000000000000000000000000000000000000000000000000\n                /* \"#utility.yul\":1776:1777   */\n              0x00\n                /* \"#utility.yul\":1769:1857   */\n              mstore\n                /* \"#utility.yul\":1876:1880   */\n              0x41\n                /* \"#utility.yul\":1873:1874   */\n              0x04\n                /* \"#utility.yul\":1866:1881   */\n              mstore\n                /* \"#utility.yul\":1900:1904   */\n              0x24\n                /* \"#utility.yul\":1897:1898   */\n              0x00\n                /* \"#utility.yul\":1890:1905   */\n              revert\n                /* \"#utility.yul\":1917:2198   */\n            tag_64:\n                /* \"#utility.yul\":2000:2027   */\n              tag_116\n                /* \"#utility.yul\":2022:2026   */\n              dup3\n                /* \"#utility.yul\":2000:2027   */\n              tag_62\n              jump\t// in\n            tag_116:\n                /* \"#utility.yul\":1992:1998   */\n              dup2\n                /* \"#utility.yul\":1988:2028   */\n              add\n                /* \"#utility.yul\":2130:2136   */\n              dup2\n                /* \"#utility.yul\":2118:2128   */\n              dup2\n                /* \"#utility.yul\":2115:2137   */\n              lt\n                /* \"#utility.yul\":2094:2112   */\n              0xffffffffffffffff\n                /* \"#utility.yul\":2082:2092   */\n              dup3\n                /* \"#utility.yul\":2079:2113   */\n              gt\n                /* \"#utility.yul\":2076:2138   */\n              or\n                /* \"#utility.yul\":2073:2161   */\n              iszero\n              tag_117\n              jumpi\n                /* \"#utility.yul\":2141:2159   */\n              tag_118\n              tag_63\n              jump\t// in\n            tag_118:\n                /* \"#utility.yul\":2073:2161   */\n            tag_117:\n                /* \"#utility.yul\":2181:2191   */\n              dup1\n                /* \"#utility.yul\":2177:2179   */\n              0x40\n                /* \"#utility.yul\":2170:2192   */\n              mstore\n                /* \"#utility.yul\":1960:2198   */\n              pop\n                /* \"#utility.yul\":1917:2198   */\n              pop\n              pop\n              jump\t// out\n                /* \"#utility.yul\":2204:2333   */\n            tag_65:\n                /* \"#utility.yul\":2238:2244   */\n              0x00\n                /* \"#utility.yul\":2265:2285   */\n              tag_120\n              tag_55\n              jump\t// in\n            tag_120:\n                /* \"#utility.yul\":2255:2285   */\n              swap1\n              pop\n                /* \"#utility.yul\":2294:2327   */\n              tag_121\n                /* \"#utility.yul\":2322:2326   */\n              dup3\n                /* \"#utility.yul\":2314:2320   */\n              dup3\n                /* \"#utility.yul\":2294:2327   */\n              tag_64\n              jump\t// in\n            tag_121:\n                /* \"#utility.yul\":2204:2333   */\n              swap2\n              swap1\n              pop\n              jump\t// out\n                /* \"#utility.yul\":2339:2647   */\n            tag_66:\n                /* \"#utility.yul\":2401:2405   */\n              0x00\n                /* \"#utility.yul\":2491:2509   */\n              0xffffffffffffffff\n                /* \"#utility.yul\":2483:2489   */\n              dup3\n                /* \"#utility.yul\":2480:2510   */\n              gt\n                /* \"#utility.yul\":2477:2533   */\n              iszero\n              tag_123\n              jumpi\n                /* \"#utility.yul\":2513:2531   */\n              tag_124\n              tag_63\n              jump\t// in\n            tag_124:\n                /* \"#utility.yul\":2477:2533   */\n            tag_123:\n                /* \"#utility.yul\":2551:2580   */\n              tag_125\n                /* \"#utility.yul\":2573:2579   */\n              dup3\n                /* \"#utility.yul\":2551:2580   */\n              tag_62\n              jump\t// in\n            tag_125:\n                /* \"#utility.yul\":2543:2580   */\n              swap1\n              pop\n                /* \"#utility.yul\":2635:2639   */\n              0x20\n                /* \"#utility.yul\":2629:2633   */\n              dup2\n                /* \"#utility.yul\":2625:2640   */\n              add\n                /* \"#utility.yul\":2617:2640   */\n              swap1\n              pop\n                /* \"#utility.yul\":2339:2647   */\n              swap2\n              swap1\n              pop\n              jump\t// out\n                /* \"#utility.yul\":2653:2801   */\n            tag_67:\n                /* \"#utility.yul\":2751:2757   */\n              dup3\n                /* \"#utility.yul\":2746:2749   */\n              dup2\n                /* \"#utility.yul\":2741:2744   */\n              dup4\n                /* \"#utility.yul\":2728:2758   */\n              calldatacopy\n                /* \"#utility.yul\":2792:2793   */\n              0x00\n                /* \"#utility.yul\":2783:2789   */\n              dup4\n                /* \"#utility.yul\":2778:2781   */\n              dup4\n                /* \"#utility.yul\":2774:2790   */\n              add\n                /* \"#utility.yul\":2767:2794   */\n              mstore\n                /* \"#utility.yul\":2653:2801   */\n              pop\n              pop\n              pop\n              jump\t// out\n                /* \"#utility.yul\":2807:3232   */\n            tag_68:\n                /* \"#utility.yul\":2885:2890   */\n              0x00\n                /* \"#utility.yul\":2910:2976   */\n              tag_128\n                /* \"#utility.yul\":2926:2975   */\n              tag_129\n                /* \"#utility.yul\":2968:2974   */\n              dup5\n                /* \"#utility.yul\":2926:2975   */\n              tag_66\n              jump\t// in\n            tag_129:\n                /* \"#utility.yul\":2910:2976   */\n              tag_65\n              jump\t// in\n            tag_128:\n                /* \"#utility.yul\":2901:2976   */\n              swap1\n              pop\n                /* \"#utility.yul\":2999:3005   */\n              dup3\n                /* \"#utility.yul\":2992:2997   */\n              dup2\n                /* \"#utility.yul\":2985:3006   */\n              mstore\n                /* \"#utility.yul\":3037:3041   */\n              0x20\n                /* \"#utility.yul\":3030:3035   */\n              dup2\n                /* \"#utility.yul\":3026:3042   */\n              add\n                /* \"#utility.yul\":3075:3078   */\n              dup5\n                /* \"#utility.yul\":3066:3072   */\n              dup5\n                /* \"#utility.yul\":3061:3064   */\n              dup5\n                /* \"#utility.yul\":3057:3073   */\n              add\n                /* \"#utility.yul\":3054:3079   */\n              gt\n                /* \"#utility.yul\":3051:3163   */\n              iszero\n              tag_130\n              jumpi\n                /* \"#utility.yul\":3082:3161   */\n              tag_131\n              tag_61\n              jump\t// in\n            tag_131:\n                /* \"#utility.yul\":3051:3163   */\n            tag_130:\n                /* \"#utility.yul\":3172:3226   */\n              tag_132\n                /* \"#utility.yul\":3219:3225   */\n              dup5\n                /* \"#utility.yul\":3214:3217   */\n              dup3\n                /* \"#utility.yul\":3209:3212   */\n              dup6\n                /* \"#utility.yul\":3172:3226   */\n              tag_67\n              jump\t// in\n            tag_132:\n                /* \"#utility.yul\":2891:3232   */\n              pop\n                /* \"#utility.yul\":2807:3232   */\n              swap4\n              swap3\n              pop\n              pop\n              pop\n              jump\t// out\n                /* \"#utility.yul\":3252:3592   */\n            tag_69:\n                /* \"#utility.yul\":3308:3313   */\n              0x00\n                /* \"#utility.yul\":3357:3360   */\n              dup3\n                /* \"#utility.yul\":3350:3354   */\n              0x1f\n                /* \"#utility.yul\":3342:3348   */\n              dup4\n                /* \"#utility.yul\":3338:3355   */\n              add\n                /* \"#utility.yul\":3334:3361   */\n              slt\n                /* \"#utility.yul\":3324:3446   */\n              tag_134\n              jumpi\n                /* \"#utility.yul\":3365:3444   */\n              tag_135\n              tag_60\n              jump\t// in\n            tag_135:\n                /* \"#utility.yul\":3324:3446   */\n            tag_134:\n                /* \"#utility.yul\":3482:3488   */\n              dup2\n                /* \"#utility.yul\":3469:3489   */\n              calldataload\n                /* \"#utility.yul\":3507:3586   */\n              tag_136\n                /* \"#utility.yul\":3582:3585   */\n              dup5\n                /* \"#utility.yul\":3574:3580   */\n              dup3\n                /* \"#utility.yul\":3567:3571   */\n              0x20\n                /* \"#utility.yul\":3559:3565   */\n              dup7\n                /* \"#utility.yul\":3555:3572   */\n              add\n                /* \"#utility.yul\":3507:3586   */\n              tag_68\n              jump\t// in\n            tag_136:\n                /* \"#utility.yul\":3498:3586   */\n              swap2\n              pop\n                /* \"#utility.yul\":3314:3592   */\n              pop\n                /* \"#utility.yul\":3252:3592   */\n              swap3\n              swap2\n              pop\n              pop\n              jump\t// out\n                /* \"#utility.yul\":3598:4252   */\n            tag_19:\n                /* \"#utility.yul\":3676:3682   */\n              0x00\n                /* \"#utility.yul\":3684:3690   */\n              0x00\n                /* \"#utility.yul\":3733:3735   */\n              0x40\n                /* \"#utility.yul\":3721:3730   */\n              dup4\n                /* \"#utility.yul\":3712:3719   */\n              dup6\n                /* \"#utility.yul\":3708:3731   */\n              sub\n                /* \"#utility.yul\":3704:3736   */\n              slt\n                /* \"#utility.yul\":3701:3820   */\n              iszero\n              tag_138\n              jumpi\n                /* \"#utility.yul\":3739:3818   */\n              tag_139\n              tag_56\n              jump\t// in\n            tag_139:\n                /* \"#utility.yul\":3701:3820   */\n            tag_138:\n                /* \"#utility.yul\":3887:3888   */\n              0x00\n                /* \"#utility.yul\":3876:3885   */\n              dup4\n                /* \"#utility.yul\":3872:3889   */\n              add\n                /* \"#utility.yul\":3859:3890   */\n              calldataload\n                /* \"#utility.yul\":3917:3935   */\n              0xffffffffffffffff\n                /* \"#utility.yul\":3909:3915   */\n              dup2\n                /* \"#utility.yul\":3906:3936   */\n              gt\n                /* \"#utility.yul\":3903:4020   */\n              iszero\n              tag_140\n              jumpi\n                /* \"#utility.yul\":3939:4018   */\n              tag_141\n              tag_57\n              jump\t// in\n            tag_141:\n                /* \"#utility.yul\":3903:4020   */\n            tag_140:\n                /* \"#utility.yul\":4044:4107   */\n              tag_142\n                /* \"#utility.yul\":4099:4106   */\n              dup6\n                /* \"#utility.yul\":4090:4096   */\n              dup3\n                /* \"#utility.yul\":4079:4088   */\n              dup7\n                /* \"#utility.yul\":4075:4097   */\n              add\n                /* \"#utility.yul\":4044:4107   */\n              tag_69\n              jump\t// in\n            tag_142:\n                /* \"#utility.yul\":4034:4107   */\n              swap3\n              pop\n                /* \"#utility.yul\":3830:4117   */\n              pop\n                /* \"#utility.yul\":4156:4158   */\n              0x20\n                /* \"#utility.yul\":4182:4235   */\n              tag_143\n                /* \"#utility.yul\":4227:4234   */\n              dup6\n                /* \"#utility.yul\":4218:4224   */\n              dup3\n                /* \"#utility.yul\":4207:4216   */\n              dup7\n                /* \"#utility.yul\":4203:4225   */\n              add\n                /* \"#utility.yul\":4182:4235   */\n              tag_59\n              jump\t// in\n            tag_143:\n                /* \"#utility.yul\":4172:4235   */\n              swap2\n              pop\n                /* \"#utility.yul\":4127:4245   */\n              pop\n                /* \"#utility.yul\":3598:4252   */\n              swap3\n              pop\n              swap3\n              swap1\n              pop\n              jump\t// out\n                /* \"#utility.yul\":4258:4357   */\n            tag_70:\n                /* \"#utility.yul\":4310:4316   */\n              0x00\n                /* \"#utility.yul\":4344:4349   */\n              dup2\n                /* \"#utility.yul\":4338:4350   */\n              mload\n                /* \"#utility.yul\":4328:4350   */\n              swap1\n              pop\n                /* \"#utility.yul\":4258:4357   */\n              swap2\n              swap1\n              pop\n              jump\t// out\n                /* \"#utility.yul\":4363:4532   */\n            tag_71:\n                /* \"#utility.yul\":4447:4458   */\n              0x00\n                /* \"#utility.yul\":4481:4487   */\n              dup3\n                /* \"#utility.yul\":4476:4479   */\n              dup3\n                /* \"#utility.yul\":4469:4488   */\n              mstore\n                /* \"#utility.yul\":4521:4525   */\n              0x20\n                /* \"#utility.yul\":4516:4519   */\n              dup3\n                /* \"#utility.yul\":4512:4526   */\n              add\n                /* \"#utility.yul\":4497:4526   */\n              swap1\n              pop\n                /* \"#utility.yul\":4363:4532   */\n              swap3\n              swap2\n              pop\n              pop\n              jump\t// out\n                /* \"#utility.yul\":4538:4677   */\n            tag_72:\n                /* \"#utility.yul\":4627:4633   */\n              dup3\n                /* \"#utility.yul\":4622:4625   */\n              dup2\n                /* \"#utility.yul\":4617:4620   */\n              dup4\n                /* \"#utility.yul\":4611:4634   */\n              mcopy\n                /* \"#utility.yul\":4668:4669   */\n              0x00\n                /* \"#utility.yul\":4659:4665   */\n              dup4\n                /* \"#utility.yul\":4654:4657   */\n              dup4\n                /* \"#utility.yul\":4650:4666   */\n              add\n                /* \"#utility.yul\":4643:4670   */\n              mstore\n                /* \"#utility.yul\":4538:4677   */\n              pop\n              pop\n              pop\n              jump\t// out\n                /* \"#utility.yul\":4683:5060   */\n            tag_73:\n                /* \"#utility.yul\":4771:4774   */\n              0x00\n                /* \"#utility.yul\":4799:4838   */\n              tag_148\n                /* \"#utility.yul\":4832:4837   */\n              dup3\n                /* \"#utility.yul\":4799:4838   */\n              tag_70\n              jump\t// in\n            tag_148:\n                /* \"#utility.yul\":4854:4925   */\n              tag_149\n                /* \"#utility.yul\":4918:4924   */\n              dup2\n                /* \"#utility.yul\":4913:4916   */\n              dup6\n                /* \"#utility.yul\":4854:4925   */\n              tag_71\n              jump\t// in\n            tag_149:\n                /* \"#utility.yul\":4847:4925   */\n              swap4\n              pop\n                /* \"#utility.yul\":4934:4999   */\n              tag_150\n                /* \"#utility.yul\":4992:4998   */\n              dup2\n                /* \"#utility.yul\":4987:4990   */\n              dup6\n                /* \"#utility.yul\":4980:4984   */\n              0x20\n                /* \"#utility.yul\":4973:4978   */\n              dup7\n                /* \"#utility.yul\":4969:4985   */\n              add\n                /* \"#utility.yul\":4934:4999   */\n              tag_72\n              jump\t// in\n            tag_150:\n                /* \"#utility.yul\":5024:5053   */\n              tag_151\n                /* \"#utility.yul\":5046:5052   */\n              dup2\n                /* \"#utility.yul\":5024:5053   */\n              tag_62\n              jump\t// in\n            tag_151:\n                /* \"#utility.yul\":5019:5022   */\n              dup5\n                /* \"#utility.yul\":5015:5054   */\n              add\n                /* \"#utility.yul\":5008:5054   */\n              swap2\n              pop\n                /* \"#utility.yul\":4775:5060   */\n              pop\n                /* \"#utility.yul\":4683:5060   */\n              swap3\n              swap2\n              pop\n              pop\n              jump\t// out\n                /* \"#utility.yul\":5066:5489   */\n            tag_28:\n                /* \"#utility.yul\":5207:5211   */\n              0x00\n                /* \"#utility.yul\":5245:5247   */\n              0x40\n                /* \"#utility.yul\":5234:5243   */\n              dup3\n                /* \"#utility.yul\":5230:5248   */\n              add\n                /* \"#utility.yul\":5222:5248   */\n              swap1\n              pop\n                /* \"#utility.yul\":5294:5303   */\n              dup2\n                /* \"#utility.yul\":5288:5292   */\n              dup2\n                /* \"#utility.yul\":5284:5304   */\n              sub\n                /* \"#utility.yul\":5280:5281   */\n              0x00\n                /* \"#utility.yul\":5269:5278   */\n              dup4\n                /* \"#utility.yul\":5265:5282   */\n              add\n                /* \"#utility.yul\":5258:5305   */\n              mstore\n                /* \"#utility.yul\":5322:5400   */\n              tag_153\n                /* \"#utility.yul\":5395:5399   */\n              dup2\n                /* \"#utility.yul\":5386:5392   */\n              dup6\n                /* \"#utility.yul\":5322:5400   */\n              tag_73\n              jump\t// in\n            tag_153:\n                /* \"#utility.yul\":5314:5400   */\n              swap1\n              pop\n                /* \"#utility.yul\":5410:5482   */\n              tag_154\n                /* \"#utility.yul\":5478:5480   */\n              0x20\n                /* \"#utility.yul\":5467:5476   */\n              dup4\n                /* \"#utility.yul\":5463:5481   */\n              add\n                /* \"#utility.yul\":5454:5460   */\n              dup5\n                /* \"#utility.yul\":5410:5482   */\n              tag_54\n              jump\t// in\n            tag_154:\n                /* \"#utility.yul\":5066:5489   */\n              swap4\n              swap3\n              pop\n              pop\n              pop\n              jump\t// out\n                /* \"#utility.yul\":5495:6004   */\n            tag_31:\n                /* \"#utility.yul\":5564:5570   */\n              0x00\n                /* \"#utility.yul\":5613:5615   */\n              0x20\n                /* \"#utility.yul\":5601:5610   */\n              dup3\n                /* \"#utility.yul\":5592:5599   */\n              dup5\n                /* \"#utility.yul\":5588:5611   */\n              sub\n                /* \"#utility.yul\":5584:5616   */\n              slt\n                /* \"#utility.yul\":5581:5700   */\n              iszero\n              tag_156\n              jumpi\n                /* \"#utility.yul\":5619:5698   */\n              tag_157\n              tag_56\n              jump\t// in\n            tag_157:\n                /* \"#utility.yul\":5581:5700   */\n            tag_156:\n                /* \"#utility.yul\":5767:5768   */\n              0x00\n                /* \"#utility.yul\":5756:5765   */\n              dup3\n                /* \"#utility.yul\":5752:5769   */\n              add\n                /* \"#utility.yul\":5739:5770   */\n              calldataload\n                /* \"#utility.yul\":5797:5815   */\n              0xffffffffffffffff\n                /* \"#utility.yul\":5789:5795   */\n              dup2\n                /* \"#utility.yul\":5786:5816   */\n              gt\n                /* \"#utility.yul\":5783:5900   */\n              iszero\n              tag_158\n              jumpi\n                /* \"#utility.yul\":5819:5898   */\n              tag_159\n              tag_57\n              jump\t// in\n            tag_159:\n                /* \"#utility.yul\":5783:5900   */\n            tag_158:\n                /* \"#utility.yul\":5924:5987   */\n              tag_160\n                /* \"#utility.yul\":5979:5986   */\n              dup5\n                /* \"#utility.yul\":5970:5976   */\n              dup3\n                /* \"#utility.yul\":5959:5968   */\n              dup6\n                /* \"#utility.yul\":5955:5977   */\n              add\n                /* \"#utility.yul\":5924:5987   */\n              tag_69\n              jump\t// in\n            tag_160:\n                /* \"#utility.yul\":5914:5987   */\n              swap2\n              pop\n                /* \"#utility.yul\":5710:5997   */\n              pop\n                /* \"#utility.yul\":5495:6004   */\n              swap3\n              swap2\n              pop\n              pop\n              jump\t// out\n                /* \"#utility.yul\":6010:6190   */\n            tag_74:\n                /* \"#utility.yul\":6058:6135   */\n              0x4e487b7100000000000000000000000000000000000000000000000000000000\n                /* \"#utility.yul\":6055:6056   */\n              0x00\n                /* \"#utility.yul\":6048:6136   */\n              mstore\n                /* \"#utility.yul\":6155:6159   */\n              0x22\n                /* \"#utility.yul\":6152:6153   */\n              0x04\n                /* \"#utility.yul\":6145:6160   */\n              mstore\n                /* \"#utility.yul\":6179:6183   */\n              0x24\n                /* \"#utility.yul\":6176:6177   */\n              0x00\n                /* \"#utility.yul\":6169:6184   */\n              revert\n                /* \"#utility.yul\":6196:6516   */\n            tag_48:\n                /* \"#utility.yul\":6240:6246   */\n              0x00\n                /* \"#utility.yul\":6277:6278   */\n              0x02\n                /* \"#utility.yul\":6271:6275   */\n              dup3\n                /* \"#utility.yul\":6267:6279   */\n              div\n                /* \"#utility.yul\":6257:6279   */\n              swap1\n              pop\n                /* \"#utility.yul\":6324:6325   */\n              0x01\n                /* \"#utility.yul\":6318:6322   */\n              dup3\n                /* \"#utility.yul\":6314:6326   */\n              and\n                /* \"#utility.yul\":6345:6363   */\n              dup1\n                /* \"#utility.yul\":6335:6416   */\n              tag_163\n              jumpi\n                /* \"#utility.yul\":6401:6405   */\n              0x7f\n                /* \"#utility.yul\":6393:6399   */\n              dup3\n                /* \"#utility.yul\":6389:6406   */\n              and\n                /* \"#utility.yul\":6379:6406   */\n              swap2\n              pop\n                /* \"#utility.yul\":6335:6416   */\n            tag_163:\n                /* \"#utility.yul\":6463:6465   */\n              0x20\n                /* \"#utility.yul\":6455:6461   */\n              dup3\n                /* \"#utility.yul\":6452:6466   */\n              lt\n                /* \"#utility.yul\":6432:6450   */\n              dup2\n                /* \"#utility.yul\":6429:6467   */\n              sub\n                /* \"#utility.yul\":6426:6510   */\n              tag_164\n              jumpi\n                /* \"#utility.yul\":6482:6500   */\n              tag_165\n              tag_74\n              jump\t// in\n            tag_165:\n                /* \"#utility.yul\":6426:6510   */\n            tag_164:\n                /* \"#utility.yul\":6247:6516   */\n              pop\n                /* \"#utility.yul\":6196:6516   */\n              swap2\n              swap1\n              pop\n              jump\t// out\n                /* \"#utility.yul\":6522:6663   */\n            tag_75:\n                /* \"#utility.yul\":6571:6575   */\n              0x00\n                /* \"#utility.yul\":6594:6597   */\n              dup2\n                /* \"#utility.yul\":6586:6597   */\n              swap1\n              pop\n                /* \"#utility.yul\":6617:6620   */\n              dup2\n                /* \"#utility.yul\":6614:6615   */\n              0x00\n                /* \"#utility.yul\":6607:6621   */\n              mstore\n                /* \"#utility.yul\":6651:6655   */\n              0x20\n                /* \"#utility.yul\":6648:6649   */\n              0x00\n                /* \"#utility.yul\":6638:6656   */\n              keccak256\n                /* \"#utility.yul\":6630:6656   */\n              swap1\n              pop\n                /* \"#utility.yul\":6522:6663   */\n              swap2\n              swap1\n              pop\n              jump\t// out\n                /* \"#utility.yul\":6669:6762   */\n            tag_76:\n                /* \"#utility.yul\":6706:6712   */\n              0x00\n                /* \"#utility.yul\":6753:6755   */\n              0x20\n                /* \"#utility.yul\":6748:6750   */\n              0x1f\n                /* \"#utility.yul\":6741:6746   */\n              dup4\n                /* \"#utility.yul\":6737:6751   */\n              add\n                /* \"#utility.yul\":6733:6756   */\n              div\n                /* \"#utility.yul\":6723:6756   */\n              swap1\n              pop\n                /* \"#utility.yul\":6669:6762   */\n              swap2\n              swap1\n              pop\n              jump\t// out\n                /* \"#utility.yul\":6768:6875   */\n            tag_77:\n                /* \"#utility.yul\":6812:6820   */\n              0x00\n                /* \"#utility.yul\":6862:6867   */\n              dup3\n                /* \"#utility.yul\":6856:6860   */\n              dup3\n                /* \"#utility.yul\":6852:6868   */\n              shl\n                /* \"#utility.yul\":6831:6868   */\n              swap1\n              pop\n                /* \"#utility.yul\":6768:6875   */\n              swap3\n              swap2\n              pop\n              pop\n              jump\t// out\n                /* \"#utility.yul\":6881:7274   */\n            tag_78:\n                /* \"#utility.yul\":6950:6956   */\n              0x00\n                /* \"#utility.yul\":7000:7001   */\n              0x08\n                /* \"#utility.yul\":6988:6998   */\n              dup4\n                /* \"#utility.yul\":6984:7002   */\n              mul\n                /* \"#utility.yul\":7023:7120   */\n              tag_170\n                /* \"#utility.yul\":7053:7119   */\n              0xffffffffffffffffffffffffffffffffffffffffffffffffffffffffffffffff\n                /* \"#utility.yul\":7042:7051   */\n              dup3\n                /* \"#utility.yul\":7023:7120   */\n              tag_77\n              jump\t// in\n            tag_170:\n                /* \"#utility.yul\":7141:7180   */\n              tag_171\n                /* \"#utility.yul\":7171:7179   */\n              dup7\n                /* \"#utility.yul\":7160:7169   */\n              dup4\n                /* \"#utility.yul\":7141:7180   */\n              tag_77\n              jump\t// in\n            tag_171:\n                /* \"#utility.yul\":7129:7180   */\n              swap6\n              pop\n                /* \"#utility.yul\":7213:7217   */\n              dup1\n                /* \"#utility.yul\":7209:7218   */\n              not\n                /* \"#utility.yul\":7202:7207   */\n              dup5\n                /* \"#utility.yul\":7198:7219   */\n              and\n                /* \"#utility.yul\":7189:7219   */\n              swap4\n              pop\n                /* \"#utility.yul\":7262:7266   */\n              dup1\n                /* \"#utility.yul\":7252:7260   */\n              dup7\n                /* \"#utility.yul\":7248:7267   */\n              and\n                /* \"#utility.yul\":7241:7246   */\n              dup5\n                /* \"#utility.yul\":7238:7268   */\n              or\n                /* \"#utility.yul\":7228:7268   */\n              swap3\n              pop\n                /* \"#utility.yul\":6957:7274   */\n              pop\n              pop\n                /* \"#utility.yul\":6881:7274   */\n              swap4\n              swap3\n              pop\n              pop\n              pop\n              jump\t// out\n                /* \"#utility.yul\":7280:7340   */\n            tag_79:\n                /* \"#utility.yul\":7308:7311   */\n              0x00\n                /* \"#utility.yul\":7329:7334   */\n              dup2\n                /* \"#utility.yul\":7322:7334   */\n              swap1\n              pop\n                /* \"#utility.yul\":7280:7340   */\n              swap2\n              swap1\n              pop\n              jump\t// out\n                /* \"#utility.yul\":7346:7488   */\n            tag_80:\n                /* \"#utility.yul\":7396:7405   */\n              0x00\n                /* \"#utility.yul\":7429:7482   */\n              tag_174\n                /* \"#utility.yul\":7447:7481   */\n              tag_175\n                /* \"#utility.yul\":7456:7480   */\n              tag_176\n                /* \"#utility.yul\":7474:7479   */\n              dup5\n                /* \"#utility.yul\":7456:7480   */\n              tag_53\n              jump\t// in\n            tag_176:\n                /* \"#utility.yul\":7447:7481   */\n              tag_79\n              jump\t// in\n            tag_175:\n                /* \"#utility.yul\":7429:7482   */\n              tag_53\n              jump\t// in\n            tag_174:\n                /* \"#utility.yul\":7416:7482   */\n              swap1\n              pop\n                /* \"#utility.yul\":7346:7488   */\n              swap2\n              swap1\n              pop\n              jump\t// out\n                /* \"#utility.yul\":7494:7569   */\n            tag_81:\n                /* \"#utility.yul\":7537:7540   */\n              0x00\n                /* \"#utility.yul\":7558:7563   */\n              dup2\n                /* \"#utility.yul\":7551:7563   */\n              swap1\n              pop\n                /* \"#utility.yul\":7494:7569   */\n              swap2\n              swap1\n              pop\n              jump\t// out\n                /* \"#utility.yul\":7575:7844   */\n            tag_82:\n                /* \"#utility.yul\":7685:7724   */\n              tag_179\n                /* \"#utility.yul\":7716:7723   */\n              dup4\n                /* \"#utility.yul\":7685:7724   */\n              tag_80\n              jump\t// in\n            tag_179:\n                /* \"#utility.yul\":7746:7837   */\n              tag_180\n                /* \"#utility.yul\":7795:7836   */\n              tag_181\n                /* \"#utility.yul\":7819:7835   */\n              dup3\n                /* \"#utility.yul\":7795:7836   */\n              tag_81\n              jump\t// in\n            tag_181:\n                /* \"#utility.yul\":7787:7793   */\n              dup5\n                /* \"#utility.yul\":7780:7784   */\n              dup5\n                /* \"#utility.yul\":7774:7785   */\n              sload\n                /* \"#utility.yul\":7746:7837   */\n              tag_78\n              jump\t// in\n            tag_180:\n                /* \"#utility.yul\":7740:7744   */\n              dup3\n                /* \"#utility.yul\":7733:7838   */\n              sstore\n                /* \"#utility.yul\":7651:7844   */\n              pop\n                /* \"#utility.yul\":7575:7844   */\n              pop\n              pop\n              pop\n              jump\t// out\n                /* \"#utility.yul\":7850:7923   */\n            tag_83:\n                /* \"#utility.yul\":7895:7898   */\n              0x00\n                /* \"#utility.yul\":7916:7917   */\n              0x00\n                /* \"#utility.yul\":7909:7917   */\n              swap1\n              pop\n                /* \"#utility.yul\":7850:7923   */\n              swap1\n              jump\t// out\n                /* \"#utility.yul\":7929:8118   */\n            tag_84:\n                /* \"#utility.yul\":8006:8038   */\n              tag_184\n              tag_83\n              jump\t// in\n            tag_184:\n                /* \"#utility.yul\":8047:8112   */\n              tag_185\n                /* \"#utility.yul\":8105:8111   */\n              dup2\n                /* \"#utility.yul\":8097:8103   */\n              dup5\n                /* \"#utility.yul\":8091:8095   */\n              dup5\n                /* \"#utility.yul\":8047:8112   */\n              tag_82\n              jump\t// in\n            tag_185:\n                /* \"#utility.yul\":7982:8118   */\n              pop\n                /* \"#utility.yul\":7929:8118   */\n              pop\n              pop\n              jump\t// out\n                /* \"#utility.yul\":8124:8338   */\n            tag_85:\n                /* \"#utility.yul\":8209:8210   */\n              0x00\n                /* \"#utility.yul\":8194:8332   */\n            tag_187:\n                /* \"#utility.yul\":8219:8228   */\n              dup3\n                /* \"#utility.yul\":8216:8217   */\n              dup2\n                /* \"#utility.yul\":8213:8229   */\n              lt\n                /* \"#utility.yul\":8194:8332   */\n              iszero\n              tag_189\n              jumpi\n                /* \"#utility.yul\":8271:8322   */\n              tag_190\n                /* \"#utility.yul\":8320:8321   */\n              0x00\n                /* \"#utility.yul\":8316:8317   */\n              dup3\n                /* \"#utility.yul\":8305:8314   */\n              dup5\n                /* \"#utility.yul\":8301:8318   */\n              add\n                /* \"#utility.yul\":8271:8322   */\n              tag_84\n              jump\t// in\n            tag_190:\n                /* \"#utility.yul\":8244:8245   */\n              0x01\n                /* \"#utility.yul\":8241:8242   */\n              dup2\n                /* \"#utility.yul\":8237:8246   */\n              add\n                /* \"#utility.yul\":8232:8246   */\n              swap1\n              pop\n                /* \"#utility.yul\":8194:8332   */\n              jump(tag_187)\n            tag_189:\n                /* \"#utility.yul\":8198:8212   */\n              pop\n                /* \"#utility.yul\":8124:8338   */\n              pop\n              pop\n              jump\t// out\n                /* \"#utility.yul\":8344:9090   */\n            tag_86:\n                /* \"#utility.yul\":8445:8447   */\n              0x1f\n                /* \"#utility.yul\":8440:8443   */\n              dup3\n                /* \"#utility.yul\":8437:8448   */\n              gt\n                /* \"#utility.yul\":8434:9083   */\n              iszero\n              tag_192\n              jumpi\n                /* \"#utility.yul\":8474:8484   */\n              dup3\n                /* \"#utility.yul\":8469:8472   */\n              dup3\n                /* \"#utility.yul\":8466:8485   */\n              gt\n                /* \"#utility.yul\":8463:9073   */\n              iszero\n              tag_193\n              jumpi\n                /* \"#utility.yul\":8520:8558   */\n              tag_194\n                /* \"#utility.yul\":8552:8557   */\n              dup2\n                /* \"#utility.yul\":8520:8558   */\n              tag_75\n              jump\t// in\n            tag_194:\n                /* \"#utility.yul\":8595:8617   */\n              tag_195\n                /* \"#utility.yul\":8613:8616   */\n              dup4\n                /* \"#utility.yul\":8595:8617   */\n              tag_76\n              jump\t// in\n            tag_195:\n                /* \"#utility.yul\":8654:8683   */\n              tag_196\n                /* \"#utility.yul\":8672:8682   */\n              dup6\n                /* \"#utility.yul\":8654:8683   */\n              tag_76\n              jump\t// in\n            tag_196:\n                /* \"#utility.yul\":8844:8846   */\n              0x20\n                /* \"#utility.yul\":8832:8842   */\n              dup7\n                /* \"#utility.yul\":8829:8847   */\n              lt\n                /* \"#utility.yul\":8826:8905   */\n              iszero\n              tag_197\n              jumpi\n                /* \"#utility.yul\":8886:8887   */\n              0x00\n                /* \"#utility.yul\":8870:8887   */\n              swap1\n              pop\n                /* \"#utility.yul\":8826:8905   */\n            tag_197:\n                /* \"#utility.yul\":8955:8967   */\n              dup1\n                /* \"#utility.yul\":8945:8953   */\n              dup4\n                /* \"#utility.yul\":8941:8968   */\n              add\n                /* \"#utility.yul\":8985:9059   */\n              tag_198\n                /* \"#utility.yul\":9045:9057   */\n              dup3\n                /* \"#utility.yul\":9031:9043   */\n              dup5\n                /* \"#utility.yul\":9027:9058   */\n              sub\n                /* \"#utility.yul\":9014:9025   */\n              dup3\n                /* \"#utility.yul\":8985:9059   */\n              tag_85\n              jump\t// in\n            tag_198:\n                /* \"#utility.yul\":8486:9073   */\n              pop\n              pop\n              pop\n              pop\n                /* \"#utility.yul\":8463:9073   */\n            tag_193:\n                /* \"#utility.yul\":8434:9083   */\n            tag_192:\n                /* \"#utility.yul\":8344:9090   */\n              pop\n              pop\n              pop\n              jump\t// out\n                /* \"#utility.yul\":9096:9213   */\n            tag_87:\n                /* \"#utility.yul\":9150:9158   */\n              0x00\n                /* \"#utility.yul\":9200:9205   */\n              dup3\n                /* \"#utility.yul\":9194:9198   */\n              dup3\n                /* \"#utility.yul\":9190:9206   */\n              shr\n                /* \"#utility.yul\":9169:9206   */\n              swap1\n              pop\n                /* \"#utility.yul\":9096:9213   */\n              swap3\n              swap2\n              pop\n              pop\n              jump\t// out\n                /* \"#utility.yul\":9219:9388   */\n            tag_88:\n                /* \"#utility.yul\":9263:9269   */\n              0x00\n                /* \"#utility.yul\":9296:9347   */\n              tag_201\n                /* \"#utility.yul\":9344:9345   */\n              0x00\n                /* \"#utility.yul\":9340:9346   */\n              not\n                /* \"#utility.yul\":9332:9337   */\n              dup5\n                /* \"#utility.yul\":9329:9330   */\n              0x08\n                /* \"#utility.yul\":9325:9338   */\n              mul\n                /* \"#utility.yul\":9296:9347   */\n              tag_87\n              jump\t// in\n            tag_201:\n                /* \"#utility.yul\":9292:9348   */\n              not\n                /* \"#utility.yul\":9377:9381   */\n              dup1\n                /* \"#utility.yul\":9371:9375   */\n              dup4\n                /* \"#utility.yul\":9367:9382   */\n              and\n                /* \"#utility.yul\":9357:9382   */\n              swap2\n              pop\n                /* \"#utility.yul\":9270:9388   */\n              pop\n                /* \"#utility.yul\":9219:9388   */\n              swap3\n              swap2\n              pop\n              pop\n              jump\t// out\n                /* \"#utility.yul\":9393:9688   */\n            tag_89:\n                /* \"#utility.yul\":9469:9473   */\n              0x00\n                /* \"#utility.yul\":9615:9644   */\n              tag_203\n                /* \"#utility.yul\":9640:9643   */\n              dup4\n                /* \"#utility.yul\":9634:9638   */\n              dup4\n                /* \"#utility.yul\":9615:9644   */\n              tag_88\n              jump\t// in\n            tag_203:\n                /* \"#utility.yul\":9607:9644   */\n              swap2\n              pop\n                /* \"#utility.yul\":9677:9680   */\n              dup3\n                /* \"#utility.yul\":9674:9675   */\n              0x02\n                /* \"#utility.yul\":9670:9681   */\n              mul\n                /* \"#utility.yul\":9664:9668   */\n              dup3\n                /* \"#utility.yul\":9661:9682   */\n              or\n                /* \"#utility.yul\":9653:9682   */\n              swap1\n              pop\n                /* \"#utility.yul\":9393:9688   */\n              swap3\n              swap2\n              pop\n              pop\n              jump\t// out\n                /* \"#utility.yul\":9693:11088   */\n            tag_39:\n                /* \"#utility.yul\":9810:9847   */\n              tag_205\n                /* \"#utility.yul\":9843:9846   */\n              dup3\n                /* \"#utility.yul\":9810:9847   */\n              tag_70\n              jump\t// in\n            tag_205:\n                /* \"#utility.yul\":9912:9930   */\n              0xffffffffffffffff\n                /* \"#utility.yul\":9904:9910   */\n              dup2\n                /* \"#utility.yul\":9901:9931   */\n              gt\n                /* \"#utility.yul\":9898:9954   */\n              iszero\n              tag_206\n              jumpi\n                /* \"#utility.yul\":9934:9952   */\n              tag_207\n              tag_63\n              jump\t// in\n            tag_207:\n                /* \"#utility.yul\":9898:9954   */\n            tag_206:\n                /* \"#utility.yul\":9978:10016   */\n              tag_208\n                /* \"#utility.yul\":10010:10014   */\n              dup3\n                /* \"#utility.yul\":10004:10015   */\n              sload\n                /* \"#utility.yul\":9978:10016   */\n              tag_48\n              jump\t// in\n            tag_208:\n                /* \"#utility.yul\":10063:10130   */\n              tag_209\n                /* \"#utility.yul\":10123:10129   */\n              dup3\n                /* \"#utility.yul\":10115:10121   */\n              dup3\n                /* \"#utility.yul\":10109:10113   */\n              dup6\n                /* \"#utility.yul\":10063:10130   */\n              tag_86\n              jump\t// in\n            tag_209:\n                /* \"#utility.yul\":10157:10158   */\n              0x00\n                /* \"#utility.yul\":10181:10185   */\n              0x20\n                /* \"#utility.yul\":10168:10185   */\n              swap1\n              pop\n                /* \"#utility.yul\":10213:10215   */\n              0x1f\n                /* \"#utility.yul\":10205:10211   */\n              dup4\n                /* \"#utility.yul\":10202:10216   */\n              gt\n                /* \"#utility.yul\":10230:10231   */\n              0x01\n                /* \"#utility.yul\":10225:10843   */\n              dup2\n              eq\n              tag_211\n              jumpi\n                /* \"#utility.yul\":10887:10888   */\n              0x00\n                /* \"#utility.yul\":10904:10910   */\n              dup5\n                /* \"#utility.yul\":10901:10978   */\n              iszero\n              tag_212\n              jumpi\n                /* \"#utility.yul\":10953:10962   */\n              dup3\n                /* \"#utility.yul\":10948:10951   */\n              dup8\n                /* \"#utility.yul\":10944:10963   */\n              add\n                /* \"#utility.yul\":10938:10964   */\n              mload\n                /* \"#utility.yul\":10929:10964   */\n              swap1\n              pop\n                /* \"#utility.yul\":10901:10978   */\n            tag_212:\n                /* \"#utility.yul\":11004:11071   */\n              tag_213\n                /* \"#utility.yul\":11064:11070   */\n              dup6\n                /* \"#utility.yul\":11057:11062   */\n              dup3\n                /* \"#utility.yul\":11004:11071   */\n              tag_89\n              jump\t// in\n            tag_213:\n                /* \"#utility.yul\":10998:11002   */\n              dup7\n                /* \"#utility.yul\":10991:11072   */\n              sstore\n                /* \"#utility.yul\":10860:11082   */\n              pop\n                /* \"#utility.yul\":10195:11082   */\n              jump(tag_210)\n                /* \"#utility.yul\":10225:10843   */\n            tag_211:\n                /* \"#utility.yul\":10277:10281   */\n              0x1f\n                /* \"#utility.yul\":10273:10282   */\n              not\n                /* \"#utility.yul\":10265:10271   */\n              dup5\n                /* \"#utility.yul\":10261:10283   */\n              and\n                /* \"#utility.yul\":10311:10348   */\n              tag_214\n                /* \"#utility.yul\":10343:10347   */\n              dup7\n                /* \"#utility.yul\":10311:10348   */\n              tag_75\n              jump\t// in\n            tag_214:\n                /* \"#utility.yul\":10370:10371   */\n              0x00\n                /* \"#utility.yul\":10384:10592   */\n            tag_215:\n                /* \"#utility.yul\":10398:10405   */\n              dup3\n                /* \"#utility.yul\":10395:10396   */\n              dup2\n                /* \"#utility.yul\":10392:10406   */\n              lt\n                /* \"#utility.yul\":10384:10592   */\n              iszero\n              tag_217\n              jumpi\n                /* \"#utility.yul\":10477:10486   */\n              dup5\n                /* \"#utility.yul\":10472:10475   */\n              dup10\n                /* \"#utility.yul\":10468:10487   */\n              add\n                /* \"#utility.yul\":10462:10488   */\n              mload\n                /* \"#utility.yul\":10454:10460   */\n              dup3\n                /* \"#utility.yul\":10447:10489   */\n              sstore\n                /* \"#utility.yul\":10528:10529   */\n              0x01\n                /* \"#utility.yul\":10520:10526   */\n              dup3\n                /* \"#utility.yul\":10516:10530   */\n              add\n                /* \"#utility.yul\":10506:10530   */\n              swap2\n              pop\n                /* \"#utility.yul\":10575:10577   */\n              0x20\n                /* \"#utility.yul\":10564:10573   */\n              dup6\n                /* \"#utility.yul\":10560:10578   */\n              add\n                /* \"#utility.yul\":10547:10578   */\n              swap5\n              pop\n                /* \"#utility.yul\":10421:10425   */\n              0x20\n                /* \"#utility.yul\":10418:10419   */\n              dup2\n                /* \"#utility.yul\":10414:10426   */\n              add\n                /* \"#utility.yul\":10409:10426   */\n              swap1\n              pop\n                /* \"#utility.yul\":10384:10592   */\n              jump(tag_215)\n            tag_217:\n                /* \"#utility.yul\":10620:10626   */\n              dup7\n                /* \"#utility.yul\":10611:10618   */\n              dup4\n                /* \"#utility.yul\":10608:10627   */\n              lt\n                /* \"#utility.yul\":10605:10784   */\n              iszero\n              tag_218\n              jumpi\n                /* \"#utility.yul\":10678:10687   */\n              dup5\n                /* \"#utility.yul\":10673:10676   */\n              dup10\n                /* \"#utility.yul\":10669:10688   */\n              add\n                /* \"#utility.yul\":10663:10689   */\n              mload\n                /* \"#utility.yul\":10721:10769   */\n              tag_219\n                /* \"#utility.yul\":10763:10767   */\n              0x1f\n                /* \"#utility.yul\":10755:10761   */\n              dup10\n                /* \"#utility.yul\":10751:10768   */\n              and\n                /* \"#utility.yul\":10740:10749   */\n              dup3\n                /* \"#utility.yul\":10721:10769   */\n              tag_88\n              jump\t// in\n            tag_219:\n                /* \"#utility.yul\":10713:10719   */\n              dup4\n                /* \"#utility.yul\":10706:10770   */\n              sstore\n                /* \"#utility.yul\":10628:10784   */\n              pop\n                /* \"#utility.yul\":10605:10784   */\n            tag_218:\n                /* \"#utility.yul\":10830:10831   */\n              0x01\n                /* \"#utility.yul\":10826:10827   */\n              0x02\n                /* \"#utility.yul\":10818:10824   */\n              dup9\n                /* \"#utility.yul\":10814:10828   */\n              mul\n                /* \"#utility.yul\":10810:10832   */\n              add\n                /* \"#utility.yul\":10804:10808   */\n              dup9\n                /* \"#utility.yul\":10797:10833   */\n              sstore\n                /* \"#utility.yul\":10232:10843   */\n              pop\n              pop\n              pop\n                /* \"#utility.yul\":10195:11082   */\n            tag_210:\n              pop\n                /* \"#utility.yul\":9785:11088   */\n              pop\n              pop\n              pop\n                /* \"#utility.yul\":9693:11088   */\n              pop\n              pop\n              jump\t// out\n                /* \"#utility.yul\":11094:11242   */\n            tag_90:\n                /* \"#utility.yul\":11196:11207   */\n              0x00\n                /* \"#utility.yul\":11233:11236   */\n              dup2\n                /* \"#utility.yul\":11218:11236   */\n              swap1\n              pop\n                /* \"#utility.yul\":11094:11242   */\n              swap3\n              swap2\n              pop\n              pop\n              jump\t// out\n                /* \"#utility.yul\":11248:11638   */\n            tag_91:\n                /* \"#utility.yul\":11354:11357   */\n              0x00\n                /* \"#utility.yul\":11382:11421   */\n              tag_222\n                /* \"#utility.yul\":11415:11420   */\n              dup3\n                /* \"#utility.yul\":11382:11421   */\n              tag_70\n              jump\t// in\n            tag_222:\n                /* \"#utility.yul\":11437:11526   */\n              tag_223\n                /* \"#utility.yul\":11519:11525   */\n              dup2\n                /* \"#utility.yul\":11514:11517   */\n              dup6\n                /* \"#utility.yul\":11437:11526   */\n              tag_90\n              jump\t// in\n            tag_223:\n                /* \"#utility.yul\":11430:11526   */\n              swap4\n              pop\n                /* \"#utility.yul\":11535:11600   */\n              tag_224\n                /* \"#utility.yul\":11593:11599   */\n              dup2\n                /* \"#utility.yul\":11588:11591   */\n              dup6\n                /* \"#utility.yul\":11581:11585   */\n              0x20\n                /* \"#utility.yul\":11574:11579   */\n              dup7\n                /* \"#utility.yul\":11570:11586   */\n              add\n                /* \"#utility.yul\":11535:11600   */\n              tag_72\n              jump\t// in\n            tag_224:\n                /* \"#utility.yul\":11625:11631   */\n              dup1\n                /* \"#utility.yul\":11620:11623   */\n              dup5\n                /* \"#utility.yul\":11616:11632   */\n              add\n                /* \"#utility.yul\":11609:11632   */\n              swap2\n              pop\n                /* \"#utility.yul\":11358:11638   */\n              pop\n                /* \"#utility.yul\":11248:11638   */\n              swap3\n              swap2\n              pop\n              pop\n              jump\t// out\n                /* \"#utility.yul\":11644:11919   */\n            tag_41:\n                /* \"#utility.yul\":11776:11779   */\n              0x00\n                /* \"#utility.yul\":11798:11893   */\n              tag_226\n                /* \"#utility.yul\":11889:11892   */\n              dup3\n                /* \"#utility.yul\":11880:11886   */\n              dup5\n                /* \"#utility.yul\":11798:11893   */\n              tag_91\n              jump\t// in\n            tag_226:\n                /* \"#utility.yul\":11791:11893   */\n              swap2\n              pop\n                /* \"#utility.yul\":11910:11913   */\n              dup2\n                /* \"#utility.yul\":11903:11913   */\n              swap1\n              pop\n                /* \"#utility.yul\":11644:11919   */\n              swap3\n              swap2\n              pop\n              pop\n              jump\t// out\n                /* \"#utility.yul\":11925:12105   */\n            tag_92:\n                /* \"#utility.yul\":11973:12050   */\n              0x4e487b7100000000000000000000000000000000000000000000000000000000\n                /* \"#utility.yul\":11970:11971   */\n              0x00\n                /* \"#utility.yul\":11963:12051   */\n              mstore\n                /* \"#utility.yul\":12070:12074   */\n              0x11\n                /* \"#utility.yul\":12067:12068   */\n              0x04\n                /* \"#utility.yul\":12060:12075   */\n              mstore\n                /* \"#utility.yul\":12094:12098   */\n              0x24\n                /* \"#utility.yul\":12091:12092   */\n              0x00\n                /* \"#utility.yul\":12084:12099   */\n              revert\n                /* \"#utility.yul\":12111:12302   */\n            tag_44:\n                /* \"#utility.yul\":12151:12154   */\n              0x00\n                /* \"#utility.yul\":12170:12190   */\n              tag_229\n                /* \"#utility.yul\":12188:12189   */\n              dup3\n                /* \"#utility.yul\":12170:12190   */\n              tag_53\n              jump\t// in\n            tag_229:\n                /* \"#utility.yul\":12165:12190   */\n              swap2\n              pop\n                /* \"#utility.yul\":12204:12224   */\n              tag_230\n                /* \"#utility.yul\":12222:12223   */\n              dup4\n                /* \"#utility.yul\":12204:12224   */\n              tag_53\n              jump\t// in\n            tag_230:\n                /* \"#utility.yul\":12199:12224   */\n              swap3\n              pop\n                /* \"#utility.yul\":12247:12248   */\n              dup3\n                /* \"#utility.yul\":12244:12245   */\n              dup3\n                /* \"#utility.yul\":12240:12249   */\n              add\n                /* \"#utility.yul\":12233:12249   */\n              swap1\n              pop\n                /* \"#utility.yul\":12268:12271   */\n              dup1\n                /* \"#utility.yul\":12265:12266   */\n              dup3\n                /* \"#utility.yul\":12262:12272   */\n              gt\n                /* \"#utility.yul\":12259:12295   */\n              iszero\n              tag_231\n              jumpi\n                /* \"#utility.yul\":12275:12293   */\n              tag_232\n              tag_92\n              jump\t// in\n            tag_232:\n                /* \"#utility.yul\":12259:12295   */\n            tag_231:\n                /* \"#utility.yul\":12111:12302   */\n              swap3\n              swap2\n              pop\n              pop\n              jump\t// out\n\n            auxdata: 0xa2646970667358221220271f2967b1c2771162ca4156b508933ccf6daa895042ef81fdaeb58f23a7003a64736f6c63430008220033\n        }\n    }\n\n    auxdata: 0xa2646970667358221220af8ce4aac9687a16b8001cf01d1f8b67ad9a82134d2ad13f3f86b028e62a27cb64736f6c63430008220033\n}\n",
				"bytecode": {
					"linkReferences": {},
					"object": "6080604052348015600e575f5ffd5b50610ea78061001c5f395ff3fe608060405234801561000f575f5ffd5b506004361061004a575f3560e01c80630ad91b641461004e57806342422dee1461007e578063534545b6146100ae578063caec2a5a146100b8575b5f5ffd5b6100686004803603810190610063919061033a565b6100d4565b6040516100759190610374565b60405180910390f35b6100986004803603810190610093919061033a565b610188565b6040516100a59190610407565b60405180910390f35b6100b66101c2565b005b6100d260048036038101906100cd9190610420565b61024d565b005b5f5f5f83815481106100e9576100e861045e565b5b905f5260205f20015f9054906101000a900473ffffffffffffffffffffffffffffffffffffffff1690508073ffffffffffffffffffffffffffffffffffffffff16632e64cec16040518163ffffffff1660e01b8152600401602060405180830381865afa15801561015c573d5f5f3e3d5ffd5b505050506040513d601f19601f82011682018060405250810190610180919061049f565b915050919050565b5f8181548110610196575f80fd5b905f5260205f20015f915054906101000a900473ffffffffffffffffffffffffffffffffffffffff1681565b5f6040516101cf906102f6565b604051809103905ff0801580156101e8573d5f5f3e3d5ffd5b5090505f81908060018154018082558091505060019003905f5260205f20015f9091909190916101000a81548173ffffffffffffffffffffffffffffffffffffffff021916908373ffffffffffffffffffffffffffffffffffffffff16021790555050565b5f5f83815481106102615761026061045e565b5b905f5260205f20015f9054906101000a900473ffffffffffffffffffffffffffffffffffffffff1690508073ffffffffffffffffffffffffffffffffffffffff16636057361d836040518263ffffffff1660e01b81526004016102c49190610374565b5f604051808303815f87803b1580156102db575f5ffd5b505af11580156102ed573d5f5f3e3d5ffd5b50505050505050565b6109a7806104cb83390190565b5f5ffd5b5f819050919050565b61031981610307565b8114610323575f5ffd5b50565b5f8135905061033481610310565b92915050565b5f6020828403121561034f5761034e610303565b5b5f61035c84828501610326565b91505092915050565b61036e81610307565b82525050565b5f6020820190506103875f830184610365565b92915050565b5f73ffffffffffffffffffffffffffffffffffffffff82169050919050565b5f819050919050565b5f6103cf6103ca6103c58461038d565b6103ac565b61038d565b9050919050565b5f6103e0826103b5565b9050919050565b5f6103f1826103d6565b9050919050565b610401816103e7565b82525050565b5f60208201905061041a5f8301846103f8565b92915050565b5f5f6040838503121561043657610435610303565b5b5f61044385828601610326565b925050602061045485828601610326565b9150509250929050565b7f4e487b71000000000000000000000000000000000000000000000000000000005f52603260045260245ffd5b5f8151905061049981610310565b92915050565b5f602082840312156104b4576104b3610303565b5b5f6104c18482850161048b565b9150509291505056fe60806040525f5f553480156011575f5ffd5b506109888061001f5f395ff3fe608060405234801561000f575f5ffd5b5060043610610060575f3560e01c80632e64cec1146100645780636057361d146100825780636168cfc51461009e57806372cec4a1146100ba5780638986f6a5146100d6578063ba89dc1a14610107575b5f5ffd5b61006c610137565b60405161007991906102db565b60405180910390f35b61009c6004803603810190610097919061032f565b61013f565b005b6100b860048036038101906100b39190610496565b610148565b005b6100d460048036038101906100cf919061032f565b6101cc565b005b6100f060048036038101906100eb919061032f565b6101e1565b6040516100fe929190610550565b60405180910390f35b610121600480360381019061011c919061057e565b610296565b60405161012e91906102db565b60405180910390f35b5f5f54905090565b805f8190555050565b6001604051806040016040528084815260200183815250908060018154018082558091505060019003905f5260205f2090600202015f909190919091505f820151815f01908161019891906107d3565b50602082015181600101555050806002836040516101b691906108dc565b9081526020016040518091039020819055505050565b5f54816101d9919061091f565b5f8190555050565b600181815481106101f0575f80fd5b905f5260205f2090600202015f91509050805f01805461020f906105f2565b80601f016020809104026020016040519081016040528092919081815260200182805461023b906105f2565b80156102865780601f1061025d57610100808354040283529160200191610286565b820191905f5260205f20905b81548152906001019060200180831161026957829003601f168201915b5050505050908060010154905082565b6002818051602081018201805184825260208301602085012081835280955050505050505f915090505481565b5f819050919050565b6102d5816102c3565b82525050565b5f6020820190506102ee5f8301846102cc565b92915050565b5f604051905090565b5f5ffd5b5f5ffd5b61030e816102c3565b8114610318575f5ffd5b50565b5f8135905061032981610305565b92915050565b5f60208284031215610344576103436102fd565b5b5f6103518482850161031b565b91505092915050565b5f5ffd5b5f5ffd5b5f601f19601f8301169050919050565b7f4e487b71000000000000000000000000000000000000000000000000000000005f52604160045260245ffd5b6103a882610362565b810181811067ffffffffffffffff821117156103c7576103c6610372565b5b80604052505050565b5f6103d96102f4565b90506103e5828261039f565b919050565b5f67ffffffffffffffff82111561040457610403610372565b5b61040d82610362565b9050602081019050919050565b828183375f83830152505050565b5f61043a610435846103ea565b6103d0565b9050828152602081018484840111156104565761045561035e565b5b61046184828561041a565b509392505050565b5f82601f83011261047d5761047c61035a565b5b813561048d848260208601610428565b91505092915050565b5f5f604083850312156104ac576104ab6102fd565b5b5f83013567ffffffffffffffff8111156104c9576104c8610301565b5b6104d585828601610469565b92505060206104e68582860161031b565b9150509250929050565b5f81519050919050565b5f82825260208201905092915050565b8281835e5f83830152505050565b5f610522826104f0565b61052c81856104fa565b935061053c81856020860161050a565b61054581610362565b840191505092915050565b5f6040820190508181035f8301526105688185610518565b905061057760208301846102cc565b9392505050565b5f60208284031215610593576105926102fd565b5b5f82013567ffffffffffffffff8111156105b0576105af610301565b5b6105bc84828501610469565b91505092915050565b7f4e487b71000000000000000000000000000000000000000000000000000000005f52602260045260245ffd5b5f600282049050600182168061060957607f821691505b60208210810361061c5761061b6105c5565b5b50919050565b5f819050815f5260205f209050919050565b5f6020601f8301049050919050565b5f82821b905092915050565b5f6008830261067e7fffffffffffffffffffffffffffffffffffffffffffffffffffffffffffffffff82610643565b6106888683610643565b95508019841693508086168417925050509392505050565b5f819050919050565b5f6106c36106be6106b9846102c3565b6106a0565b6102c3565b9050919050565b5f819050919050565b6106dc836106a9565b6106f06106e8826106ca565b84845461064f565b825550505050565b5f5f905090565b6107076106f8565b6107128184846106d3565b505050565b5f5b828110156107385761072d5f8284016106ff565b600181019050610719565b505050565b601f82111561078b578282111561078a5761075781610622565b61076083610634565b61076985610634565b6020861015610776575f90505b80830161078582840382610717565b505050505b5b505050565b5f82821c905092915050565b5f6107ab5f1984600802610790565b1980831691505092915050565b5f6107c3838361079c565b9150826002028217905092915050565b6107dc826104f0565b67ffffffffffffffff8111156107f5576107f4610372565b5b6107ff82546105f2565b61080a82828561073d565b5f60209050601f83116001811461083b575f8415610829578287015190505b61083385826107b8565b86555061089a565b601f19841661084986610622565b5f5b828110156108705784890151825560018201915060208501945060208101905061084b565b8683101561088d5784890151610889601f89168261079c565b8355505b6001600288020188555050505b505050505050565b5f81905092915050565b5f6108b6826104f0565b6108c081856108a2565b93506108d081856020860161050a565b80840191505092915050565b5f6108e782846108ac565b915081905092915050565b7f4e487b71000000000000000000000000000000000000000000000000000000005f52601160045260245ffd5b5f610929826102c3565b9150610934836102c3565b925082820190508082111561094c5761094b6108f2565b5b9291505056fea2646970667358221220271f2967b1c2771162ca4156b508933ccf6daa895042ef81fdaeb58f23a7003a64736f6c63430008220033a2646970667358221220af8ce4aac9687a16b8001cf01d1f8b67ad9a82134d2ad13f3f86b028e62a27cb64736f6c63430008220033",
					"opcodes": "PUSH1 0x80 PUSH1 0x40 MSTORE CALLVALUE DUP1 ISZERO PUSH1 0xE JUMPI PUSH0 PUSH0 REVERT JUMPDEST POP PUSH2 0xEA7 DUP1 PUSH2 0x1C PUSH0 CODECOPY PUSH0 RETURN INVALID PUSH1 0x80 PUSH1 0x40 MSTORE CALLVALUE DUP1 ISZERO PUSH2 0xF JUMPI PUSH0 PUSH0 REVERT JUMPDEST POP PUSH1 0x4 CALLDATASIZE LT PUSH2 0x4A JUMPI PUSH0 CALLDATALOAD PUSH1 0xE0 SHR DUP1 PUSH4 0xAD91B64 EQ PUSH2 0x4E JUMPI DUP1 PUSH4 0x42422DEE EQ PUSH2 0x7E JUMPI DUP1 PUSH4 0x534545B6 EQ PUSH2 0xAE JUMPI DUP1 PUSH4 0xCAEC2A5A EQ PUSH2 0xB8 JUMPI JUMPDEST PUSH0 PUSH0 REVERT JUMPDEST PUSH2 0x68 PUSH1 0x4 DUP1 CALLDATASIZE SUB DUP2 ADD SWAP1 PUSH2 0x63 SWAP2 SWAP1 PUSH2 0x33A JUMP JUMPDEST PUSH2 0xD4 JUMP JUMPDEST PUSH1 0x40 MLOAD PUSH2 0x75 SWAP2 SWAP1 PUSH2 0x374 JUMP JUMPDEST PUSH1 0x40 MLOAD DUP1 SWAP2 SUB SWAP1 RETURN JUMPDEST PUSH2 0x98 PUSH1 0x4 DUP1 CALLDATASIZE SUB DUP2 ADD SWAP1 PUSH2 0x93 SWAP2 SWAP1 PUSH2 0x33A JUMP JUMPDEST PUSH2 0x188 JUMP JUMPDEST PUSH1 0x40 MLOAD PUSH2 0xA5 SWAP2 SWAP1 PUSH2 0x407 JUMP JUMPDEST PUSH1 0x40 MLOAD DUP1 SWAP2 SUB SWAP1 RETURN JUMPDEST PUSH2 0xB6 PUSH2 0x1C2 JUMP JUMPDEST STOP JUMPDEST PUSH2 0xD2 PUSH1 0x4 DUP1 CALLDATASIZE SUB DUP2 ADD SWAP1 PUSH2 0xCD SWAP2 SWAP1 PUSH2 0x420 JUMP JUMPDEST PUSH2 0x24D JUMP JUMPDEST STOP JUMPDEST PUSH0 PUSH0 PUSH0 DUP4 DUP2 SLOAD DUP2 LT PUSH2 0xE9 JUMPI PUSH2 0xE8 PUSH2 0x45E JUMP JUMPDEST JUMPDEST SWAP1 PUSH0 MSTORE PUSH1 0x20 PUSH0 KECCAK256 ADD PUSH0 SWAP1 SLOAD SWAP1 PUSH2 0x100 EXP SWAP1 DIV PUSH20 0xFFFFFFFFFFFFFFFFFFFFFFFFFFFFFFFFFFFFFFFF AND SWAP1 POP DUP1 PUSH20 0xFFFFFFFFFFFFFFFFFFFFFFFFFFFFFFFFFFFFFFFF AND PUSH4 0x2E64CEC1 PUSH1 0x40 MLOAD DUP2 PUSH4 0xFFFFFFFF AND PUSH1 0xE0 SHL DUP2 MSTORE PUSH1 0x4 ADD PUSH1 0x20 PUSH1 0x40 MLOAD DUP1 DUP4 SUB DUP2 DUP7 GAS STATICCALL ISZERO DUP1 ISZERO PUSH2 0x15C JUMPI RETURNDATASIZE PUSH0 PUSH0 RETURNDATACOPY RETURNDATASIZE PUSH0 REVERT JUMPDEST POP POP POP POP PUSH1 0x40 MLOAD RETURNDATASIZE PUSH1 0x1F NOT PUSH1 0x1F DUP3 ADD AND DUP3 ADD DUP1 PUSH1 0x40 MSTORE POP DUP2 ADD SWAP1 PUSH2 0x180 SWAP2 SWAP1 PUSH2 0x49F JUMP JUMPDEST SWAP2 POP POP SWAP2 SWAP1 POP JUMP JUMPDEST PUSH0 DUP2 DUP2 SLOAD DUP2 LT PUSH2 0x196 JUMPI PUSH0 DUP1 REVERT JUMPDEST SWAP1 PUSH0 MSTORE PUSH1 0x20 PUSH0 KECCAK256 ADD PUSH0 SWAP2 POP SLOAD SWAP1 PUSH2 0x100 EXP SWAP1 DIV PUSH20 0xFFFFFFFFFFFFFFFFFFFFFFFFFFFFFFFFFFFFFFFF AND DUP2 JUMP JUMPDEST PUSH0 PUSH1 0x40 MLOAD PUSH2 0x1CF SWAP1 PUSH2 0x2F6 JUMP JUMPDEST PUSH1 0x40 MLOAD DUP1 SWAP2 SUB SWAP1 PUSH0 CREATE DUP1 ISZERO DUP1 ISZERO PUSH2 0x1E8 JUMPI RETURNDATASIZE PUSH0 PUSH0 RETURNDATACOPY RETURNDATASIZE PUSH0 REVERT JUMPDEST POP SWAP1 POP PUSH0 DUP2 SWAP1 DUP1 PUSH1 0x1 DUP2 SLOAD ADD DUP1 DUP3 SSTORE DUP1 SWAP2 POP POP PUSH1 0x1 SWAP1 SUB SWAP1 PUSH0 MSTORE PUSH1 0x20 PUSH0 KECCAK256 ADD PUSH0 SWAP1 SWAP2 SWAP1 SWAP2 SWAP1 SWAP2 PUSH2 0x100 EXP DUP2 SLOAD DUP2 PUSH20 0xFFFFFFFFFFFFFFFFFFFFFFFFFFFFFFFFFFFFFFFF MUL NOT AND SWAP1 DUP4 PUSH20 0xFFFFFFFFFFFFFFFFFFFFFFFFFFFFFFFFFFFFFFFF AND MUL OR SWAP1 SSTORE POP POP JUMP JUMPDEST PUSH0 PUSH0 DUP4 DUP2 SLOAD DUP2 LT PUSH2 0x261 JUMPI PUSH2 0x260 PUSH2 0x45E JUMP JUMPDEST JUMPDEST SWAP1 PUSH0 MSTORE PUSH1 0x20 PUSH0 KECCAK256 ADD PUSH0 SWAP1 SLOAD SWAP1 PUSH2 0x100 EXP SWAP1 DIV PUSH20 0xFFFFFFFFFFFFFFFFFFFFFFFFFFFFFFFFFFFFFFFF AND SWAP1 POP DUP1 PUSH20 0xFFFFFFFFFFFFFFFFFFFFFFFFFFFFFFFFFFFFFFFF AND PUSH4 0x6057361D DUP4 PUSH1 0x40 MLOAD DUP3 PUSH4 0xFFFFFFFF AND PUSH1 0xE0 SHL DUP2 MSTORE PUSH1 0x4 ADD PUSH2 0x2C4 SWAP2 SWAP1 PUSH2 0x374 JUMP JUMPDEST PUSH0 PUSH1 0x40 MLOAD DUP1 DUP4 SUB DUP2 PUSH0 DUP8 DUP1 EXTCODESIZE ISZERO DUP1 ISZERO PUSH2 0x2DB JUMPI PUSH0 PUSH0 REVERT JUMPDEST POP GAS CALL ISZERO DUP1 ISZERO PUSH2 0x2ED JUMPI RETURNDATASIZE PUSH0 PUSH0 RETURNDATACOPY RETURNDATASIZE PUSH0 REVERT JUMPDEST POP POP POP POP POP POP POP JUMP JUMPDEST PUSH2 0x9A7 DUP1 PUSH2 0x4CB DUP4 CODECOPY ADD SWAP1 JUMP JUMPDEST PUSH0 PUSH0 REVERT JUMPDEST PUSH0 DUP2 SWAP1 POP SWAP2 SWAP1 POP JUMP JUMPDEST PUSH2 0x319 DUP2 PUSH2 0x307 JUMP JUMPDEST DUP2 EQ PUSH2 0x323 JUMPI PUSH0 PUSH0 REVERT JUMPDEST POP JUMP JUMPDEST PUSH0 DUP2 CALLDATALOAD SWAP1 POP PUSH2 0x334 DUP2 PUSH2 0x310 JUMP JUMPDEST SWAP3 SWAP2 POP POP JUMP JUMPDEST PUSH0 PUSH1 0x20 DUP3 DUP5 SUB SLT ISZERO PUSH2 0x34F JUMPI PUSH2 0x34E PUSH2 0x303 JUMP JUMPDEST JUMPDEST PUSH0 PUSH2 0x35C DUP5 DUP3 DUP6 ADD PUSH2 0x326 JUMP JUMPDEST SWAP2 POP POP SWAP3 SWAP2 POP POP JUMP JUMPDEST PUSH2 0x36E DUP2 PUSH2 0x307 JUMP JUMPDEST DUP3 MSTORE POP POP JUMP JUMPDEST PUSH0 PUSH1 0x20 DUP3 ADD SWAP1 POP PUSH2 0x387 PUSH0 DUP4 ADD DUP5 PUSH2 0x365 JUMP JUMPDEST SWAP3 SWAP2 POP POP JUMP JUMPDEST PUSH0 PUSH20 0xFFFFFFFFFFFFFFFFFFFFFFFFFFFFFFFFFFFFFFFF DUP3 AND SWAP1 POP SWAP2 SWAP1 POP JUMP JUMPDEST PUSH0 DUP2 SWAP1 POP SWAP2 SWAP1 POP JUMP JUMPDEST PUSH0 PUSH2 0x3CF PUSH2 0x3CA PUSH2 0x3C5 DUP5 PUSH2 0x38D JUMP JUMPDEST PUSH2 0x3AC JUMP JUMPDEST PUSH2 0x38D JUMP JUMPDEST SWAP1 POP SWAP2 SWAP1 POP JUMP JUMPDEST PUSH0 PUSH2 0x3E0 DUP3 PUSH2 0x3B5 JUMP JUMPDEST SWAP1 POP SWAP2 SWAP1 POP JUMP JUMPDEST PUSH0 PUSH2 0x3F1 DUP3 PUSH2 0x3D6 JUMP JUMPDEST SWAP1 POP SWAP2 SWAP1 POP JUMP JUMPDEST PUSH2 0x401 DUP2 PUSH2 0x3E7 JUMP JUMPDEST DUP3 MSTORE POP POP JUMP JUMPDEST PUSH0 PUSH1 0x20 DUP3 ADD SWAP1 POP PUSH2 0x41A PUSH0 DUP4 ADD DUP5 PUSH2 0x3F8 JUMP JUMPDEST SWAP3 SWAP2 POP POP JUMP JUMPDEST PUSH0 PUSH0 PUSH1 0x40 DUP4 DUP6 SUB SLT ISZERO PUSH2 0x436 JUMPI PUSH2 0x435 PUSH2 0x303 JUMP JUMPDEST JUMPDEST PUSH0 PUSH2 0x443 DUP6 DUP3 DUP7 ADD PUSH2 0x326 JUMP JUMPDEST SWAP3 POP POP PUSH1 0x20 PUSH2 0x454 DUP6 DUP3 DUP7 ADD PUSH2 0x326 JUMP JUMPDEST SWAP2 POP POP SWAP3 POP SWAP3 SWAP1 POP JUMP JUMPDEST PUSH32 0x4E487B7100000000000000000000000000000000000000000000000000000000 PUSH0 MSTORE PUSH1 0x32 PUSH1 0x4 MSTORE PUSH1 0x24 PUSH0 REVERT JUMPDEST PUSH0 DUP2 MLOAD SWAP1 POP PUSH2 0x499 DUP2 PUSH2 0x310 JUMP JUMPDEST SWAP3 SWAP2 POP POP JUMP JUMPDEST PUSH0 PUSH1 0x20 DUP3 DUP5 SUB SLT ISZERO PUSH2 0x4B4 JUMPI PUSH2 0x4B3 PUSH2 0x303 JUMP JUMPDEST JUMPDEST PUSH0 PUSH2 0x4C1 DUP5 DUP3 DUP6 ADD PUSH2 0x48B JUMP JUMPDEST SWAP2 POP POP SWAP3 SWAP2 POP POP JUMP INVALID PUSH1 0x80 PUSH1 0x40 MSTORE PUSH0 PUSH0 SSTORE CALLVALUE DUP1 ISZERO PUSH1 0x11 JUMPI PUSH0 PUSH0 REVERT JUMPDEST POP PUSH2 0x988 DUP1 PUSH2 0x1F PUSH0 CODECOPY PUSH0 RETURN INVALID PUSH1 0x80 PUSH1 0x40 MSTORE CALLVALUE DUP1 ISZERO PUSH2 0xF JUMPI PUSH0 PUSH0 REVERT JUMPDEST POP PUSH1 0x4 CALLDATASIZE LT PUSH2 0x60 JUMPI PUSH0 CALLDATALOAD PUSH1 0xE0 SHR DUP1 PUSH4 0x2E64CEC1 EQ PUSH2 0x64 JUMPI DUP1 PUSH4 0x6057361D EQ PUSH2 0x82 JUMPI DUP1 PUSH4 0x6168CFC5 EQ PUSH2 0x9E JUMPI DUP1 PUSH4 0x72CEC4A1 EQ PUSH2 0xBA JUMPI DUP1 PUSH4 0x8986F6A5 EQ PUSH2 0xD6 JUMPI DUP1 PUSH4 0xBA89DC1A EQ PUSH2 0x107 JUMPI JUMPDEST PUSH0 PUSH0 REVERT JUMPDEST PUSH2 0x6C PUSH2 0x137 JUMP JUMPDEST PUSH1 0x40 MLOAD PUSH2 0x79 SWAP2 SWAP1 PUSH2 0x2DB JUMP JUMPDEST PUSH1 0x40 MLOAD DUP1 SWAP2 SUB SWAP1 RETURN JUMPDEST PUSH2 0x9C PUSH1 0x4 DUP1 CALLDATASIZE SUB DUP2 ADD SWAP1 PUSH2 0x97 SWAP2 SWAP1 PUSH2 0x32F JUMP JUMPDEST PUSH2 0x13F JUMP JUMPDEST STOP JUMPDEST PUSH2 0xB8 PUSH1 0x4 DUP1 CALLDATASIZE SUB DUP2 ADD SWAP1 PUSH2 0xB3 SWAP2 SWAP1 PUSH2 0x496 JUMP JUMPDEST PUSH2 0x148 JUMP JUMPDEST STOP JUMPDEST PUSH2 0xD4 PUSH1 0x4 DUP1 CALLDATASIZE SUB DUP2 ADD SWAP1 PUSH2 0xCF SWAP2 SWAP1 PUSH2 0x32F JUMP JUMPDEST PUSH2 0x1CC JUMP JUMPDEST STOP JUMPDEST PUSH2 0xF0 PUSH1 0x4 DUP1 CALLDATASIZE SUB DUP2 ADD SWAP1 PUSH2 0xEB SWAP2 SWAP1 PUSH2 0x32F JUMP JUMPDEST PUSH2 0x1E1 JUMP JUMPDEST PUSH1 0x40 MLOAD PUSH2 0xFE SWAP3 SWAP2 SWAP1 PUSH2 0x550 JUMP JUMPDEST PUSH1 0x40 MLOAD DUP1 SWAP2 SUB SWAP1 RETURN JUMPDEST PUSH2 0x121 PUSH1 0x4 DUP1 CALLDATASIZE SUB DUP2 ADD SWAP1 PUSH2 0x11C SWAP2 SWAP1 PUSH2 0x57E JUMP JUMPDEST PUSH2 0x296 JUMP JUMPDEST PUSH1 0x40 MLOAD PUSH2 0x12E SWAP2 SWAP1 PUSH2 0x2DB JUMP JUMPDEST PUSH1 0x40 MLOAD DUP1 SWAP2 SUB SWAP1 RETURN JUMPDEST PUSH0 PUSH0 SLOAD SWAP1 POP SWAP1 JUMP JUMPDEST DUP1 PUSH0 DUP2 SWAP1 SSTORE POP POP JUMP JUMPDEST PUSH1 0x1 PUSH1 0x40 MLOAD DUP1 PUSH1 0x40 ADD PUSH1 0x40 MSTORE DUP1 DUP5 DUP2 MSTORE PUSH1 0x20 ADD DUP4 DUP2 MSTORE POP SWAP1 DUP1 PUSH1 0x1 DUP2 SLOAD ADD DUP1 DUP3 SSTORE DUP1 SWAP2 POP POP PUSH1 0x1 SWAP1 SUB SWAP1 PUSH0 MSTORE PUSH1 0x20 PUSH0 KECCAK256 SWAP1 PUSH1 0x2 MUL ADD PUSH0 SWAP1 SWAP2 SWAP1 SWAP2 SWAP1 SWAP2 POP PUSH0 DUP3 ADD MLOAD DUP2 PUSH0 ADD SWAP1 DUP2 PUSH2 0x198 SWAP2 SWAP1 PUSH2 0x7D3 JUMP JUMPDEST POP PUSH1 0x20 DUP3 ADD MLOAD DUP2 PUSH1 0x1 ADD SSTORE POP POP DUP1 PUSH1 0x2 DUP4 PUSH1 0x40 MLOAD PUSH2 0x1B6 SWAP2 SWAP1 PUSH2 0x8DC JUMP JUMPDEST SWAP1 DUP2 MSTORE PUSH1 0x20 ADD PUSH1 0x40 MLOAD DUP1 SWAP2 SUB SWAP1 KECCAK256 DUP2 SWAP1 SSTORE POP POP POP JUMP JUMPDEST PUSH0 SLOAD DUP2 PUSH2 0x1D9 SWAP2 SWAP1 PUSH2 0x91F JUMP JUMPDEST PUSH0 DUP2 SWAP1 SSTORE POP POP JUMP JUMPDEST PUSH1 0x1 DUP2 DUP2 SLOAD DUP2 LT PUSH2 0x1F0 JUMPI PUSH0 DUP1 REVERT JUMPDEST SWAP1 PUSH0 MSTORE PUSH1 0x20 PUSH0 KECCAK256 SWAP1 PUSH1 0x2 MUL ADD PUSH0 SWAP2 POP SWAP1 POP DUP1 PUSH0 ADD DUP1 SLOAD PUSH2 0x20F SWAP1 PUSH2 0x5F2 JUMP JUMPDEST DUP1 PUSH1 0x1F ADD PUSH1 0x20 DUP1 SWAP2 DIV MUL PUSH1 0x20 ADD PUSH1 0x40 MLOAD SWAP1 DUP2 ADD PUSH1 0x40 MSTORE DUP1 SWAP3 SWAP2 SWAP1 DUP2 DUP2 MSTORE PUSH1 0x20 ADD DUP3 DUP1 SLOAD PUSH2 0x23B SWAP1 PUSH2 0x5F2 JUMP JUMPDEST DUP1 ISZERO PUSH2 0x286 JUMPI DUP1 PUSH1 0x1F LT PUSH2 0x25D JUMPI PUSH2 0x100 DUP1 DUP4 SLOAD DIV MUL DUP4 MSTORE SWAP2 PUSH1 0x20 ADD SWAP2 PUSH2 0x286 JUMP JUMPDEST DUP3 ADD SWAP2 SWAP1 PUSH0 MSTORE PUSH1 0x20 PUSH0 KECCAK256 SWAP1 JUMPDEST DUP2 SLOAD DUP2 MSTORE SWAP1 PUSH1 0x1 ADD SWAP1 PUSH1 0x20 ADD DUP1 DUP4 GT PUSH2 0x269 JUMPI DUP3 SWAP1 SUB PUSH1 0x1F AND DUP3 ADD SWAP2 JUMPDEST POP POP POP POP POP SWAP1 DUP1 PUSH1 0x1 ADD SLOAD SWAP1 POP DUP3 JUMP JUMPDEST PUSH1 0x2 DUP2 DUP1 MLOAD PUSH1 0x20 DUP2 ADD DUP3 ADD DUP1 MLOAD DUP5 DUP3 MSTORE PUSH1 0x20 DUP4 ADD PUSH1 0x20 DUP6 ADD KECCAK256 DUP2 DUP4 MSTORE DUP1 SWAP6 POP POP POP POP POP POP PUSH0 SWAP2 POP SWAP1 POP SLOAD DUP2 JUMP JUMPDEST PUSH0 DUP2 SWAP1 POP SWAP2 SWAP1 POP JUMP JUMPDEST PUSH2 0x2D5 DUP2 PUSH2 0x2C3 JUMP JUMPDEST DUP3 MSTORE POP POP JUMP JUMPDEST PUSH0 PUSH1 0x20 DUP3 ADD SWAP1 POP PUSH2 0x2EE PUSH0 DUP4 ADD DUP5 PUSH2 0x2CC JUMP JUMPDEST SWAP3 SWAP2 POP POP JUMP JUMPDEST PUSH0 PUSH1 0x40 MLOAD SWAP1 POP SWAP1 JUMP JUMPDEST PUSH0 PUSH0 REVERT JUMPDEST PUSH0 PUSH0 REVERT JUMPDEST PUSH2 0x30E DUP2 PUSH2 0x2C3 JUMP JUMPDEST DUP2 EQ PUSH2 0x318 JUMPI PUSH0 PUSH0 REVERT JUMPDEST POP JUMP JUMPDEST PUSH0 DUP2 CALLDATALOAD SWAP1 POP PUSH2 0x329 DUP2 PUSH2 0x305 JUMP JUMPDEST SWAP3 SWAP2 POP POP JUMP JUMPDEST PUSH0 PUSH1 0x20 DUP3 DUP5 SUB SLT ISZERO PUSH2 0x344 JUMPI PUSH2 0x343 PUSH2 0x2FD JUMP JUMPDEST JUMPDEST PUSH0 PUSH2 0x351 DUP5 DUP3 DUP6 ADD PUSH2 0x31B JUMP JUMPDEST SWAP2 POP POP SWAP3 SWAP2 POP POP JUMP JUMPDEST PUSH0 PUSH0 REVERT JUMPDEST PUSH0 PUSH0 REVERT JUMPDEST PUSH0 PUSH1 0x1F NOT PUSH1 0x1F DUP4 ADD AND SWAP1 POP SWAP2 SWAP1 POP JUMP JUMPDEST PUSH32 0x4E487B7100000000000000000000000000000000000000000000000000000000 PUSH0 MSTORE PUSH1 0x41 PUSH1 0x4 MSTORE PUSH1 0x24 PUSH0 REVERT JUMPDEST PUSH2 0x3A8 DUP3 PUSH2 0x362 JUMP JUMPDEST DUP2 ADD DUP2 DUP2 LT PUSH8 0xFFFFFFFFFFFFFFFF DUP3 GT OR ISZERO PUSH2 0x3C7 JUMPI PUSH2 0x3C6 PUSH2 0x372 JUMP JUMPDEST JUMPDEST DUP1 PUSH1 0x40 MSTORE POP POP POP JUMP JUMPDEST PUSH0 PUSH2 0x3D9 PUSH2 0x2F4 JUMP JUMPDEST SWAP1 POP PUSH2 0x3E5 DUP3 DUP3 PUSH2 0x39F JUMP JUMPDEST SWAP2 SWAP1 POP JUMP JUMPDEST PUSH0 PUSH8 0xFFFFFFFFFFFFFFFF DUP3 GT ISZERO PUSH2 0x404 JUMPI PUSH2 0x403 PUSH2 0x372 JUMP JUMPDEST JUMPDEST PUSH2 0x40D DUP3 PUSH2 0x362 JUMP JUMPDEST SWAP1 POP PUSH1 0x20 DUP2 ADD SWAP1 POP SWAP2 SWAP1 POP JUMP JUMPDEST DUP3 DUP2 DUP4 CALLDATACOPY PUSH0 DUP4 DUP4 ADD MSTORE POP POP POP JUMP JUMPDEST PUSH0 PUSH2 0x43A PUSH2 0x435 DUP5 PUSH2 0x3EA JUMP JUMPDEST PUSH2 0x3D0 JUMP JUMPDEST SWAP1 POP DUP3 DUP2 MSTORE PUSH1 0x20 DUP2 ADD DUP5 DUP5 DUP5 ADD GT ISZERO PUSH2 0x456 JUMPI PUSH2 0x455 PUSH2 0x35E JUMP JUMPDEST JUMPDEST PUSH2 0x461 DUP5 DUP3 DUP6 PUSH2 0x41A JUMP JUMPDEST POP SWAP4 SWAP3 POP POP POP JUMP JUMPDEST PUSH0 DUP3 PUSH1 0x1F DUP4 ADD SLT PUSH2 0x47D JUMPI PUSH2 0x47C PUSH2 0x35A JUMP JUMPDEST JUMPDEST DUP2 CALLDATALOAD PUSH2 0x48D DUP5 DUP3 PUSH1 0x20 DUP7 ADD PUSH2 0x428 JUMP JUMPDEST SWAP2 POP POP SWAP3 SWAP2 POP POP JUMP JUMPDEST PUSH0 PUSH0 PUSH1 0x40 DUP4 DUP6 SUB SLT ISZERO PUSH2 0x4AC JUMPI PUSH2 0x4AB PUSH2 0x2FD JUMP JUMPDEST JUMPDEST PUSH0 DUP4 ADD CALLDATALOAD PUSH8 0xFFFFFFFFFFFFFFFF DUP2 GT ISZERO PUSH2 0x4C9 JUMPI PUSH2 0x4C8 PUSH2 0x301 JUMP JUMPDEST JUMPDEST PUSH2 0x4D5 DUP6 DUP3 DUP7 ADD PUSH2 0x469 JUMP JUMPDEST SWAP3 POP POP PUSH1 0x20 PUSH2 0x4E6 DUP6 DUP3 DUP7 ADD PUSH2 0x31B JUMP JUMPDEST SWAP2 POP POP SWAP3 POP SWAP3 SWAP1 POP JUMP JUMPDEST PUSH0 DUP2 MLOAD SWAP1 POP SWAP2 SWAP1 POP JUMP JUMPDEST PUSH0 DUP3 DUP3 MSTORE PUSH1 0x20 DUP3 ADD SWAP1 POP SWAP3 SWAP2 POP POP JUMP JUMPDEST DUP3 DUP2 DUP4 MCOPY PUSH0 DUP4 DUP4 ADD MSTORE POP POP POP JUMP JUMPDEST PUSH0 PUSH2 0x522 DUP3 PUSH2 0x4F0 JUMP JUMPDEST PUSH2 0x52C DUP2 DUP6 PUSH2 0x4FA JUMP JUMPDEST SWAP4 POP PUSH2 0x53C DUP2 DUP6 PUSH1 0x20 DUP7 ADD PUSH2 0x50A JUMP JUMPDEST PUSH2 0x545 DUP2 PUSH2 0x362 JUMP JUMPDEST DUP5 ADD SWAP2 POP POP SWAP3 SWAP2 POP POP JUMP JUMPDEST PUSH0 PUSH1 0x40 DUP3 ADD SWAP1 POP DUP2 DUP2 SUB PUSH0 DUP4 ADD MSTORE PUSH2 0x568 DUP2 DUP6 PUSH2 0x518 JUMP JUMPDEST SWAP1 POP PUSH2 0x577 PUSH1 0x20 DUP4 ADD DUP5 PUSH2 0x2CC JUMP JUMPDEST SWAP4 SWAP3 POP POP POP JUMP JUMPDEST PUSH0 PUSH1 0x20 DUP3 DUP5 SUB SLT ISZERO PUSH2 0x593 JUMPI PUSH2 0x592 PUSH2 0x2FD JUMP JUMPDEST JUMPDEST PUSH0 DUP3 ADD CALLDATALOAD PUSH8 0xFFFFFFFFFFFFFFFF DUP2 GT ISZERO PUSH2 0x5B0 JUMPI PUSH2 0x5AF PUSH2 0x301 JUMP JUMPDEST JUMPDEST PUSH2 0x5BC DUP5 DUP3 DUP6 ADD PUSH2 0x469 JUMP JUMPDEST SWAP2 POP POP SWAP3 SWAP2 POP POP JUMP JUMPDEST PUSH32 0x4E487B7100000000000000000000000000000000000000000000000000000000 PUSH0 MSTORE PUSH1 0x22 PUSH1 0x4 MSTORE PUSH1 0x24 PUSH0 REVERT JUMPDEST PUSH0 PUSH1 0x2 DUP3 DIV SWAP1 POP PUSH1 0x1 DUP3 AND DUP1 PUSH2 0x609 JUMPI PUSH1 0x7F DUP3 AND SWAP2 POP JUMPDEST PUSH1 0x20 DUP3 LT DUP2 SUB PUSH2 0x61C JUMPI PUSH2 0x61B PUSH2 0x5C5 JUMP JUMPDEST JUMPDEST POP SWAP2 SWAP1 POP JUMP JUMPDEST PUSH0 DUP2 SWAP1 POP DUP2 PUSH0 MSTORE PUSH1 0x20 PUSH0 KECCAK256 SWAP1 POP SWAP2 SWAP1 POP JUMP JUMPDEST PUSH0 PUSH1 0x20 PUSH1 0x1F DUP4 ADD DIV SWAP1 POP SWAP2 SWAP1 POP JUMP JUMPDEST PUSH0 DUP3 DUP3 SHL SWAP1 POP SWAP3 SWAP2 POP POP JUMP JUMPDEST PUSH0 PUSH1 0x8 DUP4 MUL PUSH2 0x67E PUSH32 0xFFFFFFFFFFFFFFFFFFFFFFFFFFFFFFFFFFFFFFFFFFFFFFFFFFFFFFFFFFFFFFFF DUP3 PUSH2 0x643 JUMP JUMPDEST PUSH2 0x688 DUP7 DUP4 PUSH2 0x643 JUMP JUMPDEST SWAP6 POP DUP1 NOT DUP5 AND SWAP4 POP DUP1 DUP7 AND DUP5 OR SWAP3 POP POP POP SWAP4 SWAP3 POP POP POP JUMP JUMPDEST PUSH0 DUP2 SWAP1 POP SWAP2 SWAP1 POP JUMP JUMPDEST PUSH0 PUSH2 0x6C3 PUSH2 0x6BE PUSH2 0x6B9 DUP5 PUSH2 0x2C3 JUMP JUMPDEST PUSH2 0x6A0 JUMP JUMPDEST PUSH2 0x2C3 JUMP JUMPDEST SWAP1 POP SWAP2 SWAP1 POP JUMP JUMPDEST PUSH0 DUP2 SWAP1 POP SWAP2 SWAP1 POP JUMP JUMPDEST PUSH2 0x6DC DUP4 PUSH2 0x6A9 JUMP JUMPDEST PUSH2 0x6F0 PUSH2 0x6E8 DUP3 PUSH2 0x6CA JUMP JUMPDEST DUP5 DUP5 SLOAD PUSH2 0x64F JUMP JUMPDEST DUP3 SSTORE POP POP POP POP JUMP JUMPDEST PUSH0 PUSH0 SWAP1 POP SWAP1 JUMP JUMPDEST PUSH2 0x707 PUSH2 0x6F8 JUMP JUMPDEST PUSH2 0x712 DUP2 DUP5 DUP5 PUSH2 0x6D3 JUMP JUMPDEST POP POP POP JUMP JUMPDEST PUSH0 JUMPDEST DUP3 DUP2 LT ISZERO PUSH2 0x738 JUMPI PUSH2 0x72D PUSH0 DUP3 DUP5 ADD PUSH2 0x6FF JUMP JUMPDEST PUSH1 0x1 DUP2 ADD SWAP1 POP PUSH2 0x719 JUMP JUMPDEST POP POP POP JUMP JUMPDEST PUSH1 0x1F DUP3 GT ISZERO PUSH2 0x78B JUMPI DUP3 DUP3 GT ISZERO PUSH2 0x78A JUMPI PUSH2 0x757 DUP2 PUSH2 0x622 JUMP JUMPDEST PUSH2 0x760 DUP4 PUSH2 0x634 JUMP JUMPDEST PUSH2 0x769 DUP6 PUSH2 0x634 JUMP JUMPDEST PUSH1 0x20 DUP7 LT ISZERO PUSH2 0x776 JUMPI PUSH0 SWAP1 POP JUMPDEST DUP1 DUP4 ADD PUSH2 0x785 DUP3 DUP5 SUB DUP3 PUSH2 0x717 JUMP JUMPDEST POP POP POP POP JUMPDEST JUMPDEST POP POP POP JUMP JUMPDEST PUSH0 DUP3 DUP3 SHR SWAP1 POP SWAP3 SWAP2 POP POP JUMP JUMPDEST PUSH0 PUSH2 0x7AB PUSH0 NOT DUP5 PUSH1 0x8 MUL PUSH2 0x790 JUMP JUMPDEST NOT DUP1 DUP4 AND SWAP2 POP POP SWAP3 SWAP2 POP POP JUMP JUMPDEST PUSH0 PUSH2 0x7C3 DUP4 DUP4 PUSH2 0x79C JUMP JUMPDEST SWAP2 POP DUP3 PUSH1 0x2 MUL DUP3 OR SWAP1 POP SWAP3 SWAP2 POP POP JUMP JUMPDEST PUSH2 0x7DC DUP3 PUSH2 0x4F0 JUMP JUMPDEST PUSH8 0xFFFFFFFFFFFFFFFF DUP2 GT ISZERO PUSH2 0x7F5 JUMPI PUSH2 0x7F4 PUSH2 0x372 JUMP JUMPDEST JUMPDEST PUSH2 0x7FF DUP3 SLOAD PUSH2 0x5F2 JUMP JUMPDEST PUSH2 0x80A DUP3 DUP3 DUP6 PUSH2 0x73D JUMP JUMPDEST PUSH0 PUSH1 0x20 SWAP1 POP PUSH1 0x1F DUP4 GT PUSH1 0x1 DUP2 EQ PUSH2 0x83B JUMPI PUSH0 DUP5 ISZERO PUSH2 0x829 JUMPI DUP3 DUP8 ADD MLOAD SWAP1 POP JUMPDEST PUSH2 0x833 DUP6 DUP3 PUSH2 0x7B8 JUMP JUMPDEST DUP7 SSTORE POP PUSH2 0x89A JUMP JUMPDEST PUSH1 0x1F NOT DUP5 AND PUSH2 0x849 DUP7 PUSH2 0x622 JUMP JUMPDEST PUSH0 JUMPDEST DUP3 DUP2 LT ISZERO PUSH2 0x870 JUMPI DUP5 DUP10 ADD MLOAD DUP3 SSTORE PUSH1 0x1 DUP3 ADD SWAP2 POP PUSH1 0x20 DUP6 ADD SWAP5 POP PUSH1 0x20 DUP2 ADD SWAP1 POP PUSH2 0x84B JUMP JUMPDEST DUP7 DUP4 LT ISZERO PUSH2 0x88D JUMPI DUP5 DUP10 ADD MLOAD PUSH2 0x889 PUSH1 0x1F DUP10 AND DUP3 PUSH2 0x79C JUMP JUMPDEST DUP4 SSTORE POP JUMPDEST PUSH1 0x1 PUSH1 0x2 DUP9 MUL ADD DUP9 SSTORE POP POP POP JUMPDEST POP POP POP POP POP POP JUMP JUMPDEST PUSH0 DUP2 SWAP1 POP SWAP3 SWAP2 POP POP JUMP JUMPDEST PUSH0 PUSH2 0x8B6 DUP3 PUSH2 0x4F0 JUMP JUMPDEST PUSH2 0x8C0 DUP2 DUP6 PUSH2 0x8A2 JUMP JUMPDEST SWAP4 POP PUSH2 0x8D0 DUP2 DUP6 PUSH1 0x20 DUP7 ADD PUSH2 0x50A JUMP JUMPDEST DUP1 DUP5 ADD SWAP2 POP POP SWAP3 SWAP2 POP POP JUMP JUMPDEST PUSH0 PUSH2 0x8E7 DUP3 DUP5 PUSH2 0x8AC JUMP JUMPDEST SWAP2 POP DUP2 SWAP1 POP SWAP3 SWAP2 POP POP JUMP JUMPDEST PUSH32 0x4E487B7100000000000000000000000000000000000000000000000000000000 PUSH0 MSTORE PUSH1 0x11 PUSH1 0x4 MSTORE PUSH1 0x24 PUSH0 REVERT JUMPDEST PUSH0 PUSH2 0x929 DUP3 PUSH2 0x2C3 JUMP JUMPDEST SWAP2 POP PUSH2 0x934 DUP4 PUSH2 0x2C3 JUMP JUMPDEST SWAP3 POP DUP3 DUP3 ADD SWAP1 POP DUP1 DUP3 GT ISZERO PUSH2 0x94C JUMPI PUSH2 0x94B PUSH2 0x8F2 JUMP JUMPDEST JUMPDEST SWAP3 SWAP2 POP POP JUMP INVALID LOG2 PUSH5 0x6970667358 0x22 SLT KECCAK256 0x27 0x1F 0x29 PUSH8 0xB1C2771162CA4156 0xB5 ADDMOD SWAP4 EXTCODECOPY 0xCF PUSH14 0xAA895042EF81FDAEB58F23A7003A PUSH5 0x736F6C6343 STOP ADDMOD 0x22 STOP CALLER LOG2 PUSH5 0x6970667358 0x22 SLT KECCAK256 0xAF DUP13 RETF 0xAA 0xC9 PUSH9 0x7A16B8001CF01D1F8B PUSH8 0xAD9A82134D2AD13F EXTCODEHASH DUP7 0xB0 0x28 DUPN 0x2A 0x27 0xCB PUSH5 0x736F6C6343 STOP ADDMOD 0x22 STOP CALLER "
				},
				"gasEstimates": {
					"creation": {
						"codeDepositCost": "750200",
						"executionCost": "784",
						"totalCost": "750984"
					},
					"external": {
						"createsimplestorage()": "infinite",
						"listofSimpleStorage(uint256)": "infinite",
						"sfget(uint256)": "infinite",
						"sfstore(uint256,uint256)": "infinite"
					}
				},
				"methodIdentifiers": {
					"createsimplestorage()": "534545b6",
					"listofSimpleStorage(uint256)": "42422dee",
					"sfget(uint256)": "0ad91b64",
					"sfstore(uint256,uint256)": "caec2a5a"
				}
			},
			"storageLayout": {
				"storage": [
					{
						"astId": 82,
						"contract": "learning/StorageFactory.sol:storagefactory",
						"label": "listofSimpleStorage",
						"offset": 0,
						"slot": "0",
						"type": "t_array(t_contract(SimpleStorage)71)dyn_storage"
					}
				],
				"types": {
					"t_array(t_contract(SimpleStorage)71)dyn_storage": {
						"base": "t_contract(SimpleStorage)71",
						"encoding": "dynamic_array",
						"label": "contract SimpleStorage[]",
						"numberOfBytes": "32"
					},
					"t_contract(SimpleStorage)71": {
						"encoding": "inplace",
						"label": "contract SimpleStorage",
						"numberOfBytes": "20"
					}
				}
			},
			"userdoc": {
				"kind": "user",
				"methods": {},
				"version": 1
			}
		}
	}
}