{
	"data": {
		"bytecode": {
			"linkReferences": {},
			"object": "6080604052348015600e575f5ffd5b50610b678061001c5f395ff3fe608060405234801561000f575f5ffd5b5060043610610034575f3560e01c80634761822f14610038578063534545b614610056575b5f5ffd5b610040610060565b60405161004d9190610171565b60405180910390f35b61005e610084565b005b5f5f9054906101000a900473ffffffffffffffffffffffffffffffffffffffff1681565b604051610090906100ea565b604051809103905ff0801580156100a9573d5f5f3e3d5ffd5b505f5f6101000a81548173ffffffffffffffffffffffffffffffffffffffff021916908373ffffffffffffffffffffffffffffffffffffffff160217905550565b6109a78061018b83390190565b5f73ffffffffffffffffffffffffffffffffffffffff82169050919050565b5f819050919050565b5f61013961013461012f846100f7565b610116565b6100f7565b9050919050565b5f61014a8261011f565b9050919050565b5f61015b82610140565b9050919050565b61016b81610151565b82525050565b5f6020820190506101845f830184610162565b9291505056fe60806040525f5f553480156011575f5ffd5b506109888061001f5f395ff3fe608060405234801561000f575f5ffd5b5060043610610060575f3560e01c80632e64cec1146100645780636057361d146100825780636168cfc51461009e57806372cec4a1146100ba5780638986f6a5146100d6578063ba89dc1a14610107575b5f5ffd5b61006c610137565b60405161007991906102db565b60405180910390f35b61009c6004803603810190610097919061032f565b61013f565b005b6100b860048036038101906100b39190610496565b610148565b005b6100d460048036038101906100cf919061032f565b6101cc565b005b6100f060048036038101906100eb919061032f565b6101e1565b6040516100fe929190610550565b60405180910390f35b610121600480360381019061011c919061057e565b610296565b60405161012e91906102db565b60405180910390f35b5f5f54905090565b805f8190555050565b6001604051806040016040528084815260200183815250908060018154018082558091505060019003905f5260205f2090600202015f909190919091505f820151815f01908161019891906107d3565b50602082015181600101555050806002836040516101b691906108dc565b9081526020016040518091039020819055505050565b5f54816101d9919061091f565b5f8190555050565b600181815481106101f0575f80fd5b905f5260205f2090600202015f91509050805f01805461020f906105f2565b80601f016020809104026020016040519081016040528092919081815260200182805461023b906105f2565b80156102865780601f1061025d57610100808354040283529160200191610286565b820191905f5260205f20905b81548152906001019060200180831161026957829003601f168201915b5050505050908060010154905082565b6002818051602081018201805184825260208301602085012081835280955050505050505f915090505481565b5f819050919050565b6102d5816102c3565b82525050565b5f6020820190506102ee5f8301846102cc565b92915050565b5f604051905090565b5f5ffd5b5f5ffd5b61030e816102c3565b8114610318575f5ffd5b50565b5f8135905061032981610305565b92915050565b5f60208284031215610344576103436102fd565b5b5f6103518482850161031b565b91505092915050565b5f5ffd5b5f5ffd5b5f601f19601f8301169050919050565b7f4e487b71000000000000000000000000000000000000000000000000000000005f52604160045260245ffd5b6103a882610362565b810181811067ffffffffffffffff821117156103c7576103c6610372565b5b80604052505050565b5f6103d96102f4565b90506103e5828261039f565b919050565b5f67ffffffffffffffff82111561040457610403610372565b5b61040d82610362565b9050602081019050919050565b828183375f83830152505050565b5f61043a610435846103ea565b6103d0565b9050828152602081018484840111156104565761045561035e565b5b61046184828561041a565b509392505050565b5f82601f83011261047d5761047c61035a565b5b813561048d848260208601610428565b91505092915050565b5f5f604083850312156104ac576104ab6102fd565b5b5f83013567ffffffffffffffff8111156104c9576104c8610301565b5b6104d585828601610469565b92505060206104e68582860161031b565b9150509250929050565b5f81519050919050565b5f82825260208201905092915050565b8281835e5f83830152505050565b5f610522826104f0565b61052c81856104fa565b935061053c81856020860161050a565b61054581610362565b840191505092915050565b5f6040820190508181035f8301526105688185610518565b905061057760208301846102cc565b9392505050565b5f60208284031215610593576105926102fd565b5b5f82013567ffffffffffffffff8111156105b0576105af610301565b5b6105bc84828501610469565b91505092915050565b7f4e487b71000000000000000000000000000000000000000000000000000000005f52602260045260245ffd5b5f600282049050600182168061060957607f821691505b60208210810361061c5761061b6105c5565b5b50919050565b5f819050815f5260205f209050919050565b5f6020601f8301049050919050565b5f82821b905092915050565b5f6008830261067e7fffffffffffffffffffffffffffffffffffffffffffffffffffffffffffffffff82610643565b6106888683610643565b95508019841693508086168417925050509392505050565b5f819050919050565b5f6106c36106be6106b9846102c3565b6106a0565b6102c3565b9050919050565b5f819050919050565b6106dc836106a9565b6106f06106e8826106ca565b84845461064f565b825550505050565b5f5f905090565b6107076106f8565b6107128184846106d3565b505050565b5f5b828110156107385761072d5f8284016106ff565b600181019050610719565b505050565b601f82111561078b578282111561078a5761075781610622565b61076083610634565b61076985610634565b6020861015610776575f90505b80830161078582840382610717565b505050505b5b505050565b5f82821c905092915050565b5f6107ab5f1984600802610790565b1980831691505092915050565b5f6107c3838361079c565b9150826002028217905092915050565b6107dc826104f0565b67ffffffffffffffff8111156107f5576107f4610372565b5b6107ff82546105f2565b61080a82828561073d565b5f60209050601f83116001811461083b575f8415610829578287015190505b61083385826107b8565b86555061089a565b601f19841661084986610622565b5f5b828110156108705784890151825560018201915060208501945060208101905061084b565b8683101561088d5784890151610889601f89168261079c565b8355505b6001600288020188555050505b505050505050565b5f81905092915050565b5f6108b6826104f0565b6108c081856108a2565b93506108d081856020860161050a565b80840191505092915050565b5f6108e782846108ac565b915081905092915050565b7f4e487b71000000000000000000000000000000000000000000000000000000005f52601160045260245ffd5b5f610929826102c3565b9150610934836102c3565b925082820190508082111561094c5761094b6108f2565b5b9291505056fea26469706673582212200075bf88881f258f5f57f3d7e1b799e2098c17f419acada4364c39e022685fd964736f6c63430008220033a2646970667358221220cbb0d199b82d922c566b956d647920b9917c91a15847193f70db15dec3fcb22964736f6c63430008220033",
			"opcodes": "PUSH1 0x80 PUSH1 0x40 MSTORE CALLVALUE DUP1 ISZERO PUSH1 0xE JUMPI PUSH0 PUSH0 REVERT JUMPDEST POP PUSH2 0xB67 DUP1 PUSH2 0x1C PUSH0 CODECOPY PUSH0 RETURN INVALID PUSH1 0x80 PUSH1 0x40 MSTORE CALLVALUE DUP1 ISZERO PUSH2 0xF JUMPI PUSH0 PUSH0 REVERT JUMPDEST POP PUSH1 0x4 CALLDATASIZE LT PUSH2 0x34 JUMPI PUSH0 CALLDATALOAD PUSH1 0xE0 SHR DUP1 PUSH4 0x4761822F EQ PUSH2 0x38 JUMPI DUP1 PUSH4 0x534545B6 EQ PUSH2 0x56 JUMPI JUMPDEST PUSH0 PUSH0 REVERT JUMPDEST PUSH2 0x40 PUSH2 0x60 JUMP JUMPDEST PUSH1 0x40 MLOAD PUSH2 0x4D SWAP2 SWAP1 PUSH2 0x171 JUMP JUMPDEST PUSH1 0x40 MLOAD DUP1 SWAP2 SUB SWAP1 RETURN JUMPDEST PUSH2 0x5E PUSH2 0x84 JUMP JUMPDEST STOP JUMPDEST PUSH0 PUSH0 SWAP1 SLOAD SWAP1 PUSH2 0x100 EXP SWAP1 DIV PUSH20 0xFFFFFFFFFFFFFFFFFFFFFFFFFFFFFFFFFFFFFFFF AND DUP2 JUMP JUMPDEST PUSH1 0x40 MLOAD PUSH2 0x90 SWAP1 PUSH2 0xEA JUMP JUMPDEST PUSH1 0x40 MLOAD DUP1 SWAP2 SUB SWAP1 PUSH0 CREATE DUP1 ISZERO DUP1 ISZERO PUSH2 0xA9 JUMPI RETURNDATASIZE PUSH0 PUSH0 RETURNDATACOPY RETURNDATASIZE PUSH0 REVERT JUMPDEST POP PUSH0 PUSH0 PUSH2 0x100 EXP DUP2 SLOAD DUP2 PUSH20 0xFFFFFFFFFFFFFFFFFFFFFFFFFFFFFFFFFFFFFFFF MUL NOT AND SWAP1 DUP4 PUSH20 0xFFFFFFFFFFFFFFFFFFFFFFFFFFFFFFFFFFFFFFFF AND MUL OR SWAP1 SSTORE POP JUMP JUMPDEST PUSH2 0x9A7 DUP1 PUSH2 0x18B DUP4 CODECOPY ADD SWAP1 JUMP JUMPDEST PUSH0 PUSH20 0xFFFFFFFFFFFFFFFFFFFFFFFFFFFFFFFFFFFFFFFF DUP3 AND SWAP1 POP SWAP2 SWAP1 POP JUMP JUMPDEST PUSH0 DUP2 SWAP1 POP SWAP2 SWAP1 POP JUMP JUMPDEST PUSH0 PUSH2 0x139 PUSH2 0x134 PUSH2 0x12F DUP5 PUSH2 0xF7 JUMP JUMPDEST PUSH2 0x116 JUMP JUMPDEST PUSH2 0xF7 JUMP JUMPDEST SWAP1 POP SWAP2 SWAP1 POP JUMP JUMPDEST PUSH0 PUSH2 0x14A DUP3 PUSH2 0x11F JUMP JUMPDEST SWAP1 POP SWAP2 SWAP1 POP JUMP JUMPDEST PUSH0 PUSH2 0x15B DUP3 PUSH2 0x140 JUMP JUMPDEST SWAP1 POP SWAP2 SWAP1 POP JUMP JUMPDEST PUSH2 0x16B DUP2 PUSH2 0x151 JUMP JUMPDEST DUP3 MSTORE POP POP JUMP JUMPDEST PUSH0 PUSH1 0x20 DUP3 ADD SWAP1 POP PUSH2 0x184 PUSH0 DUP4 ADD DUP5 PUSH2 0x162 JUMP JUMPDEST SWAP3 SWAP2 POP POP JUMP INVALID PUSH1 0x80 PUSH1 0x40 MSTORE PUSH0 PUSH0 SSTORE CALLVALUE DUP1 ISZERO PUSH1 0x11 JUMPI PUSH0 PUSH0 REVERT JUMPDEST POP PUSH2 0x988 DUP1 PUSH2 0x1F PUSH0 CODECOPY PUSH0 RETURN INVALID PUSH1 0x80 PUSH1 0x40 MSTORE CALLVALUE DUP1 ISZERO PUSH2 0xF JUMPI PUSH0 PUSH0 REVERT JUMPDEST POP PUSH1 0x4 CALLDATASIZE LT PUSH2 0x60 JUMPI PUSH0 CALLDATALOAD PUSH1 0xE0 SHR DUP1 PUSH4 0x2E64CEC1 EQ PUSH2 0x64 JUMPI DUP1 PUSH4 0x6057361D EQ PUSH2 0x82 JUMPI DUP1 PUSH4 0x6168CFC5 EQ PUSH2 0x9E JUMPI DUP1 PUSH4 0x72CEC4A1 EQ PUSH2 0xBA JUMPI DUP1 PUSH4 0x8986F6A5 EQ PUSH2 0xD6 JUMPI DUP1 PUSH4 0xBA89DC1A EQ PUSH2 0x107 JUMPI JUMPDEST PUSH0 PUSH0 REVERT JUMPDEST PUSH2 0x6C PUSH2 0x137 JUMP JUMPDEST PUSH1 0x40 MLOAD PUSH2 0x79 SWAP2 SWAP1 PUSH2 0x2DB JUMP JUMPDEST PUSH1 0x40 MLOAD DUP1 SWAP2 SUB SWAP1 RETURN JUMPDEST PUSH2 0x9C PUSH1 0x4 DUP1 CALLDATASIZE SUB DUP2 ADD SWAP1 PUSH2 0x97 SWAP2 SWAP1 PUSH2 0x32F JUMP JUMPDEST PUSH2 0x13F JUMP JUMPDEST STOP JUMPDEST PUSH2 0xB8 PUSH1 0x4 DUP1 CALLDATASIZE SUB DUP2 ADD SWAP1 PUSH2 0xB3 SWAP2 SWAP1 PUSH2 0x496 JUMP JUMPDEST PUSH2 0x148 JUMP JUMPDEST STOP JUMPDEST PUSH2 0xD4 PUSH1 0x4 DUP1 CALLDATASIZE SUB DUP2 ADD SWAP1 PUSH2 0xCF SWAP2 SWAP1 PUSH2 0x32F JUMP JUMPDEST PUSH2 0x1CC JUMP JUMPDEST STOP JUMPDEST PUSH2 0xF0 PUSH1 0x4 DUP1 CALLDATASIZE SUB DUP2 ADD SWAP1 PUSH2 0xEB SWAP2 SWAP1 PUSH2 0x32F JUMP JUMPDEST PUSH2 0x1E1 JUMP JUMPDEST PUSH1 0x40 MLOAD PUSH2 0xFE SWAP3 SWAP2 SWAP1 PUSH2 0x550 JUMP JUMPDEST PUSH1 0x40 MLOAD DUP1 SWAP2 SUB SWAP1 RETURN JUMPDEST PUSH2 0x121 PUSH1 0x4 DUP1 CALLDATASIZE SUB DUP2 ADD SWAP1 PUSH2 0x11C SWAP2 SWAP1 PUSH2 0x57E JUMP JUMPDEST PUSH2 0x296 JUMP JUMPDEST PUSH1 0x40 MLOAD PUSH2 0x12E SWAP2 SWAP1 PUSH2 0x2DB JUMP JUMPDEST PUSH1 0x40 MLOAD DUP1 SWAP2 SUB SWAP1 RETURN JUMPDEST PUSH0 PUSH0 SLOAD SWAP1 POP SWAP1 JUMP JUMPDEST DUP1 PUSH0 DUP2 SWAP1 SSTORE POP POP JUMP JUMPDEST PUSH1 0x1 PUSH1 0x40 MLOAD DUP1 PUSH1 0x40 ADD PUSH1 0x40 MSTORE DUP1 DUP5 DUP2 MSTORE PUSH1 0x20 ADD DUP4 DUP2 MSTORE POP SWAP1 DUP1 PUSH1 0x1 DUP2 SLOAD ADD DUP1 DUP3 SSTORE DUP1 SWAP2 POP POP PUSH1 0x1 SWAP1 SUB SWAP1 PUSH0 MSTORE PUSH1 0x20 PUSH0 KECCAK256 SWAP1 PUSH1 0x2 MUL ADD PUSH0 SWAP1 SWAP2 SWAP1 SWAP2 SWAP1 SWAP2 POP PUSH0 DUP3 ADD MLOAD DUP2 PUSH0 ADD SWAP1 DUP2 PUSH2 0x198 SWAP2 SWAP1 PUSH2 0x7D3 JUMP JUMPDEST POP PUSH1 0x20 DUP3 ADD MLOAD DUP2 PUSH1 0x1 ADD SSTORE POP POP DUP1 PUSH1 0x2 DUP4 PUSH1 0x40 MLOAD PUSH2 0x1B6 SWAP2 SWAP1 PUSH2 0x8DC JUMP JUMPDEST SWAP1 DUP2 MSTORE PUSH1 0x20 ADD PUSH1 0x40 MLOAD DUP1 SWAP2 SUB SWAP1 KECCAK256 DUP2 SWAP1 SSTORE POP POP POP JUMP JUMPDEST PUSH0 SLOAD DUP2 PUSH2 0x1D9 SWAP2 SWAP1 PUSH2 0x91F JUMP JUMPDEST PUSH0 DUP2 SWAP1 SSTORE POP POP JUMP JUMPDEST PUSH1 0x1 DUP2 DUP2 SLOAD DUP2 LT PUSH2 0x1F0 JUMPI PUSH0 DUP1 REVERT JUMPDEST SWAP1 PUSH0 MSTORE PUSH1 0x20 PUSH0 KECCAK256 SWAP1 PUSH1 0x2 MUL ADD PUSH0 SWAP2 POP SWAP1 POP DUP1 PUSH0 ADD DUP1 SLOAD PUSH2 0x20F SWAP1 PUSH2 0x5F2 JUMP JUMPDEST DUP1 PUSH1 0x1F ADD PUSH1 0x20 DUP1 SWAP2 DIV MUL PUSH1 0x20 ADD PUSH1 0x40 MLOAD SWAP1 DUP2 ADD PUSH1 0x40 MSTORE DUP1 SWAP3 SWAP2 SWAP1 DUP2 DUP2 MSTORE PUSH1 0x20 ADD DUP3 DUP1 SLOAD PUSH2 0x23B SWAP1 PUSH2 0x5F2 JUMP JUMPDEST DUP1 ISZERO PUSH2 0x286 JUMPI DUP1 PUSH1 0x1F LT PUSH2 0x25D JUMPI PUSH2 0x100 DUP1 DUP4 SLOAD DIV MUL DUP4 MSTORE SWAP2 PUSH1 0x20 ADD SWAP2 PUSH2 0x286 JUMP JUMPDEST DUP3 ADD SWAP2 SWAP1 PUSH0 MSTORE PUSH1 0x20 PUSH0 KECCAK256 SWAP1 JUMPDEST DUP2 SLOAD DUP2 MSTORE SWAP1 PUSH1 0x1 ADD SWAP1 PUSH1 0x20 ADD DUP1 DUP4 GT PUSH2 0x269 JUMPI DUP3 SWAP1 SUB PUSH1 0x1F AND DUP3 ADD SWAP2 JUMPDEST POP POP POP POP POP SWAP1 DUP1 PUSH1 0x1 ADD SLOAD SWAP1 POP DUP3 JUMP JUMPDEST PUSH1 0x2 DUP2 DUP1 MLOAD PUSH1 0x20 DUP2 ADD DUP3 ADD DUP1 MLOAD DUP5 DUP3 MSTORE PUSH1 0x20 DUP4 ADD PUSH1 0x20 DUP6 ADD KECCAK256 DUP2 DUP4 MSTORE DUP1 SWAP6 POP POP POP POP POP POP PUSH0 SWAP2 POP SWAP1 POP SLOAD DUP2 JUMP JUMPDEST PUSH0 DUP2 SWAP1 POP SWAP2 SWAP1 POP JUMP JUMPDEST PUSH2 0x2D5 DUP2 PUSH2 0x2C3 JUMP JUMPDEST DUP3 MSTORE POP POP JUMP JUMPDEST PUSH0 PUSH1 0x20 DUP3 ADD SWAP1 POP PUSH2 0x2EE PUSH0 DUP4 ADD DUP5 PUSH2 0x2CC JUMP JUMPDEST SWAP3 SWAP2 POP POP JUMP JUMPDEST PUSH0 PUSH1 0x40 MLOAD SWAP1 POP SWAP1 JUMP JUMPDEST PUSH0 PUSH0 REVERT JUMPDEST PUSH0 PUSH0 REVERT JUMPDEST PUSH2 0x30E DUP2 PUSH2 0x2C3 JUMP JUMPDEST DUP2 EQ PUSH2 0x318 JUMPI PUSH0 PUSH0 REVERT JUMPDEST POP JUMP JUMPDEST PUSH0 DUP2 CALLDATALOAD SWAP1 POP PUSH2 0x329 DUP2 PUSH2 0x305 JUMP JUMPDEST SWAP3 SWAP2 POP POP JUMP JUMPDEST PUSH0 PUSH1 0x20 DUP3 DUP5 SUB SLT ISZERO PUSH2 0x344 JUMPI PUSH2 0x343 PUSH2 0x2FD JUMP JUMPDEST JUMPDEST PUSH0 PUSH2 0x351 DUP5 DUP3 DUP6 ADD PUSH2 0x31B JUMP JUMPDEST SWAP2 POP POP SWAP3 SWAP2 POP POP JUMP JUMPDEST PUSH0 PUSH0 REVERT JUMPDEST PUSH0 PUSH0 REVERT JUMPDEST PUSH0 PUSH1 0x1F NOT PUSH1 0x1F DUP4 ADD AND SWAP1 POP SWAP2 SWAP1 POP JUMP JUMPDEST PUSH32 0x4E487B7100000000000000000000000000000000000000000000000000000000 PUSH0 MSTORE PUSH1 0x41 PUSH1 0x4 MSTORE PUSH1 0x24 PUSH0 REVERT JUMPDEST PUSH2 0x3A8 DUP3 PUSH2 0x362 JUMP JUMPDEST DUP2 ADD DUP2 DUP2 LT PUSH8 0xFFFFFFFFFFFFFFFF DUP3 GT OR ISZERO PUSH2 0x3C7 JUMPI PUSH2 0x3C6 PUSH2 0x372 JUMP JUMPDEST JUMPDEST DUP1 PUSH1 0x40 MSTORE POP POP POP JUMP JUMPDEST PUSH0 PUSH2 0x3D9 PUSH2 0x2F4 JUMP JUMPDEST SWAP1 POP PUSH2 0x3E5 DUP3 DUP3 PUSH2 0x39F JUMP JUMPDEST SWAP2 SWAP1 POP JUMP JUMPDEST PUSH0 PUSH8 0xFFFFFFFFFFFFFFFF DUP3 GT ISZERO PUSH2 0x404 JUMPI PUSH2 0x403 PUSH2 0x372 JUMP JUMPDEST JUMPDEST PUSH2 0x40D DUP3 PUSH2 0x362 JUMP JUMPDEST SWAP1 POP PUSH1 0x20 DUP2 ADD SWAP1 POP SWAP2 SWAP1 POP JUMP JUMPDEST DUP3 DUP2 DUP4 CALLDATACOPY PUSH0 DUP4 DUP4 ADD MSTORE POP POP POP JUMP JUMPDEST PUSH0 PUSH2 0x43A PUSH2 0x435 DUP5 PUSH2 0x3EA JUMP JUMPDEST PUSH2 0x3D0 JUMP JUMPDEST SWAP1 POP DUP3 DUP2 MSTORE PUSH1 0x20 DUP2 ADD DUP5 DUP5 DUP5 ADD GT ISZERO PUSH2 0x456 JUMPI PUSH2 0x455 PUSH2 0x35E JUMP JUMPDEST JUMPDEST PUSH2 0x461 DUP5 DUP3 DUP6 PUSH2 0x41A JUMP JUMPDEST POP SWAP4 SWAP3 POP POP POP JUMP JUMPDEST PUSH0 DUP3 PUSH1 0x1F DUP4 ADD SLT PUSH2 0x47D JUMPI PUSH2 0x47C PUSH2 0x35A JUMP JUMPDEST JUMPDEST DUP2 CALLDATALOAD PUSH2 0x48D DUP5 DUP3 PUSH1 0x20 DUP7 ADD PUSH2 0x428 JUMP JUMPDEST SWAP2 POP POP SWAP3 SWAP2 POP POP JUMP JUMPDEST PUSH0 PUSH0 PUSH1 0x40 DUP4 DUP6 SUB SLT ISZERO PUSH2 0x4AC JUMPI PUSH2 0x4AB PUSH2 0x2FD JUMP JUMPDEST JUMPDEST PUSH0 DUP4 ADD CALLDATALOAD PUSH8 0xFFFFFFFFFFFFFFFF DUP2 GT ISZERO PUSH2 0x4C9 JUMPI PUSH2 0x4C8 PUSH2 0x301 JUMP JUMPDEST JUMPDEST PUSH2 0x4D5 DUP6 DUP3 DUP7 ADD PUSH2 0x469 JUMP JUMPDEST SWAP3 POP POP PUSH1 0x20 PUSH2 0x4E6 DUP6 DUP3 DUP7 ADD PUSH2 0x31B JUMP JUMPDEST SWAP2 POP POP SWAP3 POP SWAP3 SWAP1 POP JUMP JUMPDEST PUSH0 DUP2 MLOAD SWAP1 POP SWAP2 SWAP1 POP JUMP JUMPDEST PUSH0 DUP3 DUP3 MSTORE PUSH1 0x20 DUP3 ADD SWAP1 POP SWAP3 SWAP2 POP POP JUMP JUMPDEST DUP3 DUP2 DUP4 MCOPY PUSH0 DUP4 DUP4 ADD MSTORE POP POP POP JUMP JUMPDEST PUSH0 PUSH2 0x522 DUP3 PUSH2 0x4F0 JUMP JUMPDEST PUSH2 0x52C DUP2 DUP6 PUSH2 0x4FA JUMP JUMPDEST SWAP4 POP PUSH2 0x53C DUP2 DUP6 PUSH1 0x20 DUP7 ADD PUSH2 0x50A JUMP JUMPDEST PUSH2 0x545 DUP2 PUSH2 0x362 JUMP JUMPDEST DUP5 ADD SWAP2 POP POP SWAP3 SWAP2 POP POP JUMP JUMPDEST PUSH0 PUSH1 0x40 DUP3 ADD SWAP1 POP DUP2 DUP2 SUB PUSH0 DUP4 ADD MSTORE PUSH2 0x568 DUP2 DUP6 PUSH2 0x518 JUMP JUMPDEST SWAP1 POP PUSH2 0x577 PUSH1 0x20 DUP4 ADD DUP5 PUSH2 0x2CC JUMP JUMPDEST SWAP4 SWAP3 POP POP POP JUMP JUMPDEST PUSH0 PUSH1 0x20 DUP3 DUP5 SUB SLT ISZERO PUSH2 0x593 JUMPI PUSH2 0x592 PUSH2 0x2FD JUMP JUMPDEST JUMPDEST PUSH0 DUP3 ADD CALLDATALOAD PUSH8 0xFFFFFFFFFFFFFFFF DUP2 GT ISZERO PUSH2 0x5B0 JUMPI PUSH2 0x5AF PUSH2 0x301 JUMP JUMPDEST JUMPDEST PUSH2 0x5BC DUP5 DUP3 DUP6 ADD PUSH2 0x469 JUMP JUMPDEST SWAP2 POP POP SWAP3 SWAP2 POP POP JUMP JUMPDEST PUSH32 0x4E487B7100000000000000000000000000000000000000000000000000000000 PUSH0 MSTORE PUSH1 0x22 PUSH1 0x4 MSTORE PUSH1 0x24 PUSH0 REVERT JUMPDEST PUSH0 PUSH1 0x2 DUP3 DIV SWAP1 POP PUSH1 0x1 DUP3 AND DUP1 PUSH2 0x609 JUMPI PUSH1 0x7F DUP3 AND SWAP2 POP JUMPDEST PUSH1 0x20 DUP3 LT DUP2 SUB PUSH2 0x61C JUMPI PUSH2 0x61B PUSH2 0x5C5 JUMP JUMPDEST JUMPDEST POP SWAP2 SWAP1 POP JUMP JUMPDEST PUSH0 DUP2 SWAP1 POP DUP2 PUSH0 MSTORE PUSH1 0x20 PUSH0 KECCAK256 SWAP1 POP SWAP2 SWAP1 POP JUMP JUMPDEST PUSH0 PUSH1 0x20 PUSH1 0x1F DUP4 ADD DIV SWAP1 POP SWAP2 SWAP1 POP JUMP JUMPDEST PUSH0 DUP3 DUP3 SHL SWAP1 POP SWAP3 SWAP2 POP POP JUMP JUMPDEST PUSH0 PUSH1 0x8 DUP4 MUL PUSH2 0x67E PUSH32 0xFFFFFFFFFFFFFFFFFFFFFFFFFFFFFFFFFFFFFFFFFFFFFFFFFFFFFFFFFFFFFFFF DUP3 PUSH2 0x643 JUMP JUMPDEST PUSH2 0x688 DUP7 DUP4 PUSH2 0x643 JUMP JUMPDEST SWAP6 POP DUP1 NOT DUP5 AND SWAP4 POP DUP1 DUP7 AND DUP5 OR SWAP3 POP POP POP SWAP4 SWAP3 POP POP POP JUMP JUMPDEST PUSH0 DUP2 SWAP1 POP SWAP2 SWAP1 POP JUMP JUMPDEST PUSH0 PUSH2 0x6C3 PUSH2 0x6BE PUSH2 0x6B9 DUP5 PUSH2 0x2C3 JUMP JUMPDEST PUSH2 0x6A0 JUMP JUMPDEST PUSH2 0x2C3 JUMP JUMPDEST SWAP1 POP SWAP2 SWAP1 POP JUMP JUMPDEST PUSH0 DUP2 SWAP1 POP SWAP2 SWAP1 POP JUMP JUMPDEST PUSH2 0x6DC DUP4 PUSH2 0x6A9 JUMP JUMPDEST PUSH2 0x6F0 PUSH2 0x6E8 DUP3 PUSH2 0x6CA JUMP JUMPDEST DUP5 DUP5 SLOAD PUSH2 0x64F JUMP JUMPDEST DUP3 SSTORE POP POP POP POP JUMP JUMPDEST PUSH0 PUSH0 SWAP1 POP SWAP1 JUMP JUMPDEST PUSH2 0x707 PUSH2 0x6F8 JUMP JUMPDEST PUSH2 0x712 DUP2 DUP5 DUP5 PUSH2 0x6D3 JUMP JUMPDEST POP POP POP JUMP JUMPDEST PUSH0 JUMPDEST DUP3 DUP2 LT ISZERO PUSH2 0x738 JUMPI PUSH2 0x72D PUSH0 DUP3 DUP5 ADD PUSH2 0x6FF JUMP JUMPDEST PUSH1 0x1 DUP2 ADD SWAP1 POP PUSH2 0x719 JUMP JUMPDEST POP POP POP JUMP JUMPDEST PUSH1 0x1F DUP3 GT ISZERO PUSH2 0x78B JUMPI DUP3 DUP3 GT ISZERO PUSH2 0x78A JUMPI PUSH2 0x757 DUP2 PUSH2 0x622 JUMP JUMPDEST PUSH2 0x760 DUP4 PUSH2 0x634 JUMP JUMPDEST PUSH2 0x769 DUP6 PUSH2 0x634 JUMP JUMPDEST PUSH1 0x20 DUP7 LT ISZERO PUSH2 0x776 JUMPI PUSH0 SWAP1 POP JUMPDEST DUP1 DUP4 ADD PUSH2 0x785 DUP3 DUP5 SUB DUP3 PUSH2 0x717 JUMP JUMPDEST POP POP POP POP JUMPDEST JUMPDEST POP POP POP JUMP JUMPDEST PUSH0 DUP3 DUP3 SHR SWAP1 POP SWAP3 SWAP2 POP POP JUMP JUMPDEST PUSH0 PUSH2 0x7AB PUSH0 NOT DUP5 PUSH1 0x8 MUL PUSH2 0x790 JUMP JUMPDEST NOT DUP1 DUP4 AND SWAP2 POP POP SWAP3 SWAP2 POP POP JUMP JUMPDEST PUSH0 PUSH2 0x7C3 DUP4 DUP4 PUSH2 0x79C JUMP JUMPDEST SWAP2 POP DUP3 PUSH1 0x2 MUL DUP3 OR SWAP1 POP SWAP3 SWAP2 POP POP JUMP JUMPDEST PUSH2 0x7DC DUP3 PUSH2 0x4F0 JUMP JUMPDEST PUSH8 0xFFFFFFFFFFFFFFFF DUP2 GT ISZERO PUSH2 0x7F5 JUMPI PUSH2 0x7F4 PUSH2 0x372 JUMP JUMPDEST JUMPDEST PUSH2 0x7FF DUP3 SLOAD PUSH2 0x5F2 JUMP JUMPDEST PUSH2 0x80A DUP3 DUP3 DUP6 PUSH2 0x73D JUMP JUMPDEST PUSH0 PUSH1 0x20 SWAP1 POP PUSH1 0x1F DUP4 GT PUSH1 0x1 DUP2 EQ PUSH2 0x83B JUMPI PUSH0 DUP5 ISZERO PUSH2 0x829 JUMPI DUP3 DUP8 ADD MLOAD SWAP1 POP JUMPDEST PUSH2 0x833 DUP6 DUP3 PUSH2 0x7B8 JUMP JUMPDEST DUP7 SSTORE POP PUSH2 0x89A JUMP JUMPDEST PUSH1 0x1F NOT DUP5 AND PUSH2 0x849 DUP7 PUSH2 0x622 JUMP JUMPDEST PUSH0 JUMPDEST DUP3 DUP2 LT ISZERO PUSH2 0x870 JUMPI DUP5 DUP10 ADD MLOAD DUP3 SSTORE PUSH1 0x1 DUP3 ADD SWAP2 POP PUSH1 0x20 DUP6 ADD SWAP5 POP PUSH1 0x20 DUP2 ADD SWAP1 POP PUSH2 0x84B JUMP JUMPDEST DUP7 DUP4 LT ISZERO PUSH2 0x88D JUMPI DUP5 DUP10 ADD MLOAD PUSH2 0x889 PUSH1 0x1F DUP10 AND DUP3 PUSH2 0x79C JUMP JUMPDEST DUP4 SSTORE POP JUMPDEST PUSH1 0x1 PUSH1 0x2 DUP9 MUL ADD DUP9 SSTORE POP POP POP JUMPDEST POP POP POP POP POP POP JUMP JUMPDEST PUSH0 DUP2 SWAP1 POP SWAP3 SWAP2 POP POP JUMP JUMPDEST PUSH0 PUSH2 0x8B6 DUP3 PUSH2 0x4F0 JUMP JUMPDEST PUSH2 0x8C0 DUP2 DUP6 PUSH2 0x8A2 JUMP JUMPDEST SWAP4 POP PUSH2 0x8D0 DUP2 DUP6 PUSH1 0x20 DUP7 ADD PUSH2 0x50A JUMP JUMPDEST DUP1 DUP5 ADD SWAP2 POP POP SWAP3 SWAP2 POP POP JUMP JUMPDEST PUSH0 PUSH2 0x8E7 DUP3 DUP5 PUSH2 0x8AC JUMP JUMPDEST SWAP2 POP DUP2 SWAP1 POP SWAP3 SWAP2 POP POP JUMP JUMPDEST PUSH32 0x4E487B7100000000000000000000000000000000000000000000000000000000 PUSH0 MSTORE PUSH1 0x11 PUSH1 0x4 MSTORE PUSH1 0x24 PUSH0 REVERT JUMPDEST PUSH0 PUSH2 0x929 DUP3 PUSH2 0x2C3 JUMP JUMPDEST SWAP2 POP PUSH2 0x934 DUP4 PUSH2 0x2C3 JUMP JUMPDEST SWAP3 POP DUP3 DUP3 ADD SWAP1 POP DUP1 DUP3 GT ISZERO PUSH2 0x94C JUMPI PUSH2 0x94B PUSH2 0x8F2 JUMP JUMPDEST JUMPDEST SWAP3 SWAP2 POP POP JUMP INVALID LOG2 PUSH5 0x6970667358 0x22 SLT KECCAK256 STOP PUSH22 0xBF88881F258F5F57F3D7E1B799E2098C17F419ACADA4 CALLDATASIZE 0x4C CODECOPY RJUMP 0x2268 PUSH0 0xD9 PUSH5 0x736F6C6343 STOP ADDMOD 0x22 STOP CALLER LOG2 PUSH5 0x6970667358 0x22 SLT KECCAK256 0xCB 0xB0 DATALOADN 0x99B8 0x2D SWAP3 0x2C JUMP PUSH12 0x956D647920B9917C91A15847 NOT EXTCODEHASH PUSH17 0xDB15DEC3FCB22964736F6C634300082200 CALLER "
		},
		"gasEstimates": {
			"creation": {
				"codeDepositCost": "583800",
				"executionCost": "617",
				"totalCost": "584417"
			},
			"external": {
				"createsimplestorage()": "infinite",
				"mysimplestorage()": "infinite"
			}
		},
		"methodIdentifiers": {
			"createsimplestorage()": "534545b6",
			"mysimplestorage()": "4761822f"
		}
	},
	"abi": [
		{
			"inputs": [],
			"name": "createsimplestorage",
			"outputs": [],
			"stateMutability": "nonpayable",
			"type": "function"
		},
		{
			"inputs": [],
			"name": "mysimplestorage",
			"outputs": [
				{
					"internalType": "contract Simplestorage",
					"name": "",
					"type": "address"
				}
			],
			"stateMutability": "view",
			"type": "function"
		}
	]
}